:1000000000080020050D0000410D0000410D00001A
:100010002B510000410D0000410D0000410D00007A
:10002000410D0000410D0000410D0000410D000098
:10003000410D0000410D0000410D0000410D000088
:10004000410D0000410D0000410D0000410D000078
:10005000410D0000410D0000410D0000410D000068
:10006000410D0000410D0000410D0000410D000058
:100070004D6C0000410D0000410D0000410D0000DD
:10008000410D0000410D0000410D0000410D000038
:10009000410D0000410D0000410D0000410D000028
:1000A000410D00002D16000005160000410D000056
:1000B000410D000099C20000410D0000EDCB000091
:1000C000A5CB0000A1CB000065C40000E9CB000077
:1000D000A9CB0000C1CB0000ADCB000045CC000097
:1000E000A5AA00006DAC00002DCC0000410D000061
:1000F000254B0000410D0000410D0000410D0000A6
:10010000410D0000410D0000410D0000410D0000B7
:10011000410D0000410D0000410D0000410D0000A7
:10012000410D0000410D0000410D0000410D000097
:10013000410D0000410D0000410D0000410D000087
:1001400010B5054C237833B9044B13B1044800E0D3
:1001500000BF0123237010BDFC0A00200000000036
:10016000081D010008B5034B1BB10349034800E01B
:1001700000BF08BD00000000000B0020081D0100AA
:10018000A3F5803A704700BF174B002B08BF134BF5
:100190009D46FFF7F5FF00218B460F461348144A92
:1001A000121A0DF03EF80E4B002B00D098470D4B65
:1001B000002B00D098470020002104000D000D48BE
:1001C000002802D00C4800E000BF0CF0F9FF20002E
:1001D000290000F057FA0CF0DFFF00BF0000080014
:1001E000000000000000000000080020FC0A0020C1
:1001F000A0120020000000000000000000B585B043
:1002000000F03CF8002000F015FC0390039807F084
:10021000BDFA03461A46144B1A70134B1B78002B79
:1002200001D000231BE00023009325230F4A10492F
:10023000039807F0E0FA03461A460B4B1A700A4B74
:100240001B78002B01D0002309E0039800F09CF9F3
:10025000084800F0CFFF084800F0CCFF039B184689
:1002600005B05DF804FB00BF180B0020D6BE898ED8
:1002700055555500ACD20000C4D2000000BF7047F5
:1002800000B585B001900091009B9968009B9B8808
:100290001A4601980CF0B8FF009BDB68002B12D0C7
:1002A000009B5A88009B9B88D31AADF80E30009BA8
:1002B0009B881A46019B9818009BDB68BDF80E20AE
:1002C00019460CF0A1FF00BF05B05DF804FB00006B
:1002D00000B58BB0019000238DF8273000238DF8F6
:1002E00026305B4B1B78DBB2002B06D0584B00222C
:1002F0001A70584B00221A702EE0574B1B78DBB255
:10030000002B06D0544B00221A70524B01221A7057
:1003100022E0524B1B78DBB2002B06D04F4B002261
:100320001A704C4B02221A7016E04D4B1B78DBB250
:10033000002B06D04A4B00221A70464B03221A703B
:100340000AE0484B1B78DBB2002B05D0454B00225E
:100350001A70404B04221A703E4B1B78DBB2052BFF
:100360006FD801A252F823F081030000E3030000DC
:10037000EB030000F303000033040000FB03000064
:1003800004AB1A460221019807F0FEF80346364AEC
:1003900013601EE00023039303AA04AB19463348FD
:1003A00000F008F90346ADF824302F4B1B681946BE
:1003B000019807F0EFF803468DF827302C4B1B7897
:1003C00004AB1A460221019807F0DEF80346264ADC
:1003D0001360254B1B68002BDCD11E4B05221A70C5
:1003E00032E01C4B05221A702EE01A4B05221A70BF
:1003F0002AE0184B05221A7026E01E4B1B78DBB250
:10040000002B20D0019800F0EDF8002300220021FD
:10041000019806F001FD03468DF827309DF827303E
:10042000002B02D00B4B03221A70124B00221A70C1
:1004300009E0114B1B788DF82630064B05221A7007
:1004400002E000BF00E000BF00BF0BB05DF804FB9E
:10045000570D002001080020580D0020590D0020E4
:100460005A0D00205B0D00202C0B0020300B0020CB
:1004700000080020190B0020280B00202DE9F04F68
:1004800087B00590CDE902232F49DDE90223C1E9B8
:100490000023DDE9022322F07F4424F47E0424F4C7
:1004A000E54424F07704002554EA050315D0DDE97E
:1004B000022302F00803009300230193DDE90012F8
:1004C0000B46134306D0059807F062F81F4B012234
:1004D0001A7002E01E4B01221A70DDE9022302F0BD
:1004E000AA4603F0220756EA07030FD0DDE90223EC
:1004F00002F0807A4FF0000B5AEA0B0303D0154B41
:1005000001221A7002E0144B01221A70DDE9022365
:100510004FF0000803F4007958EA090310D00022D4
:100520000021059806F0CAFF03461A460B4B1A70C5
:100530000A4B1B78DBB2002B02D0094B01221A7048
:1005400000BF07B0BDE8F08F200B0020570D002042
:10055000590D0020580D00205A0D0020280B0020B6
:100560005B0D002000B583B00190019800F0B1FC54
:100570000346012B02D1034B01221A7000BF03B0C6
:100580005DF804FB190B002000B585B00190002335
:10059000ADF80E304FF4807300220549019806F043
:1005A000D1FF0346ADF80E3000BF05B05DF804FB87
:1005B000300C002000B585B00390029101920299A1
:1005C0000398FFF75DFE019B039A1A60029B5B880C
:1005D000B3F5807F28BF4FF480739BB2184605B0F7
:1005E0005DF804FB00B585B001900023ADF80E3036
:1005F0000023ADF80C301E4A1378022161F3030387
:1006000013701B4A13786FF386131370184B1B7803
:10061000C3F38013D9B2164A137861F3C71313706A
:10062000134A5378112161F30503537006221149CF
:1006300011480CF0E9FD114B0B22114918460CF042
:10064000E3FD0B4B5B78C3F30503DBB29BB20233D4
:10065000ADF80E30BDF80E2001230549019806F0D3
:100660006DFF0346ADF80C3000BF05B05DF804FB2C
:10067000300D002060D20000320D0020380D002027
:1006800068D2000008B506F02AFBFFF7B7FD034665
:10069000054A136006F030FB034B1B681846FFF752
:1006A00017FE04F087FDF5E75C0D002082B0019095
:1006B0000023184602B0704782B00190009100BF3D
:1006C00002B0704708B500F009FA00BF08BD08B5D0
:1006D0000321802001F0ECFD03214FF4806001F044
:1006E000E7FD03214FF4906001F0E2FD08214FF493
:1006F000C06001F0DDFD08214FF4F06001F0D8FD8D
:1007000008213E2001F0D4FD08212D2001F0D0FD6C
:100710000023184608BD0000024B1B681B0CDBB20F
:10072000184670470080E00F00B583B0FFF7F4FF74
:100730000346012B1ED1114B5B6E03F48023002B6B
:100740000CBF012300238DF807300C4B03F58053B9
:100750001A464FF480235366094B04221A609DF811
:100760000730002B06D0054B03F500531A464FF413
:100770008023536600BF03B05DF804FB0080004097
:100780002020014008B5FFF7CFFF04F02BF800F060
:10079000BCF903F04DFF04F041F803F077FF03F0DC
:1007A000D7FFFFF794FF03F057FF00F0A1F904F023
:1007B000C1FC00BF08BD08B500F0C8FE00F054F948
:1007C00000F060F900BF08BD08B505F0ADFB04F00E
:1007D0002BF804F039FC00BF08BD08B503F06CFD30
:1007E00003F0F8FE03F01CFF00F038F900BF08BD6D
:1007F00008B500F055F900BF08BD00BF704700BF45
:10080000704700BF704700BF70470123184670470C
:1008100001231846704700B583B001238DF80730D7
:10082000FFF7F3FF034683F00103DBB2002B02D096
:1008300000238DF807309DF80730184603B05DF8A7
:1008400004FB00B583B000238DF8073000238DF83A
:10085000063004F0BDFE03468DF80730FFF7D8FFE1
:1008600003468DF805309DF80530042B03D1012394
:100870008DF8063006E09DF80530022B02D10123E9
:100880008DF807309DF80630002B02D000238DF83C
:1008900007309DF80730184603B05DF804FB82B0BE
:1008A00001900091FEE700B583B00190009100999E
:1008B0000198FFF7F4FF00BF03B05DF804FB82B0BE
:1008C000019000BF02B0704700B583B0019001985D
:1008D000FFF7F5FF00BF03B05DF804FB82B00190A5
:1008E000009100BF02B0704700B583B00190009145
:1008F0000099019803F0ECFC00990198FFF7EEFFD6
:1009000000BF03B05DF804FB00B585B00390CDE9EE
:100910000023DDE900230398FFF7B0FD00BF05B019
:100920005DF804FB0000000000B589B03C493D487B
:1009300006F02AFA03463C4A13603B4B1B68002B27
:1009400000D1FEE700230593374B1B6805AA11462B
:10095000184606F0EFFD03468DF81F309DF81F3056
:10096000002B00D0FEE7002306932F4B1B682F4A75
:100970000699184606F0C2FC2B4B1B68012118464D
:1009800003F0FAFD03468DF81F309DF81F30002B51
:1009900000D0FEE7244B19681FA3D3E90023CDE95B
:1009A00000234FF0FF324FF0FF33084606F0EEFC15
:1009B00003468DF81F309DF81F30002B00D0FEE756
:1009C0001B4B1B88ADF81030194B1B88ADF80C3051
:1009D000154B1B6804AA1146184606F0BBFC0346DB
:1009E0008DF81F309DF81F30002B00D0FEE70E4B16
:1009F0001B6803AA1146184606F0C4FC03468DF88E
:100A00001F309DF81F30002B00D0FEE700BF09B05B
:100A10005DF804FBAFF3008018AC0155E203000061
:100A2000C90800000808002004080020E9080000A8
:100A300074D2000084B003468DF80730064B039350
:100A40009DF807309B0004AA134453F8043C1B682C
:100A5000184604B0704700BF0408002008B5FFF72F
:100A600063FF00BF08BD000008B5044800F01DFA90
:100A7000034800F01AFA00BF08BD00BF78D200009A
:100A800090D2000008B5044800F0A6FB034800F02F
:100A9000A3FB00BF08BD00BFACD20000C4D2000061
:100AA00000B583B001213B2000F01CFE07F064F884
:100AB0000020FFF7BFFF01900121019806F09AF98D
:100AC00000BF03B05DF804FB08B501230422042134
:100AD000012002F029FF0023184608BD08B50023B5
:100AE00004220421012002F01FFF0023184608BD44
:100AF00008B501213A2000F0F5FDFFF7E3FDFFF70F
:100B0000E3FF00F067F800BF08BD08B501213A20F7
:100B100000F0E8FD00BF08BD82B0034600918DF8EB
:100B200007309DF80730002B0AD09DF80730012BC5
:100B300006D09DF80730022B02D09DF80730032B1A
:100B400008489DF807200121009B994013465B004F
:100B500013441B01034403F500531033196000BF15
:100B600002B0704700C0034082B0034600918DF888
:100B700007309DF80730002B0AD09DF80730012B75
:100B800006D09DF80730022B02D09DF80730032BCA
:100B900008489DF807200121009B994013465B00FF
:100BA00013441B01034403F580531033196000BF45
:100BB00002B0704700C0034008B504210020FFF7D1
:100BC000ABFF00BF08BD08B504210020FFF7CCFF34
:100BD00000BF08BD30B587B0454B6C461D460FCDF4
:100BE0000FC495E8030084E8030001213A2000F0D7
:100BF00079FD0121282000F075FD01238DF80E30CC
:100C00003C4B02936B4619463B4803F05DF80123C9
:100C100004220021022002F087FE0023012201218C
:100C2000022002F081FE012304220221022002F0B0
:100C30007BFE012304220421002002F075FE2F4BCD
:100C40004FF00212C3F830262C4B2D4AC3F82C2645
:100C50002A4B0222C3F83426284B1C22C3F81C2638
:100C60004FF4487006F05AF8FFF7A6FF142006F07C
:100C700055F8FFF7A8FF232006F050F8FFF79CFF78
:100C8000B9211D4803F0F0F8FFF79DFF0023002273
:100C90000021022002F048FE002300220121022050
:100CA00002F042FE012300220221022002F03CFE5B
:100CB000012300220421002002F036FE0E4803F03A
:100CC0007DF80E4B0022C3F830260C4B0022C3F8EF
:100CD0002C260A4B0022C3F83426084B0022C3F806
:100CE0001C260021282000F0FDFC00BF07B030BD0D
:100CF000DCD2000000127A0000C0054000C00340B2
:100D00000200010000B583B000F01CF8094B01930C
:100D1000094B009307E0019A131D0193009B191DD5
:100D2000009112681A60009B044A9342F3D3FFF7C4
:100D30002BFA00BF101D010000080020FC0A002053
:100D4000FEE70000064B074A9A60054BD3F888304F
:100D5000034A43F47003C2F8883000BF704700BFF5
:100D600000ED00E000000000014B1B6818467047D2
:100D7000FC09002000B583B0002301930E4B1B6FCC
:100D800003F00703032B09D0032B0ED8012B09D046
:100D9000022B0AD1FFF7E8FF019007E0074B1B6821
:100DA000019303E0064B019300E0FEE7019B184628
:100DB00003B05DF804FB00BF00800040F409002090
:100DC000002D310100B583B0FFF7D4FF01900A4B2D
:100DD0001B6F1B0B03F00F030093009B0133019A61
:100DE000B2FBF3F30193054A019B1360019B184684
:100DF00003B05DF804FB00BF00800040000A002043
:100E0000014B1846704700BF00B4C404014B1B6877
:100E100018467047F409002000B583B00190074AD6
:100E2000019B1360064B1B6F03F00703032B01D1DB
:100E3000FFF7C8FF00BF03B05DF804FBF409002012
:100E4000008000400023184670470000014B184600
:100E5000704700BF002D31014FF400431846704722
:100E60004FF47A7318467047014B1B681846704759
:100E7000F809002082B00190019B00221A6000BF97
:100E800002B0704782B001900091009B002B02D00D
:100E9000019B002B00BF019B1A68009B1A60019BFD
:100EA000009A1A6000BF02B0704700B583B001908D
:100EB000019B5B68002B07D0019B5B68019A12685D
:100EC00010469847034600E02223184603B05DF819
:100ED00004FB00B583B00190019B5B69002B07D038
:100EE000019B5B69019A126810469847034600E02F
:100EF000FF23184603B05DF804FB82B00190009117
:100F0000019B1A68009B22FA03F303F001031846C1
:100F100002B0704700B583B0034600918DF80730EA
:100F20009DF80730002B0AD09DF80730012B06D022
:100F30009DF80730022B02D09DF80730032B9DF857
:100F4000072013465B0013441B01143303F1804355
:100F500003F5703300991846FFF7CFFF0346184694
:100F600003B05DF804FB00B583B003468DF807308D
:100F70009DF807300021184600F004FB00BF03B0C5
:100F80005DF804FB00B585B003468DF807300023FB
:100F90008DF80F302FE09DF80F301C4A52F82330A7
:100FA0001B680293029B5B799DF807209A421DD132
:100FB000029B1B78022B19D0029B1A79029B5B794A
:100FC00019461046FFF7A6FF0346002B0CBF01236E
:100FD0000023DBB21A46029B1A709DF80F300B4AB1
:100FE00052F823301846FFF7BDFA0BE09DF80F309A
:100FF00001338DF80F30064B1B789DF80F209A4275
:10100000C9D300BF00BF05B05DF804FBE4090020B0
:10101000A8D2000000B587B00390039B059301217F
:101020003A2000F05FFB059B1879059B5B79194618
:101030000023012202F078FC059B1A79059B5B795D
:1010400019461046FFF766FF0346002B0CBF01232D
:101050000023DBB21A46059B1A70059B9B79022B75
:1010600016D100F073FA059B5B790C49184600F025
:1010700089FA059B1879059B5B791946059B5B7975
:101080001A460123019301230093012302F0B8FBC8
:101090000023184607B05DF804FB00BF850F000071
:1010A00084B00190019B0393039B1B78184604B006
:1010B000704700B585B00190019B0393039B1B789B
:1010C000022B48D0039B1A79039B5B791946104683
:1010D000FFF720FF0346002B14BF012300238DF8E8
:1010E0000B30039B9B79012B28D1039B5B88ADF8C8
:1010F0000830BDF808305B009AB29DF80B309BB207
:1011000013439BB24FF6C0721343ADF808304FF64D
:10111000E072BDF80830934202D1039B01221A709D
:101120004FF6DF72BDF80830934202D1039B0022D4
:101130001A70039BBDF808205A800DE0039B9B7931
:10114000002B09D19DF80B3083F00103DBB21A4666
:10115000039B1A7000E000BF05B05DF804FB00B50A
:1011600085B00190019B0393039B1B78022B06D152
:10117000039B00225A800398FFF74CFF00E000BF5A
:1011800005B05DF804FB00B587B00390039B0593A1
:10119000059B1B78022B1BD0059B9B79022B13D13F
:1011A000059B5B791846FFF7DEFE059B1879059BCA
:1011B0005B791946059B5B791A460023019300234E
:1011C0000093002302F01CFB059B02221A7000E032
:1011D00000BF07B05DF804FB00B583B00190019B30
:1011E0005B68019A1268104698470346184603B098
:1011F0005DF804FB00B583B00190019BDB68019AA8
:1012000012681046984700BF03B05DF804FB82B037
:1012100001900091019B1A68009B22FA03F303F0EE
:101220000103184602B0704782B0034600918DF862
:1012300007309DF80730002B0AD09DF80730012BAE
:1012400006D09DF80730022B02D09DF80730032B03
:1012500008489DF807200121009B994013465B0038
:1012600013441B01034403F500531033196000BFFE
:1012700002B0704700C0034000B583B00346009140
:101280008DF807309DF80730002B0AD09DF8073005
:10129000012B06D09DF80730022B02D09DF80730B5
:1012A000032B9DF8072013465B0013441B011033EA
:1012B00003F1804303F5703300991846FFF7A7FF49
:1012C0000346184603B05DF804FB000082B00346F5
:1012D00000918DF807309DF80730002B0AD09DF85B
:1012E0000730012B06D09DF80730022B02D09DF865
:1012F0000730032B08489DF807200121009B9940E7
:1013000013465B0013441B01034403F58053103361
:10131000196000BF02B0704700C0034082B00346AE
:1013200000918DF807309DF80730002B0AD09DF80A
:101330000730012B06D09DF80730022B02D09DF814
:101340000730032B08489DF807200121009B994096
:1013500013465B0013441B01034403F54053103351
:10136000196000BF02B0704700C0034000B585B0EF
:101370000190019B039301213A2000F0B3F9039BF4
:101380001878039B5B781946039B9B78002B0CBF56
:1013900001230023DBB2042202F0C6FA0023184620
:1013A00005B05DF804FB00B585B00190019B039387
:1013B000039B9B78002B08D1039B1A78039B5B78D7
:1013C00019461046FFF730FF07E0039B1A78039B8E
:1013D0005B7819461046FFF779FF00BF05B05DF84E
:1013E00004FB00B585B00190019B0393039B9B78A0
:1013F000002B08D1039B1A78039B5B781946104693
:10140000FFF764FF07E0039B1A78039B5B7819469C
:101410001046FFF709FF00BF05B05DF804FB00B5FB
:1014200085B00190019B0393039B1A78039B5B7823
:1014300019461046FFF772FF00BF05B05DF804FBC8
:1014400000B585B00190019B0393039B1A78039B21
:101450005B7819461046FFF70FFF03468DF80B30F7
:10146000039B9B78002B07D19DF80B30002B0CBF02
:1014700001230023DBB201E09DF80B30184605B0D4
:101480005DF804FB82B003468DF807309DF9073004
:10149000002B0CDB9DF8073003F01F0205499DF976
:1014A00007305B09012000FA02F241F8232000BF57
:1014B00002B0704700E100E082B003468DF80730CB
:1014C0009DF90730002B0DDB9DF8073003F01F025C
:1014D00006499DF907305B09012000FA02F26033EA
:1014E00041F8232000BF02B0704700BF00E100E0D8
:1014F00084B00190019B0393039B93FAA3F302939F
:10150000029BB3FA83F3DBB2184604B070470000C5
:1015100082B00190044B03F500531A46019BC2F8B8
:10152000203400BF02B0704700C0034082B0064BB9
:10153000D3F824340193044BD3F82024019B1340A7
:10154000184602B0704700BF00C0034008B519201C
:1015500001F0E4FD0346002B05D01920FFF7ACFF96
:101560001920FFF78FFF1A2001F0D8FD0346002B4A
:1015700005D01A20FFF7A0FF1A20FFF783FF00BF56
:1015800008BD000000B585B0034600918DF8073016
:1015900001F0A8FD03909DF807300549009A41F835
:1015A0002320039801F0AEFD00BF05B05DF804FBF9
:1015B0006C0D002000B585B0019018E00198FFF790
:1015C00097FF03900122039B02FA03F3DB43019A86
:1015D000134001930A4A039B52F823300293029B63
:1015E000002B04D0039BDAB2029B10469847019B64
:1015F000002BE3D100BF00BF05B05DF804FB00BFC6
:101600006C0D002000B583B0FFF790FF034603F098
:10161000553323F0502301930198FFF779FF019888
:10162000FFF7C8FF00BF03B05DF804FB00B583B04F
:10163000FFF77CFF034603F0AA3323F0A0230193B6
:101640000198FFF765FF0198FFF7B4FF00BF03B0F3
:101650005DF804FB08B5FFF7B5FB0346184608BD67
:1016600086B0039002910192019B002B04D0039B52
:1016700003F58053059303E0039B03F500530593A3
:10168000059B0121029A01FA02F21A6000BF06B01E
:10169000704782B001900091019B1A68009B22FA6A
:1016A00003F303F00103184602B0704708B500BF0A
:1016B00004210448FFF7EDFF0346002BF8D100BFDB
:1016C00000BF08BD8440004008B5FFF7EFFF4FF0B2
:1016D0004023D3F884309B0903F00303DBB21846A0
:1016E00008BD000000B585B003460A46ADF80630D7
:1016F00013468DF8053000230393BDF806305B09CF
:101700009BB2002B13D0BDF806305B099BB2012BB6
:1017100002D10F4B03930AE0BDF806305B099BB280
:10172000022B02D10B4B039301E00B4B0393BDF84B
:10173000063003F01F0302939DF805301A46029904
:101740000398FFF78DFF00BF05B05DF804FB00BFF5
:1017500064800040688000406082004010B584B022
:101760000346ADF806300023039300230293BDF82F
:101770000630B3F5F06F00F0A982B3F5F06F00F317
:10178000AB82B3F5E06F00F09B82B3F5E06F00F33E
:10179000A382B3F5D06F00F08D82B3F5D06F00F364
:1017A0009B82B3F5C06F00F07F82B3F5C06F00F38A
:1017B0009382B3F5B06F00F06B82B3F5B06F00F3B6
:1017C0008B82B3F5A06F00F05D82B3F5A06F00F3DC
:1017D0008382B3F5906F00F04F82B3F5906F00F302
:1017E0007B82B3F5806F00F04182B3F5806F00F328
:1017F0007382B3F5607F00F02A82B3F5607F00F357
:101800006B82B3F5407F00F01582B3F5407F00F3A3
:101810006382B3F5207F00F00182B3F5207F00F3EF
:101820005B82B3F5007F00F0ED81B3F5007F00F33C
:101830005382B3F5C07F00F0E081B3F5C07F00F3C1
:101840004B82002B00F0D981002BC0F24582B3F50A
:10185000807F00F34182202BC0F23E82203BE02BB0
:1018600000F23A8201A252F823F000BFFB1B0000F5
:101870001D1C0000FB1B00001D1C00006D1C000057
:101880006D1C00006D1C00006D1C00001D1C000084
:101890001D1C0000911C0000351C0000A91C00004C
:1018A000B51C0000351C00001D1C00001D1C0000A4
:1018B0001D1C0000D91C0000D91C0000D91C000010
:1018C000D91C0000D91C0000D91C0000851C000098
:1018D000791C00001D1C00001D1C00001D1C0000C8
:1018E000CD1C0000C11C00001D1C0000D91C000004
:1018F000D91C0000D91C0000D91C0000D91C000014
:10190000D91C0000D91C0000D91C0000D91C000003
:10191000D91C0000D91C0000D91C0000D91C0000F3
:10192000FB1B0000D91C0000FB1B0000FB1B000080
:10193000FB1B00006D1C0000D91C0000D91C00001E
:10194000D91C0000D91C0000D91C0000D91C0000C3
:10195000D91C0000D91C0000D91C0000D91C0000B3
:10196000D91C0000D91C0000D91C0000FB1B000082
:10197000FB1B0000D91C0000D91C0000D91C000072
:10198000D91C0000D91C0000D91C0000D91C000083
:10199000D91C0000D91C0000D91C0000D91C000073
:1019A000D91C0000D91C0000D91C0000D91C000063
:1019B000D91C0000D91C0000D91C0000D91C000053
:1019C000D91C0000D91C0000D91C0000D91C000043
:1019D000D91C0000D91C0000D91C0000D91C000033
:1019E000D91C0000D91C0000D91C0000F11B00000C
:1019F000D91C0000D91C0000D91C0000D91C000013
:101A0000D91C0000D91C0000D91C0000D91C000002
:101A1000D91C0000D91C0000D91C0000D91C0000F2
:101A2000D91C0000D91C0000D91C0000D91C0000E2
:101A3000D91C0000D91C0000D91C0000D91C0000D2
:101A4000D91C0000D91C0000D91C0000D91C0000C2
:101A5000D91C0000D91C0000D91C0000D91C0000B2
:101A6000D91C0000D91C0000D91C0000D91C0000A2
:101A7000D91C0000D91C0000D91C0000D91C000092
:101A8000D91C0000D91C0000D91C0000D91C000082
:101A9000D91C0000D91C0000D91C0000D91C000072
:101AA000D91C0000D91C0000D91C0000D91C000062
:101AB000D91C0000D91C0000D91C0000D91C000052
:101AC000D91C0000D91C0000D91C0000D91C000042
:101AD000D91C0000D91C0000D91C0000D91C000032
:101AE000D91C0000D91C0000D91C0000D91C000022
:101AF000D91C0000D91C0000D91C0000D91C000012
:101B0000D91C0000D91C0000D91C0000D91C000001
:101B1000D91C0000D91C0000D91C0000D91C0000F1
:101B2000D91C0000D91C0000D91C0000D91C0000E1
:101B3000D91C0000D91C0000D91C0000D91C0000D1
:101B4000D91C0000D91C0000D91C0000D91C0000C1
:101B5000D91C0000D91C0000D91C0000D91C0000B1
:101B6000D91C0000D91C0000D91C0000D91C0000A1
:101B7000D91C0000D91C0000D91C0000D91C000091
:101B8000D91C0000D91C0000D91C0000D91C000081
:101B9000D91C0000D91C0000D91C0000D91C000071
:101BA000D91C0000D91C0000D91C0000D91C000061
:101BB000D91C0000D91C0000D91C0000D91C000051
:101BC000D91C0000D91C0000D91C0000D91C000041
:101BD000D91C0000D91C0000D91C0000D91C000031
:101BE000D91C0000D91C0000D91C00009D1C00005D
:101BF000FFF7C0F8034603936FE0FFF7E3F80346EF
:101C000003936AE0FFF7B6F804464FF4007000F063
:101C100035F90346B4FBF3F303935EE0FFF7D2F824
:101C200004464FF4207000F029F90346B4FBF3F3A7
:101C3000039352E0FFF7C6F804464FF4207000F01B
:101C40001DF90346B4FBF3F35B08039345E002ABD5
:101C50000021184600F0F4F8029C4FF4607000F088
:101C60000DF90346B4FBF3F3039336E003AB002115
:101C7000184600F0F7FF30E003AB0021184600F0F3
:101C800031F82AE003AB0021184600F08BF824E07D
:101C900003AB0021184601F01BF91EE003AB002145
:101CA000184601F05FF818E003AB0021184601F078
:101CB00019F812E003AB0021184601F0ADF90CE071
:101CC00003AB0021184601F05DF906E003AB0021EB
:101CD000184601F075F800E000BF039B184604B0F9
:101CE00010BD00BF00B585B00190009100230393A3
:101CF0002B4BD3F8243103F00703013B052B39D8D4
:101D000001A252F823F000BF211D00003D1D00007C
:101D1000591D0000671D00002F1D00004B1D000015
:101D2000FFF722F8039005238DF80B3026E0FFF72C
:101D30001BF8039006238DF80B301FE0FFF766F8C1
:101D4000039003238DF80B3018E0FFF75FF8039042
:101D500004238DF80B3011E0FFF778F8039002238D
:101D60008DF80B300AE0FFF76DF8039007238DF82C
:101D70000B3003E000238DF80B3000BF019B002BDC
:101D800002D0019B039A1A60009B002B03D0009B9A
:101D90009DF80B201A7000BF05B05DF804FB00BF72
:101DA0000080004000B583B001900091124BD3F841
:101DB000203203F00303012B02D0022B05D009E0EF
:101DC0000099019800F04EFF11E00099019800F091
:101DD00089FF0CE0019B002B02D0019B00221A60BE
:101DE000009B002B02D0009B00221A7000BF00BF96
:101DF00003B05DF804FB00BF00800040044B03F516
:101E000080531A464FF48033136700BF704700BFFA
:101E10000080004008B58020FFF7A0FC0346064A7A
:101E2000934206D8054B03F500531A464FF480330E
:101E3000136700BF08BD00BF005A62020080004067
:101E400000B585B00190009100230393FEF792FF47
:101E500003900D238DF80B30019B002B02D0019BCA
:101E6000039A1A60009B002B03D0009B9DF80B2067
:101E70001A7000BF05B05DF804FB000084B0034693
:101E8000ADF8063000230393BDF80630B3F5607F4C
:101E90001AD0B3F5607F2EDCB3F5207F24D0B3F5E4
:101EA000207F28DCB3F5007F16D0B3F5007F22DC5D
:101EB000002B02D0B3F5C07F1DD1124B1B6F1B0B43
:101EC00003F00F03039317E00E4BD3F880301B0988
:101ED00003F0030303930FE00A4BD3F890301B0E7B
:101EE00003F01F03039307E0064B1B6F9B0A03F0ED
:101EF0000103039300E000BF039B0133184604B0C5
:101F0000704700BF0080004010B582B003460091CA
:101F1000ADF80630BDF80630B3F5607F43D0B3F5B9
:101F2000607F7ADCB3F5207F66D0B3F5207F74DC68
:101F3000B3F5007F4DD0B3F5007F6EDC002B02D0EF
:101F4000B3F5C07F69D1009B012B0AD0009B022B07
:101F500007D0009B042B04D0009B082B01D0009BD2
:101F6000102B00BF01F04EF800F0EAFFFFF746FF2C
:101F70002C4B1B6F23F47042009B013B1B03294930
:101F800013430B67FFF766FB0446FFF79DFB034611
:101F9000C3F102031946204600F008FE00F0D8FF06
:101FA000FFF738FF3AE0009B012B04D0009B022B87
:101FB00001D0009B042B00BF1A4BD3F8803023F0D4
:101FC0003002009B013B1B0116491343C1F88030CE
:101FD00024E0009B002B02D0009B202B00BF114B64
:101FE000D3F8903023F0F852009B013B1B060D49BB
:101FF0001343C1F8903011E0009B012B01D0009BEE
:10200000022B00BF074B1B6F23F48062009B013B38
:102010009B02044913430B6700E000BF00BF02B0FE
:1020200010BD00BF0080004000B585B00346ADF88C
:10203000063000238DF80F30BDF80630B3F5086F79
:1020400000F01881B3F5086F00F32981B3F5006F34
:1020500000F00281B3F5006F00F32181B3F5F06F5A
:1020600000F0F380B3F5F06F00F31981B3F5E06F82
:1020700000F00E81B3F5E06F00F31181B3F5D06F7E
:1020800000F0F180B3F5D06F00F30981B3F5C06FB4
:1020900000F0D480B3F5C06F00F30181B3F5B06FE9
:1020A00000F0B780B3F5B06F00F3F980B3F5A06F1F
:1020B00000F0E780B3F5A06F00F3F180B3F5906F07
:1020C00000F0CA80B3F5906F00F3E980B3F5806F3C
:1020D00000F0A680B3F5806F00F3E180B3F5807F58
:1020E00000F0A580B3F5807F00F3D980522B67DC28
:1020F000242BC0F2D480243B2E2B00F2D08001A2EE
:1021000052F823F0212200002122000021220000A9
:10211000212200009F2200009F22000013220000C5
:102120009F2200003D220000672200009F22000045
:102130009F2200009F2200009F2200009F2200009B
:102140009F2200009F2200009F2200009F2200008B
:102150009F220000832200009F2200009F22000097
:102160009F2200009F2200004B22000091220000CD
:102170009F2200009F2200009F2200009F2200005B
:102180009F2200009F2200009F2200009F2200004B
:102190009F2200009F2200009F2200009F2200003B
:1021A0009F2200009F2200009F2200009F2200002B
:1021B0009F2200009F2200009F2200002122000099
:1021C000802B6CD1394B1B6F03F00703013B032BB2
:1021D0001AD801A252F823F001220000E9210000E0
:1021E000F1210000F921000005238DF80F300FE0E8
:1021F00003238DF80F300BE007238DF80F3007E035
:1022000002238DF80F3003E000238DF80F3000BF5C
:1022100046E00DF10F031946002000F059FE3FE0A3
:102220000DF10F031946002000F01CFD38E00DF100
:102230000F031946002000F095FD31E00DF10F036A
:102240001946002000F04EFD2AE00DF10F0319465B
:10225000002000F0B5FD23E00DF10F03194600202A
:10226000FFF740FD1CE00DF10F031946002000F0C0
:10227000D3FE15E00DF10F031946002000F0AAFC73
:102280000EE00DF10F0319460020FFF78BFD07E06C
:102290000DF10F031946002000F074FE00E000BFAE
:1022A0009DF80F30184605B05DF804FB0080004033
:1022B00010B584B003460A46ADF8063013468DF8D3
:1022C00005300023039300238DF80B3000238DF895
:1022D0000A30BDF80630B3F5086F00F08982B3F517
:1022E000086F00F3EF82B3F5006F00F01982B3F5C9
:1022F000006F00F3E782B3F5F06F00F0EF81B3F504
:10230000F06F00F3DF82B3F5E06F00F0B982B3F550
:10231000E06F00F3D782B3F5D06F00F03B82B3F5E6
:10232000D06F00F3CF82B3F5C06F00F0B581B3F585
:10233000C06F00F3C782B3F5B06F00F00781B3F54B
:10234000B06F00F3BF82B3F5A06F00F08182B3F5E8
:10235000A06F00F3B782B3F5906F00F0E181B3F5A1
:10236000906F00F3AF82B3F5806F00F00781B3F593
:10237000806F00F3A782B3F5807F00F01F81B3F573
:10238000807F00F39F82522B68DC242BC0F29A825C
:10239000243B2E2B00F2968201A252F823F000BFBC
:1023A0007D2500007D2500007D2500007D250000A5
:1023B000C5280000C52800004D250000C5280000E4
:1023C0009926000095270000C5280000C5280000B8
:1023D000C5280000C5280000C5280000C528000049
:1023E000C5280000C5280000C5280000C528000039
:1023F00051280000C5280000C5280000C52800009D
:10240000C5280000DD26000081280000C528000046
:10241000C5280000C5280000C5280000C528000008
:10242000C5280000C5280000C5280000C5280000F8
:10243000C5280000C5280000C5280000C5280000E8
:10244000C5280000C5280000C5280000C5280000D8
:10245000C5280000C52800007D250000802B40F025
:1024600031829DF80530023B052B32D801A252F88B
:1024700023F000BFCD24000093240000D3240000EB
:102480008D240000D3240000C724000002230393FE
:1024900020E003230393AF4B03F580531A464FF418
:1024A00000235366AC4B9B6A03F00203002B14BF5E
:1024B000012300238DF80B30A74B03F580531A46F8
:1024C0000123936206E00423039303E001230393B3
:1024D00000E000BF0121022000F0B0FF00F092FDFB
:1024E00000F02EFDFFF78AFC9A4B1B6F23F00702CA
:1024F0009849039B13430B67FFF7ACF80446FFF7BB
:10250000E3F80346C3F102031946204600F04EFBF0
:102510000121002000F064FF00F01AFDFFF77AFCB3
:102520009DF80B3083F00103DBB2002B0AD09DF83D
:102530000530032B08D1884B03F500531A460123BD
:10254000936202E000BFBEE100BFBCE19DF8053030
:10255000022B04D00F2B05D10123039303E00223A8
:10256000039300E000BF7B4BD3F8803123F00302DC
:102570007849039B1343C1F88031A4E19DF80530ED
:10258000052B06D0052B0DDC022B08D0032B03D026
:1025900008E00123039306E00223039303E00323EF
:1025A000039300E000BF6B4BD3F8203123F003020C
:1025B0006849039B1343C1F8203184E19DF805303D
:1025C000083B082B66D801A252F823F0F125000041
:1025D000F125000095260000F125000043260000AB
:1025E000952600009526000095260000F1250000A4
:1025F000584B5B6E03F48033002B0CBF0123002388
:102600008DF80A30534B03F580531A464FF480334C
:102610005366524B1B6A514A43F0010313629DF803
:102620000A30002B06D04B4B03F500531A464FF4EB
:10263000803353664A4B1B68494A23F004031360F6
:1026400029E0444B5B6E03F48033002B0CBF012365
:1026500000238DF80A303F4B03F580531A464FF4A0
:10266000803353663D4B1B6A3C4A23F001031362DF
:102670009DF80A30002B06D0364B03F500531A465E
:102680004FF480335366364B1B68354A43F00403DE
:10269000136000E000BF16E19DF805300B2B0ED053
:1026A0000B2B0FDC082B07D0082B0BDB093B012B76
:1026B00008D80123039306E00223039303E00323D6
:1026C000039300E000BF234BD3F8403123F0030213
:1026D0002049039B1343C1F84031F4E09DF80530D5
:1026E0000B2B0ED00B2B0FDC082B07D0082B0BDB92
:1026F000093B012B08D80123039306E0022303932F
:1027000003E00323039300E000BF124BD3F86031D2
:1027100023F003020F49039B1343C1F86031D2E059
:102720009DF80530023B052B28D801A252F823F072
:10273000652700004F270000772700004927000089
:10274000712700006B2700000123039317E0022389
:10275000039314E00080004000C0004000C0074028
:1027600010E000E00323039309E00423039306E051
:102770000523039303E00623039300E000BF534BBC
:10278000D3F8243123F007025049039B1343C1F8C7
:10279000243198E09DF80530083B062B1CD801A297
:1027A00052F823F0C7270000C1270000C12700000E
:1027B000CD270000D9270000D9270000D32700002B
:1027C0000123039309E00223039306E00323039309
:1027D00003E00423039300E000BF3C4BD3F8003236
:1027E00023F007023949039B1343C1F800326AE022
:1027F0009DF80530013B072B1ED801A252F823F0AB
:102800003328000039280000212800003928000062
:1028100039280000392800002D2800002728000052
:102820000123039309E00223039306E003230393A8
:1028300003E00023039300E000BF244BD3F80031F2
:1028400023F003022149039B1343C1F800313AE00E
:102850009DF805300F2B02D0102B03D005E001238B
:10286000039302E00223039300BF184BD3F82032F6
:1028700023F003021549039B1343C1F8203222E0E1
:102880009DF805300B2B0ED00B2B0FDC082B07D03F
:10289000082B0BDB093B012B08D80123039306E02F
:1028A0000223039303E00323039300E000BF074BDD
:1028B000D3F8403223F003020449039B1343C1F8C9
:1028C000403200E000BF00BF04B010BD00800040F7
:1028D00000B583B001908020FFF7A6FB0346032BD1
:1028E00000F0DB806F4B03F580531A464FF4002352
:1028F00053666D4B45F60E02C3F880206A4B03F514
:1029000080531A4602239362674B03F500531A461D
:102910000123936200BF644B9B6D03F48033002B53
:10292000F9D1019B1B781A06019B5B781B051A43A2
:10293000019BDB781B041A43019B1B791B031A4381
:10294000019B5B799B011343019A92791A43564B81
:102950001A61554B9B6903F00043019AD2799206A4
:102960001343019A127A12061343019A527A1204FF
:102970001343019A927A12021343019AD27A1146B2
:10298000494A0B439361484B1B6A23F00D03019A9C
:10299000527B002A01D1002200E008221343019A51
:1029A000127B92001343019A527B11463E4A0B431D
:1029B0001362019B5B7B002B54D13B4B9B6A23F042
:1029C0003303019A927B52011343019AD27B120185
:1029D0001343354A43F00103936200BF324B9A6DB3
:1029E000324B1340314A9342F8D12F4B03F58053B9
:1029F0001A46022393622C4B02221A6500BF2A4B0F
:102A00009B6D03F08043002BF9D1274B1B6923F406
:102A10007003019A927812051146234A0B43136101
:102A2000214B03F580531A464FF000439361019BFD
:102A30001B7C83F00103DBB2002B05D01A4B03F59E
:102A400000531A4602239362019B5B7C83F00103CF
:102A5000DBB2002B18D0144B03F500531A460123A8
:102A6000936211E0104B9B6A23F03303019A927B2F
:102A700052011343019A127C52001343019A527C73
:102A80001146094A0B439362019B9B7C002B05D0A6
:102A9000054B074AC3F8802000E000BF03B05DF893
:102AA00004FB00BF0080004000C000400300014064
:102AB000F1A7FFFF024B93F900301846704700BFA3
:102AC000EC0D002084B001904F230393019B5B78B1
:102AD0008DF80B309DF80B20039B934228BF1346C3
:102AE0008DF80A30284B03F580531A464FF48003C3
:102AF0005366264B4FF4D1525A62244B03F5805350
:102B00001A4602235360214B03F500531A46012352
:102B1000536000BF1D4B1B6903F48033002BF9D1B8
:102B2000019B1B781A029DF80A30184913434B6128
:102B3000019B9B781A02019BDB781B011A43019BC6
:102B40001B795B001343019A52791A430F4B9A6029
:102B5000019B9B795A01019BDB791B011A43019B65
:102B60001B7A5B001343019A527A1A43074B5A604F
:102B7000019B9B7A002B03D0044B6FF4D1525A6215
:102B800000BF04B0704700BF00800040000002405A
:102B900082B00346ADF80630034ABDF80630138014
:102BA00000BF02B0704700BF040A002000B583B028
:102BB00001900091009B002B04DD0121019800F0A1
:102BC0003FF903E00021019800F03AF900BF03B09B
:102BD0005DF804FB00B585B00190009100230393DC
:102BE0001F4BD3F8003103F00303032B23D801A2BA
:102BF00052F823F02F2C0000052C0000132C0000AD
:102C0000212C0000FEF702F9039003238DF80B300E
:102C100015E0FEF729F9039008238DF80B300EE03C
:102C2000FEF710F9039007238DF80B3007E001231E
:102C30008DF80B3003E000238DF80B3000BF019BB3
:102C4000002B02D0019B039A1A60009B002B03D03B
:102C5000009B9DF80B201A7000BF05B05DF804FBC7
:102C60000080004000B585B00190009100230393DF
:102C70001B4BD3F8203103F00303032B14D0032B99
:102C800019D8012B02D0022B07D014E0FEF76CF804
:102C9000039005238DF80B3011E0FEF7B7F8039091
:102CA00003238DF80B300AE0FEF7D0F803900223DF
:102CB0008DF80B3003E000238DF80B3000BF019B33
:102CC000002B02D0019B039A1A60009B002B03D0BB
:102CD000009B9DF80B201A7000BF05B05DF804FB47
:102CE0000080004000B585B001900091002303935F
:102CF0001B4BD3F8403103F00303032B14D0032BF9
:102D000019D8012B02D0022B07D014E0FEF7A4F84B
:102D1000039009238DF80B3011E0FEF7A5F803901E
:102D200008238DF80B300AE0FEF79AF803900B2386
:102D30008DF80B3003E000238DF80B3000BF019BB2
:102D4000002B02D0019B039A1A60009B002B03D03A
:102D5000009B9DF80B201A7000BF05B05DF804FBC6
:102D60000080004000B585B00190009100230393DE
:102D7000124B1B6803F00403002B07D0FEF722F868
:102D8000034603930C238DF80B3006E00DF10B0284
:102D900003AB11461846FFF7A5FF019B002B02D09D
:102DA000039A019B1A60009B002B03D09DF80B2017
:102DB000009B1A7000BF05B05DF804FB10E000E056
:102DC00000B585B001900091002303931B4BD3F80D
:102DD000603103F00303032B14D0032B19D8012B0C
:102DE00002D0022B07D014E0FEF736F80390092337
:102DF0008DF80B3011E0FEF737F8039008238DF8BB
:102E00000B300AE0FEF72CF803900B238DF80B3003
:102E100003E000238DF80B3000BF019B002B02D094
:102E2000019B039A1A60009B002B03D0009B9DF826
:102E30000B201A7000BF05B05DF804FB0080004055
:102E400000B585B0019000911E4B03F580531A46E2
:102E50004FF4003393660020FFF710F80246019B01
:102E600002FB03F30193184BDB6903F48033B3F5E2
:102E7000803F0CBF012300238DF80B30124B41F62D
:102E80007132DA63104B9B6823F440130393019B68
:102E90000E4A934207D9009B002B04DC039B43F4AA
:102EA0008013039300E000BF074A039B93609DF8E3
:102EB0000B30002B02D0044B0022DA6300BF05B0B8
:102EC0005DF804FB0080004000000340005A6202ED
:102ED00000B585B00190009100230293174BD3F801
:102EE000803103F00303012B02D0022B09D010E044
:102EF00002AB00211846FFF7B5FE0F238DF80F3007
:102F00000BE0FDF7A3FF0346029302238DF80F3079
:102F100003E000238DF80F3000BF019B002B02D08F
:102F2000029A019B1A60009B002B03D0009B9DF826
:102F30000F201A7000BF05B05DF804FB0080004050
:102F400008B502214FF42070FEF7DEFF00BF08BD78
:102F500000B583B0022301934FF4C070FEF7FEFB6F
:102F60000346074A934201D80123019301994FF484
:102F70002070FEF7C9FF00BF03B05DF804FB00BF7F
:102F800080F0FA0200B585B0019000910023039310
:102F90001B4BD3F8403203F00303032B14D0032B55
:102FA00019D8012B02D0022B07D014E0FDF754FFF3
:102FB000039009238DF80B3011E0FDF755FF0390C6
:102FC00008238DF80B300AE0FDF74AFF03900B232E
:102FD0008DF80B3003E000238DF80B3000BF019B10
:102FE000002B02D0019B039A1A60009B002B03D098
:102FF000009B9DF80B201A7000BF05B05DF804FB24
:103000000080004008B5FDF7FBFE0346002118468E
:10301000FFF716FF00BF08BD00B585B00190009115
:1030200000230393234BD3F8003203F00703013B43
:10303000032B29D801A252F823F000BF4D30000025
:103040005B3000006930000077300000FDF704FFBE
:10305000039009238DF80B301AE0FDF705FF03906C
:1030600008238DF80B3013E0FDF7FAFE03900B23D5
:103070008DF80B300CE0FDF7A5FE03469B0A039389
:103080000E238DF80B3003E000238DF80B3000BFCA
:10309000019B002B02D0019B039A1A60009B002B1E
:1030A00003D0009B9DF80B201A7000BF05B05DF89F
:1030B00004FB00BF0080004082B0EFF31083009358
:1030C000009B019372B600BF019B184602B0704787
:1030D00082B00190019B002B01D162B600BF00BFFE
:1030E00002B0704784B0EFF311830193019B039307
:1030F00030230293029B83F3118800BF039B184681
:1031000004B0704784B00190019B0393039B83F349
:10311000118800BF00BF04B07047000084B00346B0
:103120008DF807309DF90730002B03DB9DF9073040
:103130003F2B00BF0B4B03939DF907305A09039BAC
:1031400053F822209DF8073003F01F0322FA03F3FF
:1031500003F00103002B0CBF01230023DBB2184650
:1031600004B0704700E100E008B5FDF72BFE00BF9A
:1031700008BD82B001900091019B1A68009B22FA61
:1031800003F303F00103184602B07047024B034AF1
:103190001A6400BF704700BF004009403254FFFF6F
:1031A000024B4AF6CD321A6400BF70470040094016
:1031B00008B500BF04210448FFF7DBFF0346002BDE
:1031C000F8D100BF00BF08BD8440004008B5FFF73C
:1031D000EFFF4FF04023D3F884309B0903F0030343
:1031E000DBB2184608BD82B003468DF807309DF863
:1031F0000730013B4FF4806202FA03F3184602B035
:103200007047000000B585B003468DF807309DF883
:103210000730002B13D12D4B00221A602C4B03F5E5
:1032200080531A464FF4003353662A4B5B68012BD8
:1032300047D1274BD3F80031244A136041E0234B98
:103240001B68002B3DD0234B5B68012B39D0204AF3
:103250001E4B1B68C2F800318020FEF7E5FE0346D6
:10326000052B28D14FF4C070FEF708FE0390039B96
:10327000012B04D102214FF4C070FEF745FE154B1F
:1032800003F500531A4607231361124B03F58053CD
:103290001A460123536000BF0E4B1B6903F0010364
:1032A000002BF9D0039B012B0BD101214FF4C070EF
:1032B000FEF72AFE05E0074B03F580531A4601236B
:1032C000536000BF05B05DF804FB00BFF40D0020A3
:1032D0000080004000C0014082B003468DF80730F6
:1032E00000BF02B0704700BF704700BF70470000CA
:1032F00000B585B003468DF807309DF80730002BE8
:1033000002D00020FFF77EFF144B1B69134A43F0E5
:103310000403136102F0F0FCFFF7E5FFFFF7CCFEBA
:10332000039009F095FF0398FFF7D2FEFFF7DDFF4A
:1033300002F0FAFC9DF80730002B02D00120FFF7C5
:1033400061FF9DF8073083F00103DBB2002B01D051
:10335000FFF70AFF00BF05B05DF804FB00ED00E0D9
:1033600000B585B003468DF807309DF80730002B77
:1033700002D00020FFF746FF124B1B69114A43F0B1
:103380000403136102F0B8FCFFF796FE039009F006
:103390005FFF0398FFF79CFE02F0C6FC9DF8073024
:1033A000002B02D00120FFF72DFF9DF8073083F09E
:1033B0000103DBB2002B01D0FFF7D6FE00BF05B042
:1033C0005DF804FB00ED00E008B50020FFF71AFFF0
:1033D00000BF08BD08B50120FFF714FF00BF08BDFE
:1033E00000B585B001900B468DF80330019B002B92
:1033F00003D1FDF7BFFC039001E0019B03930D4B4C
:103400001B78002B0AD0039B0B4A934206D89DF8E9
:1034100003301946012000F011F806E09DF8033052
:103420001946022000F00AF800BF00BF05B05DF8A1
:1034300004FB00BFF00D0020005A620210B586B0F8
:1034400003460A468DF8073013468DF80630FFF71D
:10345000BDFE03461A469DF80730934245D0FDF75E
:1034600089FC0590059B04939DF80730012B03D13F
:1034700001210598FFF79AFBFFF71EFE03904FF01E
:10348000402303F500531A464FF0007353669DF82E
:1034900007301846FFF720FF4FF040249DF8073013
:1034A0001846FFF7A0FE0346236703E04FF04023D2
:1034B000D3F884304FF040235B6E03F00073002B91
:1034C00007D14FF04023D3F8843003F02003002BC2
:1034D000ECD00398FFF7FCFD9DF80730022B05D1D7
:1034E00000210598FFF762FB00E000BF06B010BDA9
:1034F00000B583B00190019B1A78054B1A70012129
:103500000020FFF76DFF00BF03B05DF804FB00BFB4
:10351000F00D002082B001904FF040235B6F23F448
:103520004072019B5B781B024FF0402113434B67B5
:1035300000BF02B0704782B001904FF04023DB6EB5
:1035400023F03003019A127911464FF040220B43C9
:10355000D36600BF02B0704700B585B001902A4B1A
:1035600003F580531A464FF000435366274B03F58B
:1035700080531A4601235360244B5B6C03F0010314
:10358000002B14BF012300238DF80F30FFF708FE36
:10359000019B5B785B004FF0402243F00103D36353
:1035A0001A4B9B6823F07402019B9B781B01134309
:1035B000019AD278002A01D0042200E000221349A7
:1035C00013438B60019B1B791B02019A9279114670
:1035D0000E4A0B431361019B5B791B02019AD2795E
:1035E00011460A4A0B435361019B1B78184600F0B1
:1035F0000FF89DF80F30002B01D0FFF7C7FD012316
:10360000184605B05DF804FB00800040004009400A
:1036100000B585B003468DF807302E4B03F5805377
:103620001A464FF0004353662B4B03F580531A465E
:1036300001235360284B5B6C03F00103002B14BF84
:10364000012300238DF80F30FFF7AAFD9DF8073006
:10365000002B1BD1204B9B6803F001030293029BBC
:10366000002B0CD01C4B03F500531A46012393602A
:1036700000BF194BDB6A03F00103002BF9D0164B96
:1036800003F500531A460123536019E000BF124BA3
:10369000DB6A03F00803002BF9D10F4B03F500534D
:1036A0001A46202353620C4B03F580531A4601231C
:1036B000936000BF084B5B6A03F02003002BF9D036
:1036C0009DF80F30002B01D0FFF760FD00BF05B063
:1036D0005DF804FB008000400040094086B0039084
:1036E00002910192019B002B04D0039B03F58053B0
:1036F000059303E0039B03F500530593059B01210C
:10370000029A01FA02F21A6000BF06B0704700B5D3
:1037100087B0039002910192FFF7CEFC0590039BC6
:103720001A68029BDB431A400199029B0B401A4323
:10373000039B1A600598FFF7CBFC00BF07B05DF84C
:1037400004FB000082B00190044B03F500531A46BD
:10375000019BC2F8203400BF02B0704700C0034094
:1037600082B0034600918DF807309DF80730002B9A
:103770000AD09DF80730012B06D09DF80730022BA8
:1037800002D09DF80730032B08489DF8072001213F
:10379000009B994013465B0013441B01034403F54F
:1037A00000531033196000BF02B0704700C00340DF
:1037B00082B0034600918DF807309DF80730002B4A
:1037C0000AD09DF80730012B06D09DF80730022B58
:1037D00002D09DF80730032B08489DF807200121EF
:1037E000009B994013465B0013441B01034403F5FF
:1037F00080531033196000BF02B0704700C003400F
:1038000000B587B0029101921A4603468DF80F3039
:1038100013468DF80E30002305939DF80F30002BD2
:103820000AD09DF80F30012B06D09DF80F30022BE7
:1038300002D09DF80F30032B019B072B0FD8019B63
:103840009B00032202FA03F19DF80F20019B9B00CD
:1038500002FA03F31A462D48FFF759FF11E0019BC6
:10386000083B0593059B9B00032202FA03F19DF898
:103870000F20059B9B0002FA03F31A462448FFF72A
:1038800046FF019B072B10D8019B9B00032202FAE5
:1038900003F1029B03F00302019B9B0002FA03F376
:1038A0001A461C48FFF733FF0FE0059B9B000322DD
:1038B00002FA03F1029B03F00302059B9B0002FA4C
:1038C00003F31A461448FFF722FF9DF80E301A46FC
:1038D00001991248FFF702FF9DF820301A4601991E
:1038E0000F48FFF7FBFE0122019B02FA03F3184683
:1038F000FFF728FF9DF824301A4601990948FFF781
:10390000EDFE00BF07B05DF804FB00BF00C403403C
:1039100004C4034008C403400CC4034010C4034063
:1039200014C4034024C4034000B585B00291019340
:1039300003468DF80F3013468DF80E309DF80F308A
:10394000002B0AD09DF80F30012B06D09DF80F30C8
:10395000022B02D09DF80F30032B9DF80E30002B68
:103960000FD0019B002B06D09DF80F30029918460E
:10397000FFF71EFF05E09DF80F3002991846FFF78C
:10398000EFFE029B072B23D830499DF80F201346EA
:103990005B0013441B010B4404331A68029B9B0019
:1039A0000F2101FA03F3DB4313409DF80E10029A36
:1039B000920001FA02F2114624489DF80F201943A3
:1039C00013465B0013441B0103440433196024E0D5
:1039D0001E499DF80F2013465B0013441B010B4446
:1039E0000C331A68029B083B9B000F2101FA03F37A
:1039F000DB4313409DF80E10029A083A920001FA38
:103A000002F2114611489DF80F20194313465B003E
:103A100013441B0103440C3319609DF80E30002B36
:103A20000FD1019B002B06D09DF80F30029918464C
:103A3000FFF7BEFE05E09DF80F3002991846FFF72C
:103A40008FFE00BF05B05DF804FB00BF00C003405F
:103A500000BF4FF090435B68002B04D04FF09043C1
:103A60009B6A002BF5D100BF704708B5FFF7F0FF48
:103A70004FF090430122DA6000BF08BD08B5FFF7A0
:103A8000E7FF4FF090430222DA6000BF08BD00005C
:103A900084B001900091009B1B781A46009B5B78D4
:103AA0009B001A43009BDB785B011A43009B1B7948
:103AB0001B014FF0904042EA0301019A13465B005C
:103AC00013449B00034430331960009B1B78012B87
:103AD00009D1064B0393009B9978019B9B00039AA5
:103AE00013440A461A6000BF04B07047E8800340E0
:103AF00000B583B003468DF807304FF090435B6804
:103B0000002B06D19DF8073083F00103DBB2002BB8
:103B100020D14FF090435B68002B01D0FFF798FF56
:103B20009DF80730002B09D04FF0904303F58053E8
:103B30001A4601235360FFF798FF0CE0FFF79EFF42
:103B4000FFF786FF4FF0904303F500531A46012319
:103B5000536000E000BF03B05DF804FB00B583B024
:103B600001904FF090435B68002B01D0FFF770FF8E
:103B70004FF0904303F500531A4601235360019B15
:103B80005B78002B01D0012200E00022019B9B7892
:103B9000002B01D0022300E000231343019AD278C6
:103BA000002A01D0042200E000221A43019B1B7965
:103BB0001B011A43019B5B79DB004FF090411343DB
:103BC0008B604FF0904303F580531A4601235360F6
:103BD000019B1B78002B01D0012300E002234FF052
:103BE0009042D36000BF03B05DF804FB84B0019045
:103BF000104B03F580531A464FF4803353660E4B37
:103C00005B690393039B9B09DBB203F03F03DAB2CA
:103C1000019B9A70039BDBB203F03F03DAB2019B76
:103C20005A70039B1B0BDAB2019B1A7000BF04B0E1
:103C3000704700BF0080004000C0074082B0019084
:103C40000B468DF80330019B0D4A934205D10D4A76
:103C50009DF80330C2F88C3108E0019B0A4A934278
:103C600004D1084A9DF80330C2F89C31019BDB6DFA
:103C700043F08002019BDA6500BF02B0704700BFCD
:103C800000C00540008003400000064000B587B03A
:103C9000039002910192029B002B04D14FF42070FB
:103CA000FDF75CFD0290029B5A1E019B5B00B2FB7C
:103CB000F3F30593059B1B020593039B059ADA61B9
:103CC00000BF07B05DF804FB00B583B00190009120
:103CD000019B384A934202D0019B374A934200BF6E
:103CE000019800F06BF8019B03F580531A460123FD
:103CF0005360019B9A68009B1B8A43F001039BB2AF
:103D00001946009B9B7B002B02D04FF4806300E0A0
:103D100000230B431A43019B9A60019B9B68009A06
:103D2000127D002A02D04FF0005200E000221A4318
:103D3000019B9A60009B9B7C002B05D0009BDB7C49
:103D400019460198FFF77AFF009B1B7B43F48052D2
:103D5000019BDA60009B5968009B9B681A4601989A
:103D6000FFF794FF009B5B7B002B02D0019B10228E
:103D70005A61009B5B7D002B05D0019B9B6843F43F
:103D80008032019B9A60009B9B7D1B0703F0E04201
:103D9000009BDB7D1B0503F4E0031A43019B9A653E
:103DA000009B1B781A46019B5A6100BF03B05DF867
:103DB00004FB00BF00C005400000064082B0019037
:103DC000019B264A934202D0019B254A934200BFA1
:103DD000019B03F580531A4601235360019B40F673
:103DE000AA625A61019B00229A60019B0022DA6557
:103DF000019B41F20502DA60019B00221A61019BDE
:103E00000022DA61019B0022DA64019B03F5005372
:103E10001A46144B9364019B00229A65019B0F4A3A
:103E2000934203D0019B0E4A934202D1019B002290
:103E30001A65019B094A934203D0019B084A9342A9
:103E400002D1019B00225A65019B03F500531A46DB
:103E50000123536000BF02B0704700BF00C005409F
:103E600000000640FFFF010082B001900B468DF874
:103E7000033000BF019B9B6903F04003002BF9D086
:103E80009DF80320019BDA6300BF019B9B6903F04F
:103E90002003002BF9D0019B5B6ADBB2184602B00D
:103EA0007047000030B583B00190019803F08EFA9E
:103EB000064A019B14461D460FCD0FC495E803002A
:103EC00084E803000023184603B030BDF80D00203D
:103ED0008CB001900B468DF803301346ADF80030DE
:103EE0000023ADF82A30BDF9003047F6FF72934247
:103EF00001D1FF23FAE09DF80330022B01D9002302
:103F0000F4E09DF80330DB007A4A13440893089BE1
:103F10009B788DF81F30002306939DF81F20069B89
:103F20009342B8BF13460593089B1B78012B28D1F9
:103F3000089BDB789AB2059B9BB2D31A9BB2ADF873
:103F40002A3006E0BDF92A309BB2013B9BB2ADF8A6
:103F50002A30BDF92A30002B0BD0089B5A68BDF9D6
:103F60002A305B001344B3F90030BDF900209A42B7
:103F7000E8DBBDF82A30DAB2059BDBB21344DBB2D2
:103F8000B4E0089B5B680493049B002B01D10023E1
:103F9000ACE0049BB3F90030BDF900209A4204DD87
:103FA000049B1B88ADF800300AE0049BB3F9023093
:103FB000BDF900209A4203DA049B5B88ADF800301B
:103FC000C823ADF828302823ADF82630049B9B8801
:103FD000FF2B0DD1BDF82A3001339BB2ADF82A304A
:103FE000049BDB88ADF82830049B9B68ADF8263035
:103FF000BDF92820BDF90030D21ABDF9263092FB58
:10400000F3F39AB2BDF82A3013449BB2ADF82A30CC
:10401000089B5B789BB2013B9BB21BB2BDF92A2087
:104020009A4206DD089B5B789BB2013B9BB2ADF8E0
:104030002A30BDF92A30DB00049A13440433039379
:10404000039B5A68039BB3F902301946BDF900304F
:1040500001FB03F31344002B02DA00230B930BE064
:10406000039B5A68039BB3F902301946BDF900302F
:1040700001FB03F313440B930B9B03F5FA731E4AE6
:10408000A2FB03239B090B93BDF92A309BB201339A
:104090009BB2ADF82A30BDF92A30089A5278934283
:1040A00009DABDF92A30049ADB0013449B881A46CA
:1040B0000B9B9342BDD9BDF92A30013B049ADB002A
:1040C00013449B881A460B9B934207D9BDF92A30AB
:1040D000013B049ADB0013449B880B930B9A059BCE
:1040E0009A4201D2059B0B930B9BDBB218460CB096
:1040F000704700BFF80D0020D34D62108AB00190C8
:104100000B468DF8033013468DF802309DF80330CE
:10411000022B01D9664BC8E09DF80330DB00654AED
:1041200013440893089B1B78012B31D1089BDB7843
:104130009DF802209A4203D9089BDB788DF8023063
:10414000089B9B788DF81330002303939DF8132070
:10415000039B9342B8BF1346DBB29DF80220D31AEB
:104160008DF802309DF80220089BDB781946089BE9
:104170009B78CB1A9A4202DD00238DF80230089B0F
:104180005A689DF802305B001344B3F900308CE0AC
:10419000089B5B680793079B002B01D1444B84E08D
:1041A000079B04330693069B002B01D1404B7CE018
:1041B000089B9B789DF802209A4203D8079BB3F98D
:1041C000023072E0089BDB789DF802209A4203D30C
:1041D000079BB3F9003068E0089B5B78013B8DF8E2
:1041E0002630069B1B88FF2B04D19DF82630013B0F
:1041F0008DF8263000238DF8273010E09DF8273009
:104200000133DB00069A13441A889DF802309BB2F2
:104210009A420BD39DF8273001338DF827309DF853
:1042200027209DF826309A42E8D300E000BF9DF891
:1042300002304FF47A7203FB02F29DF82730DB0064
:1042400006990B445B68D31A05939DF82730DB0071
:10425000069A1344B3F90230DA0F13445B101BB211
:104260001A46059B13449DF82720D20006990A445C
:10427000B2F9022093FBF2F30593079BB3F90030E8
:104280001A46059B934203DD079BB3F900300CE00F
:10429000079BB3F902301A46059B934203DA079B4A
:1042A000B3F9023001E0059B1BB218460AB0704713
:1042B0000080FFFFF80D002008B50448FFF7F2FD6D
:1042C000012003F0CDF800BF08BD00BF60D300009F
:1042D00000B587B001900091019803F0C3F8034640
:1042E00083F00103DBB2002B44D002AB19460198E6
:1042F00003F06EF803468DF811309DF81130002B55
:1043000000D0FEE7009B5B681C4A934202D81C4B1E
:10431000059301E01B4B05939DF80820059B1B7836
:104320009A4227D09DF80830032B03D16423ADF8BF
:10433000123005E0019803F077F80346ADF812302B
:104340000599019803F02CF803468DF811309DF87B
:104350001130002B00D0FEE7BDF91230194601984C
:1043600003F03AF803468DF811309DF81130002B18
:1043700000D0FEE700BF07B05DF804FBFFC99A3B21
:10438000100A0020080A002000B583B00190002127
:10439000019802F09FFD0023184603B05DF804FB6E
:1043A00000B58BB001900B468DF8033002AB0022B4
:1043B0001A605A609A60DA601A615A619A616423DD
:1043C0000293962303936423049396230593019801
:1043D00003F0C1F99DF80330013B042B31D801A251
:1043E00052F823F0F9430000074400001544000090
:1043F0002544000035440000019803F0C7F9034646
:104400008DF8273021E0019803F0C6F903468DF8B6
:1044100027301AE00021019803F0C4F903468DF813
:10442000273012E00221019803F0BCF903468DF811
:1044300027300AE0019803F0A3F903468DF82730EE
:1044400003E001238DF8273000BF9DF82730002BB3
:1044500007D102AB1946019802F052FD03468DF8D0
:1044600027309DF82730002B02D0019803F084F903
:104470009DF8273018460BB05DF804FB00B58FB0EF
:1044800001900B468DF8033002AB2C220021184618
:1044900008F0C7FE01238DF80C304FF42873ADF8F7
:1044A0000E3002238DF8103001238DF811300223D5
:1044B0008DF8123001238DF8133064230593B62351
:1044C000069364230793C02308930B238DF83030A1
:1044D00001238DF8313002AB1946019803F0C2F880
:1044E00003468DF837309DF83730002B30D19DF8DA
:1044F0000330063B032B27D801A252F823F000BF5C
:10450000114500001F4500002D4500003B450000FF
:10451000019803F0E5F803468DF8373019E001986B
:1045200003F0E4F803468DF8373012E0019803F009
:10453000E9F803468DF837300BE0019803F0DCF81A
:1045400003468DF8373004E001238DF8373000E062
:1045500000BF9DF83730002B03D0019803F0D8F846
:1045600003E00821019802F0B5FC9DF837301846A9
:104570000FB05DF804FB00BF00B583B001900B469F
:104580008DF803309DF80330092B1EDC062B14DA5E
:10459000002B05D0002B18DB013B042B15D804E0C1
:1045A0000198FFF7F1FE034610E09DF8033019462D
:1045B0000198FFF7F5FE034608E09DF80330194621
:1045C0000198FFF75BFF034600E00123184603B0A4
:1045D0005DF804FB00B587B001AB00221A605A6099
:1045E0009A60DA601A6102238DF804300B4B029353
:1045F00002238DF80D3004238DF80E3002238DF840
:10460000133005238DF8143001AB19464FF0FF30FD
:1046100002F0DAFF00BF07B05DF804FB006A180083
:1046200008B500214FF0FF3002F0D1FF00BF08BDF8
:1046300000B583B0074A6B4692E8030083E80300A5
:104640006B461846FEF788FF0023184603B05DF856
:1046500004FB00BF78D3000000B583B04FF04023C7
:104660005B6F4FF0402243F0010353676B4600221B
:104670001A601A7100238DF804306B461846FEF755
:104680005AFF0023184603B05DF804FB30B587B02D
:104690002B4B6C461D460FCD0FC42B681A4622804B
:1046A00002341B0C237000238DF80D304FF0FF33C4
:1046B0000593244BD3F84C3103F40023002B04D191
:1046C000204BD3F85031DBB20593059BB3F1FF3F8C
:1046D00008D11D4B1B884FF6FF72934202D01A4B34
:1046E0001B880593059BB3F1FF3F01D17823059308
:1046F000059BB3F1FF3F18D0059BDBB28DF80A3064
:10470000FEF7D8F90246059B13440593059B002B41
:1047100002DA0023059304E0059BFF2B01DDFF2354
:104720000593059BDBB28DF809300848FCF774FB54
:104730006B461846FEF7CCF80023184607B030BD8C
:1047400080D300000080E00F0001E00F00F049027C
:1047500000B585B00E4A01AB07CA03C31A80023305
:10476000120C1A7000238DF8073025238DF80530C0
:1047700004238DF8063001AB1846FEF7A3F9642038
:10478000FEF706FA0023184605B05DF804FB00BFEB
:1047900094D3000082B0034600918DF807309DF954
:1047A0000730002B0ADB009BDAB20C499DF9073079
:1047B0001201D2B20B4483F800230BE0009BDAB263
:1047C00007499DF8073003F00F03043B1201D2B2F2
:1047D0000B441A7600BF02B0704700BF00E100E052
:1047E00000ED00E000B583B0FB238DF807300CE04E
:1047F0009DF9073005211846FFF7CCFF9DF90730DA
:10480000DBB20133DBB28DF807309DF907303F2B67
:10481000EEDD0023184603B05DF804FB08B500F098
:1048200021F900BF08BD000000B583B001F07CFB9A
:104830000090009B002B01D0009B2CE001F0EEFCCF
:1048400003464FF4167202FB03F303F5742303F2DD
:104850003F23134AA2FB03239B0C124A136000233D
:104860008DF8073012E09DF807300E4A12680E49A5
:1048700041F823200D4B1A680A4B1B6813440B4A5E
:1048800013609DF8073001338DF807309DF807302D
:10489000092BE8D90023184603B05DF804FB00BFDC
:1048A00083DE1B43100E0020180E0020440E002053
:1048B00000BF704708B5054B01221A7001F09EFC3D
:1048C0000346034A136000BF08BD00BF4C0E002022
:1048D000480E002008B5294B1B7883F00103DBB29A
:1048E000002B49D101F08AFC0246254B1B68D31AE4
:1048F000244A1360234B1B68002B02D0214B1B68FA
:1049000000E001231F4A13601F4B1B681F4A1278E7
:1049100011461F4A52F8212011461A4A12688A1A73
:104920009B1A194A1360194B1B781946154B1B68C3
:10493000174A42F82130144B1B680933154AA2FB71
:104940000323DB08144A1360104B1B780133DAB2DF
:104950000E4B1A700D4B1A780E4BA3FB0213D9089D
:104960000B469B000B445B00D31ADAB2074B1A705C
:10497000024B00221A7000E000BF08BD4C0E002060
:10498000480E0020140E0020440E0020400E00208F
:10499000180E0020CDCCCCCC100E0020014B1B6893
:1049A00018467047100E002082B003468DF807307D
:1049B0009DF90730002B0CDB9DF8073003F01F0238
:1049C00005499DF907305B09012000FA02F241F820
:1049D000232000BF02B0704700E100E082B0034630
:1049E0008DF807309DF90730002B0DDB9DF807305F
:1049F00003F01F0206499DF907305B09012000FA08
:104A000002F2603341F8232000BF02B0704700BFBC
:104A100000E100E082B0034600918DF807309DF977
:104A20000730002B0ADB009BDAB20C499DF90730F6
:104A30001201D2B20B4483F800230BE0009BDAB2E0
:104A400007499DF8073003F00F03043B1201D2B26F
:104A50000B441A7600BF02B0704700BF00E100E0CF
:104A600000ED00E008B502212C20FFF7D3FF104B2A
:104A700003F580531A464FF4002353660D4B03F59C
:104A800000531A460C4B53670A4B03F500531A4662
:104A9000094B13672C20FFF7A1FF2C20FFF784FFA1
:104AA000044B03F580531A46034B536700BF08BD00
:104AB0000080004000C00040010000A084B0034618
:104AC0008DF8073000238DF80F30144B9B6D03F0E9
:104AD0000103002B08D0124B1B7883F00103DBB2DB
:104AE000002B01D0012300E000238DF80F309DF84A
:104AF0000F3003F001038DF80F309DF80F3083F075
:104B00000103DBB2002B03D09DF80730002BDCD172
:104B10009DF80F30184604B0704700BF00C0004039
:104B20004D0E002008B500F003F800BF08BD0000DE
:104B300000B583B0A34B1B6F0193A24B9B6A03F09C
:104B40000203002B14BF012300238DF803309D4B7B
:104B50009B6A03F00103002B14BF012300238DF88F
:104B60000230019B03F00103002B00F08680954A80
:104B7000019B03F0010302F500521367924B1B786F
:104B8000002B73D0904B00221A70904B1B78012B96
:104B900066D88C4B03F500531A4601239362894B68
:104BA00003F580531A460223936200BF854B9B6D29
:104BB00003F48033002BF9D1824B5B6B23F47062DA
:104BC000834B1B687F4913434B637E4B9B6923F4E4
:104BD0007F0323F47F437F4A12681A437E4B1B688E
:104BE000784913438B61774B1B6923F47F6323F070
:104BF0000F037A4A12681A43794B1B6871491343B1
:104C00000B61704B9B6923F0FF02764B1B686D496B
:104C100013438B619DF8033083F00103DBB2002B5B
:104C200006D0684B03F500531A460223936205E051
:104C3000644B03F580531A46022393629DF80230B9
:104C4000002B06D05F4B03F580531A460123936275
:104C500013E05C4B03F500531A46012393620CE00A
:104C6000FFF726FE604B01221A7006E0FFF732FEC6
:104C700000F098FE554B00221A70019B03F0005380
:104C8000002B00F0D0804F4A019B03F0005302F547
:104C9000005213674C4B01221A704C4B1B780133A6
:104CA000DAB24A4B1A70474B5B6B03F47063484AA5
:104CB0001360444B9B6903F47F43464A1360414BA6
:104CC0009B6903F47F03444A13603E4B9B69DBB24C
:104CD000444A13603B4B1B6903F47C633F4A1360F7
:104CE000384B1B6903F03F033D4A1360354B03F516
:104CF00000531A4601239362324B03F580531A4640
:104D0000022393622F4B03F580531A464FF0004362
:104D1000936200BF2B4B9B6D03F48033002BF9D1C2
:104D2000284B03F500531A464FF000439362254B7E
:104D30005B6B23F470622D4B1B68224913434B635A
:104D4000244B1B681B0A642B04D8234B1B681B0CC9
:104D5000642B0FD91B4B9B6923F47F0323F47F4300
:104D6000234A126812021A43214B1B681B0415497F
:104D700013438B61134B1B6923F47F6323F00F03F1
:104D80001C4A126892081A431A4B1B689B089B0125
:104D90000C4913430B610B4B9B6923F0FF02154B2E
:104DA0001B68084913438B619DF8033083F00103AE
:104DB000DBB2002B20D0034B03F500531A4602232D
:104DC00093621FE000C000404D0E00204E0E0020F8
:104DD000500E0020540E0020580E0020600E0020BF
:104DE000640E00205C0E00204F0E0020180A0020E8
:104DF0001C0A0020200A0020334B03F580531A467A
:104E0000022393629DF80230002B06D02E4B03F54F
:104E100080531A460123936205E02B4B03F50053A0
:104E20001A4601239362019B002B49DA264A019B13
:104E300003F0004302F500521367244B1B78002B4C
:104E40003ED0214B03F500531A46012393621E4BBB
:104E500003F580531A460223936200BF1A4B9B6DE1
:104E600003F48033002BF9D1174B03F580531A4616
:104E70004FF0004393619DF8033083F00103DBB2F0
:104E8000002B06D0104B03F500531A460223936201
:104E900005E00D4B03F580531A46022393629DF8FB
:104EA0000230002B06D0084B03F580531A4601232D
:104EB000936205E0044B03F500531A460123936205
:104EC00000BF03B05DF804FB00C000404F0E00209F
:104ED000BFF34F8F00BF064BDB6803F4E062044969
:104EE000044B1343CB60BFF34F8F00BF00BFFDE700
:104EF00000ED00E00400FA0582B00190BFF34F8F8F
:104F000000BFBFF36F8F00BF064A019B43F0010350
:104F10005360054B5B6A044A43F48033536200BF1D
:104F200002B0704790ED00E000ED00E0BFF34F8F5E
:104F300000BFBFF36F8F00BF064B5B6A054A23F4C7
:104F400080335362044B5B68034A23F001035360D0
:104F500000BF704700ED00E090ED00E086B00190EA
:104F60000B468DF8033013468DF802309DF8033060
:104F70009B088DF817309DF8033003F00303DB0026
:104F80000493FF22049B02FA03F303939DF8173066
:104F9000012B19D89DF81720019B0C3253F82220C1
:104FA000039BDB4302EA03019DF80220049B02FA03
:104FB00003F31A46039B13409DF817201943019BE6
:104FC0000C3243F8221000E000BF06B0704700002A
:104FD00000B583B003460A468DF8073013468DF8B6
:104FE00006309DF806209DF8073019460348FFF764
:104FF000B5FF00BF03B05DF804FB00BF90ED00E01B
:1050000084B00390029101920093039B029A9A60EC
:10501000039B019ADA60039B009A1A6100BF04B0F7
:105020007047000000B585B0039002910192019B8A
:10503000029A03990348FFF7E3FF00BF05B05DF84C
:1050400004FB00BF90ED00E000B585B000230393A2
:1050500000230293FFF76AFF4FF0005303932C4A9B
:105060002C4B9A4204D02B4B23F01F03203B01E032
:105070004FF080430293A0210020FFF7A9FF039A7D
:10508000029B9A4215D8039B23F01F0343F00303AE
:105090000193214B1868029B23F01F0343F0010387
:1050A0001A460199FFF7BEFF1B4B1B6801331A4AD2
:1050B0001360174A174B9A421CD0154B1F3323F02D
:1050C0001F030393154B0293039B23F01F0343F02D
:1050D00003030193104B1868029B23F01F0343F056
:1050E00001031A460199FFF79DFF0B4B1B68013323
:1050F000094A13600420FFF7FFFEBFF34F8F00BF84
:10510000BFF36F8F00BF00BF05B05DF804FB00BFA9
:10511000F40A0020C80A0020680E0020E0FFFF3FCC
:1051200008B5FFF7D5FE00BF08BD08B5FFF7F8FFCB
:1051300000BF08BD00B583B0FDF7BEFF0190184B5E
:105140001B7883F00103DBB2002B17D00023009300
:1051500000F0EAFE0090009B002B04D00198FDF7C0
:10516000B7FF009B18E001F059F803460D4A1360A1
:105170000D48FBF77FFE0D4B00221A6000F058FC33
:1051800000F0A2FE03460A4A1360054B01221A7082
:105190000198FDF79DFF0023184603B05DF804FB5E
:1051A0006C0E0020A00E0020780E00209C0E002027
:1051B000980E002000B583B0FDF77EFF0190FBF74D
:1051C0002AFB034683F00103DBB2002B03D00198D6
:1051D000FDF77EFFBDE0604B1B78002B05D0002063
:1051E00000F00CFB5C4B00221A7000F017FA03462B
:1051F0008DF803309DF80330184600F095FA00F062
:105200000DFA03468DF803309DF80330012B08D9C1
:10521000524B1B7883F00103DBB2002B01D000F06E
:1052200065FD4F4B1B789DF803209A4215D04D4BDE
:1052300000221A704C4B1B7883F00103DBB2002B69
:1052400007D0474B1B789DF803201146184600F005
:10525000FFF9434A9DF803301370424B1B78002B33
:1052600008D03F4B1B78022B04D13E4B00221A7012
:1052700002F07EFC9DF80330012B12D9374B1B78CE
:1052800083F00103DBB2002B0BD0384B1B78002BD3
:1052900004D100F07FFD364B01221A702F4B012202
:1052A0001A702F4B1B78184600F0EEFD2E4B1B7822
:1052B000002B03D02F4B1A78294B1A7000E000BF47
:1052C0000198FDF705FFFDF7F7FE01902A4800F071
:1052D000C9FEFBF7B6FA0346002B7FF47CAF214BE7
:1052E00000221A701D4B1B78002B23D01E4B00226E
:1052F0001A701F4B1B78002B0ED000F053FD1C4B77
:1053000000221A7008E0012000F0BEFD0198FDF7B0
:10531000DFFEFDF7D1FE0190002000F079FD03468D
:1053200083F00103DBB2002BEDD100F08BFD0B4BC2
:1053300000221A70002000F0F7F9094B1B780021B9
:10534000184600F085F9064B00221A700198FDF707
:10535000BFFE03B05DF804FB940E0020770E002022
:10536000740E0020730E0020760E0020720E0020B6
:10537000A40E0020750E00207C0E002000B585B024
:1053800003460A468DF8073013468DF806309DF81F
:105390000730002B03D09DF80730022B00BF9DF88B
:1053A0000730013B2E4AD35CFF2B05D19DF8063018
:1053B00083F00103DBB2002B00BF9DF80730013BF7
:1053C000274AD35C002B02D19DF80630002B00BF8A
:1053D0009DF80730013B224AD25C9DF80630002B35
:1053E00001D0012100E0FF219DF80730013B0A4474
:1053F000D1B21B4AD1549DF80630002B2BD0194B4B
:105400001B78012B27D900F009F903468DF80F30DE
:105410009DF80F30012B02D800F030FA09E0114B53
:105420001B78032B05D19DF80F30022B01D100F022
:1054300079FD0C4B1B789DF80F209A420BD0094B3D
:105440001B789DF80F201146184600F001F9054A17
:105450009DF80F30137000BF05B05DF804FB00BF6E
:10546000700E0020740E002000B585B003468DF844
:105470000730FDF721FE03901D4B1B78FF2B05D154
:105480009DF8073083F00103DBB2002B00BF184BFF
:105490001B78002B02D19DF80730002B00BF154B65
:1054A0001B78022B05D99DF8073083F00103DBB28E
:1054B000002B00BF9DF80730002B01D0012200E037
:1054C000FF220B4B1B781344DAB2094B1A70084BBE
:1054D0001B78002B0CBF01230023DAB2064B1A7095
:1054E0000398FDF7F5FD00BF05B05DF804FB00BFB4
:1054F000720E0020740E0020730E002000B583B0E1
:1055000000230193FDF7D8FD00900D4B1B78012B74
:1055100004D80098FDF7DCFD019B0DE000F038F8A1
:105520000346019300F0D8FC0246019B134401930B
:105530000098FDF7CDFD019B184603B05DF804FB14
:10554000740E002000B583B0FDF7B6FD019000F0A9
:10555000D9F90198FDF7BCFD00BF03B05DF804FB6D
:1055600000B585B001900091019B009A5A60FDF74B
:10557000A3FD0390019B19460448FBF783FC0398A5
:10558000FDF7A6FD00BF05B05DF804FB780E002016
:1055900082B0034B1B680193019B184602B0704711
:1055A0009C0E002082B00190074B1B68019A02FB01
:1055B00003F303F5742303F23F23044AA2FB0323FE
:1055C0009B0C184602B07047A00E002083DE1B43E0
:1055D00000B583B0FDF770FD01900F4B1B788DF87F
:1055E00003300D4B00221A700198FDF771FD01F098
:1055F00009F903461A469DF803301343DBB2002B2A
:1056000014BF012300238DF803309DF803301846A2
:1056100003B05DF804FB00BFA60E002082B001239A
:10562000019302E0019B01330193019B012B05D8FB
:10563000019B013B054AD35C002BF3D0019B8DF805
:1056400003309DF80330184602B07047700E0020FA
:1056500000B585B003460A468DF8073013468DF82D
:105660000630002302939DF80630032B16D801A2C2
:1056700052F823F0855600008B560000915600002A
:10568000975600000123029308E00423029305E0EB
:105690001023029302E04023029300BF9DF80730DD
:1056A000032B1FD801A252F823F000BFBD56000003
:1056B000C7560000D1560000DB560000029B43F0A5
:1056C000020302930EE0029B43F00803029309E0F9
:1056D000029B43F02003029304E0029B43F080030B
:1056E000029300BF0F4B1B68039312E0039B5B68A0
:1056F0001A68029B1340002B08D0039B5B685B6811
:105700009DF806109DF8072010469847039B1B68DC
:105710000393039B002BE9D100BF00BF05B05DF8E8
:1057200004FB00BF780E002000B589B003468DF859
:105730000F309DF80F30032B51DC022B0EDA002BBB
:1057400001D0012B4BE0284B1B78002B44D00020CC
:1057500000F054F8244B00221A703DE004AB1946C7
:10576000002000F0F5FC0790079B002B36D1049A2F
:105770001E4B1B689A4206D8012000F03FF81A4BD6
:1057800001221A702AE00023069300230593184B88
:105790001B680593069A059B1344069300F09CFB37
:1057A0000246069B13440693049A069B9A4206D827
:1057B000012000F023F80C4B01221A700EE0049A2D
:1057C000069BD11A02230193002300930023094A68
:1057D000094800F026FC01E000BF00E000BF00BF68
:1057E00009B05DF804FB00BF940E0020980E002065
:1057F0009C0E0020715900007C0E002000B583B083
:1058000003468DF807301A4B1B78FF2B05D19DF806
:10581000073083F00103DBB2002B00BF144B1B7871
:10582000002B02D19DF80730002B00BF104B1B78D6
:105830009DF80720002A01D0012200E0FF22134436
:10584000DAB20B4B1A709DF80730002B0CD0094BC5
:105850001B78012B08D9084B1B7883F00103DBB2BE
:10586000002B01D000F04EF800BF03B05DF804FB40
:10587000700E0020740E0020760E002000B583B05C
:10588000FDF71AFC01901B4B1B78002B2AD01A4BFA
:105890001B7883F00103DBB2002B05D0164B0122ED
:1058A0001A70164B00221A70154B1B78002B04D06F
:1058B00000F078FA124B00221A700198FDF708FCEC
:1058C000012000F0A5FAFDF7F7FB01900A4B1B78C9
:1058D000002B04D000F0B6FA074B00221A70054BDB
:1058E00000221A700198FDF7F3FB00BF03B05DF8CA
:1058F00004FB00BF770E0020A50E0020760E0020CE
:10590000A40E002008B5154B1B78002B24D0144B97
:105910001B78002B04D000F045FA114B00221A70BE
:10592000002000F075FA0346002B0ED000F08AFA32
:105930000A4B00221A700B4B1B7801211846FFF707
:1059400087FE084B01221A7006E0074B01221A70ED
:10595000044B1A78054B1A7000BF08BD770E002063
:10596000A40E0020740E0020760E0020750E00207C
:1059700000B585B001900091FDF79EFB0390084BA8
:105980001B78002B03D00398FDF7A2FB04E0FFF780
:10599000B9FF0398FDF79CFB05B05DF804FB00BF61
:1059A000A50E002008B50F4B1B78002B17D00E4B0F
:1059B0001B78002B13D000F045FA0C4B1B7801210B
:1059C0001846FFF745FE074B01221A70064B0022CE
:1059D0001A70074B00221A70064B01221A7000BF82
:1059E00008BD00BF740E0020760E0020750E00204A
:1059F000770E0020A60E002082B0034600928DF89C
:105A000007300B468DF8063000BF02B0704708B56E
:105A1000FBF7D8F900BF08BD044B1B69034A23F00C
:105A20000403136130BF00BF704700BF00ED00E00A
:105A30002DE9F04F8DB000238DF8203008AB1846CB
:105A4000FDF756FD002000F00DF9804B1B6F03F0B1
:105A500007027F4B1A607D4BD3F8203103F003031C
:105A60000A937A4BD3F8243103F007030993774B59
:105A700003F580531A464FF400235366734B03F526
:105A800080531A464FF400335366724B9B6903F000
:105A90000203002B14BF01230023DBB26E4A1370F4
:105AA0006B4B1B68032B02D00A9B022B01D10123F5
:105AB00000E0002303F00103DBB2684A1370674B78
:105AC0001B781A46099B022B0CBF01230023DBB273
:105AD0001343002B14BF01230023DBB25F4A137072
