S016000073696D706C655F7472785F784732322E73333715
S1130000000800202D08000029080000290800002D
S113001055280000290800002908000029080000CC
S11300202908000029080000290800002908000008
S113003029080000290800002908000029080000F8
S113004029080000290800002908000029080000E8
S113005029080000290800002908000029080000D8
S113006029080000290800002908000029080000C8
S113007029080000290800002908000029080000B8
S113008029080000290800002908000029080000A8
S11300902908000029080000290800002908000098
S11300A029080000750C00004D0C00002908000010
S11300B029080000516E000029080000A5770000FF
S11300C05D770000597700001D700000A1770000E3
S11300D0617700007977000065770000FD77000004
S11300E0195E00007D5E0000E5770000290800002D
S11300F02908000029080000290800002908000038
S11301002908000029080000290800002908000027
S11301102908000029080000290800002908000017
S11301202908000029080000290800002908000007
S113013029080000290800002908000029080000F7
S113014010B5054C237833B9044B13B1044800E0CF
S113015000BF0123237010BDD80A00200000000056
S113016058CC000008B5034B1BB10349034800E019
S113017000BF08BD00000000DC0A002058CC0000CD
S1130180A3F5803A704700BF174B002B08BF134BF1
S11301909D46FFF7F5FF00218B460F461348144A8E
S11301A0121A07F01AFE0E4B002B00D098470D4B85
S11301B0002B00D098470020002104000D000D48BA
S11301C0002802D00C4800E000BF07F0D5FD200055
S11301D0290000F051F907F0BBFD00BF0000080042
S11301E0000000000000000000080020D80A0020E1
S11301F038110020000000000000000010B50020AD
S113020000F02EFA044600F02DF9064800F062FCD6
S1130210054800F05FFC00221146204602F08AFBEC
S1130220204610BD408200005882000070B505468B
S11302300C4616468A88896807F0C2FDE16831B128
S11302406288A088121A92B2284407F0B9FD35607A
S11302506088B0F5807F28BF4FF4807070BD08B50A
S1130260012302F007FF08BD30B587B00446454BB3
S11302701B7873B10023434A1370434A1370424BF3
S11302801B78DBB2052B53D8DFE803F02C545B5FFB
S113029076633E4B1B7833B13C4B00221A703A4BC9
S11302A001221A70EBE73A4B1B7833B1384B00222A
S11302B01A70354B02221A70E1E7364B1B7833B1C2
S11302C0344B00221A70304B03221A70D7E7324B9A
S11302D01B78002BD3D0304B00221A702A4B0422F7
S11302E01A70CCE701AA0221204602F0E9FE2B4B4A
S11302F0186016E0002300936A4601A92848FFF716
S113030095FF264D2968204602F0E0FE254B1B7818
S1130310254800F0E4FB01AA0221204602F0D0FEA9
S113032028601E4B1B68002BE4D1174B05221A7062
S113033007B030BD1D4800F0D2FB134B05221A70E4
S1130340F6E7114B05221A70F2E70F4B05221A70DB
S1130350EEE7174B1B78002BEAD0102215492046F4
S1130360FFF77DFF00231A461946204602F0D2FA11
S11303700F4B00221A70DBE70F4B1B78024B052250
S11303801A70D5E7000B002011080020010B002093
S1130390020B0020080C0020F40A0020040C0020AA
S11303A0040B002010080020408200005882000046
S11303B00C0D002000080020F50A002070B5064648
S11303C014461D46194BC3E90045194B134205D089
S11303D002F0080393B9174B01221A7004F0AA43E0
S11303E005F02202134305D004F0807363B1124B6D
S11303F001221A7015F4007F0AD170BD02F064FE68
S11304000E4B01221A70E9E70D4B01221A70F1E735
S113041000221146304602F0EDFD0A4B18701B789D
S1130420002BEAD0084B01221A70E6E7F80A0020F4
S1130430088D0100020B0020010B0020000B00209E
S1130440080C0020F50A0020F40A002008B500F08A
S113045079FA012800D008BD014B01221A70FAE78D
S11304600C0D002008B54FF480730022014902F0FE
S113047005FE08BD0C0C002008B502F0EFF9FFF7EB
S1130480BDFE044B186002F0F5F9024B1868FFF743
S1130490EBFEF8E7100D002000207047704708B508
S11304A000F011F908BD08B50321802001F0B4F96A
S11304B003214FF4806001F0AFF903214FF4906001
S11304C001F0AAF908214FF4C06001F0A5F9082150
S11304D04FF4F06001F0A0F908213E2001F09CF9EE
S11304E008212D2001F098F9002008BD08B5154B0E
S11304F01B68C3F30743012B10D002F019F900F075
S1130500F7F802F095F802F0B7F802F0F7F8FFF701
S1130510CAFF02F09FF800F0DFF808BD0A4B5A6EDC
S113052003F580534FF48021596603F510430421E9
S1130530196212F4802FE0D1A3F500434FF4802216
S11305405A66DAE70080E00F0080004008B500F04A
S113055057FB00F097F800F0A1F808BD08B502F0C9
S113056003F908BD08B501F041FF02F037F802F0C5
S113057057F800F083F808BD70477047704770471C
S11305807047FEE708B5FFF7FCFF08BD704708B5E4
S1130590FFF7FCFF08BD704738B504460D4601F06F
S11305A02FFF29462046FFF7F6FF38BD08B5FFF7B1
S11305B005FF08BD0000000010B586B0224923489D
S11305C002F08AF9224B186030B10023059305A983
S11305D002F04CFD08B1FEE7FEE71D4C1D4A1E4B20
S11305E01968206802F018FC0021206801F0DEFF81
S11305F000B1FEE712A3D3E90023CDE900234FF0B5
S1130600FF324FF0FF331249086802F04DFC00B18D
S1130610FEE7124B1B88ADF81030ADF80C3004A97E
S11306200B4B186802F024FC00B1FEE703A9084B49
S1130630186802F035FC00B1FEE706B010BD00BF3B
S113064018AC0155E20300008F05000020080020CB
S1130650EC09002099050000180800200C82000015
S113066082B0054B019302AB03EB800050F8043CCD
S1130670186802B0704700BFEC09002008B5FFF706
S11306809BFF08BD08B5034800F054F9024800F088
S113069051F908BD108200002882000008B5034803
S11306A000F013FA024800F010FA08BD408200007E
S11306B05882000008B5012304221146184601F0AF
S11306C04FFC002008BD08B5002304221146012078
S11306D001F046FC002008BD08B501213A2000F0D5
S11306E063FCFFF7DCFEFFF7E5FF00F013F808BD3D
S11306F008B501213A2000F057FC08BD014B102237
S11307001A61704700E00340014B10221A617047E0
S113071000D00340F0B587B06C463F4D0FCD0FC4F9
S113072095E8030084E8030001213A2000F03CFC32
S11307300121282000F038FC01248DF80E40374BAD
S11307400293374F6946384601F0E6FC23460422FB
S11307500021022001F004FC00232246214602204D
S113076001F0FEFB234604220221084601F0F8FBB7
S1130770234604221146002001F0F2FB294D4FF0DC
S11307800213C5F83036A3F58033C5F82C3602269B
S1130790C5F834661C23C5F81C364FF4487002F0C3
S11307A073F8FFF7ABFF142002F06EF8FFF7ACFF0D
S11307B0232002F069F8FFF7A1FFB921384601F0C0
S11307C0F2FCFFF7A1FF00231A461946304601F058
S11307D0C7FB00231A462146304601F0C1FB2346DD
S11307E000223146304601F0BBFB2346002204219F
S11307F0104601F0B5FB384601F05EFC0021C5F857
S11308003016C5F82C16C5F83416C5F81C16282061
S113081000F0CAFB07B0F0BD7082000000127A003D
S113082000C0054000C00340FEE7000008B500F02A
S113083013F8064B064A03E052F8041B43F8041B62
S113084004498B42F8D3FFF79FFC00BF0008002047
S113085060CC0000D80A0020044B054A9A60D3F803
S1130860882042F47002C3F88820704700ED00E04D
S113087000000000014B1868704700BF140A0020F4
S113088008B5094B1B6F03F00703022B04D0032B9D
S113089005D0012B06D0FEE7FFF7ECFF03E0034B86
S11308A0186800E0024808BD00800040180A0020D3
S11308B0002D310108B5FFF7E3FF054B1B6FC3F3B0
S11308C003330133B0FBF3F0024B186008BD00BFE3
S11308D000800040100A00200048704700B4C4049F
S11308E0014B1868704700BF180A002008B5064B72
S11308F01860064B1B6F03F00703032B00D008BDE1
S1130900FFF7D8FFFBE700BF180A00200080004073
S11309100020704700487047002D31014FF400401B
S113092070474FF47A707047014B1868704700BFE6
S11309301C0A002008B5436813B10068984708BD35
S11309402220FCE708B5436913B10068984708BD45
S1130950FF20FCE708B5002301E00133DBB2124AB3
S113096012789A421FD99C46104A52F823201268E2
S113097051798142F1D192F800E0BEF1020FECD03E
S1130980137903EB43031B010948C35823FA01F10C
S113099011F0010F0CBF012300231370034B53F814
S11309A02C00FFF753FD08BD0E820000000A002052
S11309B014C0034010B582B0044601213A2000F06F
S11309C0F3FA002301226179207901F0C9FA23792D
S11309D0617903EB43031B010E4AD358CB4013F058
S11309E0010F0CBF012300232370A379022B02D033
S11309F0002002B010BD00F003F90749607900F04F
S1130A0017F961790123019300930A46207901F0D3
S1130A1013FAEDE714C0034055090000007870474D
S1130A200378022B11D00379417903EB43031B01B3
S1130A30124AD358CB4003F001010B468279012AB4
S1130A4004D012B981F0010101707047428852004C
S1130A5092B2134343F47F4343F0C0034FF6E07272
S1130A60934205D04FF6DF72934204D0438070471F
S1130A7001220270F6E700220270F7E714C0034077
S1130A8008B50378022B00D008BD00234380FFF78C
S1130A9091FFF9E70378022B16D010B582B0044613
S1130AA08379022B03D00223237002B010BD0021EE
S1130AB0407900F0BDF861790023019300930A4660
S1130AC0207901F0B9F9EEE7704708B5436800688A
S1130AD0984708BD08B5C3680068984708BD08B5BD
S1130AE003690068984708BD10B5044601213A20FF
S1130AF000F05AFAA378B3FA83F35B09042261780D
S1130B00207801F02DFA002010BD837873B90378A2
S1130B10417801228A4003EB43031B0103F1804324
S1130B2003F5703342F210015A507047037841784C
S1130B3001228A4003EB43031B0103F1804303F5C5
S1130B40703341F210015A507047837873B90378B7
S1130B50417801228A4003EB43031B0103F18043E4
S1130B6003F5703341F210015A507047037841780D
S1130B7001228A4003EB43031B0103F1804303F585
S1130B80703342F210015A507047037841780122C1
S1130B908A4003EB43031B0103F1804303F57033E5
S1130BA043F210015A50704710B40146027840785D
S1130BB002EB42021201064CA358C34003F00100A9
S1130BC08B780BB980F001005DF8044B704700BFCF
S1130BD010C0034010B5044600E098476CB194FA85
S1130BE0A4F3B3FA83F00122824024EA0204034A04
S1130BF052F82030002BF0D1F0E710BD140D002086
S1130C0008B5192001F01CF828B1084B4FF0007208
S1130C10C3F880211A601A2001F012F828B1034B9E
S1130C204FF08062C3F880211A6008BD00E100E043
S1130C3038B504460D4600F0FAFF034B43F8245040
S1130C4000F0FBFF38BD00BF140D002008B5084BB1
S1130C50D3F82404D3F82024104000F0553020F0B9
S1130C60502003F50053C3F82004FFF7B3FF08BD79
S1130C7000C0034008B5084BD3F82404D3F820245B
S1130C80104000F0AA3020F0A02003F50053C3F870
S1130C902004FFF79FFF08BD00C00340024B4FF440
S1130CA080321A67704700BF0090004038B505468F
S1130CB00C46FFF7E5FD05B128600CB10D23237048
S1130CC038BD000038B505460C460F4BD3F820312B
S1130CD003F00303022B0ED0032B10D0012B06D0FC
S1130CE00023184605B1286004B1237038BDFFF70E
S1130CF0C1FD0523F6E7FFF7F3FD0323F2E7FFF752
S1130D0009FE0223EEE700BF0080004030B583B047
S1130D1005460C46002301930D4BD3F8803103F0B4
S1130D200303012B09D0022B0DD000230DB1019A2E
S1130D302A6004B1237003B030BD002101A8FFF77D
S1130D40C1FF0F23F2E7FFF7E5FD01900223EDE772
S1130D500080004038B505460C46164BD3F82431C4
S1130D6003F00703013B052B20D8DFE803F0030F52
S1130D70171B0B13FFF77EFD052305B1286004B193
S1130D80237038BDFFF776FD0623F6E7FFF7A8FDCD
S1130D900323F2E7FFF7A4FD0423EEE7FFF7BAFD10
S1130DA00223EAE7FFF7B4FD0723E6E7002318462A
S1130DB0E3E700BF0080004038B505460C46104B01
S1130DC0D3F8000100F00300032815D8DFE800F091
S1130DD002080C10012305B1286004B1237038BD4A
S1130DE0FFF77EFD0323F6E7FFF79EFD0823F2E7F6
S1130DF0FFF78EFD0723EEE700231846EBE700BF5D
S1130E000080004038B505460C460F4BD3F84031FE
S1130E1003F00303022B0ED0032B10D0012B06D0BA
S1130E200023184605B1286004B1237038BDFFF7CC
S1130E3075FD0923F6E7FFF777FD0823F2E7FFF7CF
S1130E4070FD0B23EEE700BF0080004008B50B4B9C
S1130E50D3F8203203F00303012B08D0022B09D06E
S1130E6008B10023036021B100230B7001E0FFF7F8
S1130E7029FF08BDFFF7C6FFFBE700BF0080004065
S1130E8030B583B005460C46002301934FF0E023B0
S1130E901B6913F0040F0ED0FFF70CFD01900C2317
S1130EA08DF803300DB1019B2B6014B19DF8033014
S1130EB0237003B030BD0DF1030101A8FFF7A2FFB9
S1130EC0F0E7000038B505460C46124BD3F8003263
S1130ED003F00703013B032B18D8DFE803F0020AF1
S1130EE00E12FFF71BFD092305B1286004B123701E
S1130EF038BDFFF719FD0823F6E7FFF712FD0B23B2
S1130F00F2E7FFF7D7FC800A0E23EDE7002318462B
S1130F10EAE700BF0080004038B505460C460F4B99
S1130F20D3F8403203F00303022B0ED0032B10D06E
S1130F30012B06D00023184605B1286004B12370A4
S1130F4038BDFFF7EBFC0923F6E7FFF7EDFC0823B8
S1130F50F2E7FFF7E6FC0B23EEE700BF008000405A
S1130F6038B505460C460F4BD3F8603103F0030344
S1130F70022B0ED0032B10D0012B06D000231846D1
S1130F8005B1286004B1237038BDFFF7C7FC0923FD
S1130F90F6E7FFF7C9FC0823F2E7FFF7C2FC0B23CF
S1130FA0EEE700BF00800040430907D0012B10D0BA
S1130FB0022B01D0094A02E0094A00E0002200F0B5
S1130FC01F0041B102F58052012303FA00F01060C2
S1130FD07047044AF3E702F50052F5E760820040E7
S1130FE06880004064800040B0F5207F20D00ED897
S1130FF0B0F5007F16D020D810B1B0F5C07F04D171
S11310000F4B186FC0F3033018E0002016E0B0F562
S1131010607F05D10A4BD3F88000C0F301100DE0C6
S113102000200BE0064BD3F89000C0F3046005E009
S1131030034B186FC0F3802000E00020013070479C
S11310400080004010B582B0002301930093B0F5F6
S1131050807F00F2EF802028C0F0E7802038E0286D
S113106000F2E580DFE810F02C011E012C011E01C6
S113107033013301330133011E011E0160014F01AD
S11310803E016A014F011E011E011E01E300E3003F
S1131090E300E300E300E30046015B011E011E01DF
S11310A01E01F4006F011E01E300E300E300E3000E
S11310B0E300E300E300E300E300E300E300E30014
S11310C0E3002C01E3002C012C012C013301E3008B
S11310D0E300E300E300E300E300E300E300E300F4
S11310E0E300E300E300E3002C012C01E300E30050
S11310F0E300E300E300E300E300E300E300E300D4
S1131100E300E300E300E300E300E300E300E300C3
S1131110E300E300E300E300E300E300E300E300B3
S1131120E300E300E300E3004B01E300E300E3003A
S1131130E300E300E300E300E300E300E300E30093
S1131140E300E300E300E300E300E300E300E30083
S1131150E300E300E300E300E300E300E300E30073
S1131160E300E300E300E300E300E300E300E30063
S1131170E300E300E300E300E300E300E300E30053
S1131180E300E300E300E300E300E300E300E30043
S1131190E300E300E300E300E300E300E300E30033
S11311A0E300E300E300E300E300E300E300E30023
S11311B0E300E300E300E300E300E300E300E30013
S11311C0E300E300E300E300E300E300E300E30003
S11311D0E300E300E300E300E300E300E300E300F3
S11311E0E300E300E300E300E300E300E300E300E3
S11311F0E300E300E300E300E300E300E300E300D3
S1131200E300E300E300E300E300E300E300E300C2
S1131210E300E300E300E300E300E300E300E300B2
S1131220E300E300E300E3006501002848D00198EF
S113123002B010BDB0F5906F71D00ED9B0F5D06F7B
S11312407CD049D9B0F5E06F7DD0B0F5F06FEED128
S1131250002101A8FFF784FEE9E7B0F5407F52D0F2
S11312600FD9B0F5607F2FD100216846FFF71EFD2E
S1131270009C4FF46070FFF7B7FEB4FBF0F40194E8
S1131280D5E7B0F5007F0AD1FFF7FAFA04464FF428
S11312900070FFF7A9FEB4FBF0F40194C7E7B0F5C2
S11312A0207F0AD1FFF706FB04464FF42070FFF7B6
S11312B09BFEB4FBF0F40194B9E7B0F5C07FB6D15E
S11312C0FFF7F8FA0190B2E7B0F5806FAFD10021D3
S11312D001A8FFF7F7FCAAE7B0F5B06F24D0B0F58A
S11312E0C06F04D1002101A8FFF78CFD9FE7B0F582
S11312F0A06F9CD1002101A8FFF7A8FD97E7FFF795
S1131300BFFA019093E7FFF7D5FA04464FF4207033
S1131310FFF76AFEB4FBF0F46408019487E7002148
S113132001A8FFF717FD82E7002101A8FFF7EEFCF3
S11313307DE7002101A8FFF7A3FD78E7002101A8BC
S1131340FFF7C0FD73E7002101A8FFF7E5FD6EE795
S113135008B58020FFF776FE034B984203D8034B71
S11313604FF480321A6708BD005A620200A00040A0
S113137038B505460C46104B4FF400329A660020EF
S1131380FFF732FE05FB00F00C4BDA6902F4803201
S113139041F67131D9639B6823F4401308498842AC
S11313A001D9002C05DD05498B600AB10022CA630E
S11313B038BD43F48013F6E700900040000003407A
S11313C0005A620208B5FFF787FA0021FFF7D0FF41
S11313D008BD000000B583B000238DF80730B0F5D8
S11313E0807F00F0898011D9B0F5D06F00F08A8039
S11313F03AD9B0F5006F4DD052D9B0F5086F70D11D
S11314000DF107010020FFF7D7FC6AE052281ED82F
S1131410242866D324382E2863D8DFE800F06767D1
S1131420676762625D622F736262626262626262B5
S113143062627962626262477F626262626262626F
S113144062626262626262626262626267008028F1
S113145047D1354B1B6F03F00703013B032B40D8E7
S1131460DFE803F0362A2E32B0F5A06F50D00BD946
S1131470B0F5B06F30D0B0F5C06F32D10DF10701C7
S11314800020FFF7BFFC2CE0B0F5806F2ED0B0F544
S1131490906F26D10DF107010020FFF75BFC20E0DF
S11314A0B0F5E06F3AD0B0F5F06F1AD10DF1070145
S11314B00020FFF755FD14E005238DF8073010E0F8
S11314C003238DF807300CE007238DF8073008E07C
S11314D002238DF8073004E00DF107010020FFF727
S11314E015FC9DF8070003B05DF804FB0DF107013E
S11314F00020FFF7E7FBF4E70DF107010020FFF7F9
S1131500BFFCEEE70DF107010020FFF7DBFCE8E785
S11315100DF107010020FFF799FCE2E70DF1070147
S11315200020FFF7F9FCDCE70080004010B504461A
S11315308020FFF74FFF032800F094804A4B4FF4BC
S113154000225A6603F5405345F60E02C3F8802084
S113155003F580520221916203F5005301229A623D
S1131560424B9B6D13F48033FAD1217862781205D3
S113157042EA0162E17842EA0142217942EA013217
S1131580617942EA8112A1790A4338490A618A6978
S113159002F00042E07942EA8062207A42EA006284
S11315A0607A42EA0042A07A42EA0022E07A0243E8
S11315B08A610A6A22F00D02617B01B10823134398
S11315C0227B43EA82030B43284A1362637B002B8A
S11315D035D1936A23F03303A17B43EA4113E17BC2
S11315E043EA011343F001039362204B9A6D03F520
S11315F0804303339343F8D11C4B03F580510222FB
S11316008A621A65194B9B6D13F0804FFAD1174B00
S11316101A6922F47002A17842EA01521A6103F5B0
S113162080534FF000429A61237C13B9104B02227D
S11316309A62637C83B90E4B01229A620CE00B4AD6
S1131640936A23F03303A17B43EA4113217C43EAE9
S11316504103617C0B439362A37C1BB1034B054A9A
S1131660C3F8802010BD00BF0090004000C00040BF
S113167000E00040F1A7FFFF014B93F90000704721
S1131680940D002010B443784F2B28BF4F231A46E3
S11316901C4B4FF48001596603F5B8334FF4D15114
S11316A0596203F5805102244C6003F50053012173
S11316B05960154B1B6913F4803FFAD1037842EA51
S11316C00323114A53618178C3781B0143EA012340
S11316D0017943EA410341790B4393608179C379EA
S11316E01B0143EA4113017A43EA4103417A0B4364
S11316F05360837A1BB113466FF4D1525A625DF87A
S1131700044B70470090004000000240014B1880D9
S1131710704700BF200A002008B5002903DD01211D
S1131720FFF726FE08BD0021FFF722FEFAE70000BE
S1131730B0F5207F4AD02FD8B0F5007F3BD04ED8EB
S113174010B1B0F5C07F26D110B54C1EFFF73AFE9C
S113175000F048F8FFF7A2FA214B196F21F4704109
S113176041EA04311967FFF7A5F84FF04023D3F895
S1131770843013F0100FF8D14FF04023D3F88410C5
S1131780C1F38111C1F10201FFF7C6FF00F032F885
S1131790FFF7DEFD10BD7047B0F5607F0AD1013957
S11317A00F4AD2F8803023F0300343EA0111C2F823
S11317B08010704770470139094AD2F8903023F0FD
S11317C0F85343EA0161C2F8901070470139044AA2
S11317D0136F23F4806343EA8121116770477047D4
S11317E00080004008B502214FF42070FFF7A0FFED
S11317F008BD000008B54FF4C070FFF723FC054B8B
S1131800984205D902214FF42070FFF791FF08BDDB
S11318100121F8E780F0FA0270B50C46B0F5807F3C
S113182000F0298121D9B0F5D06F00F0A58161D9EC
S1131830B0F5006F00F0858040F28F80B0F5086F3E
S113184040F0FE80072900F0B481082900F0B3813C
S1131850032900F0AC810021A04AD2F8003123F022
S113186003030B43C2F80031EAE0522837D8242896
S1131870C0F0E68024382E2800F2E280DFE810F081
S1131880E500E500E500E500E000E000D300E0004D
S113189047007C01E000E000E000E000E000E00040
S11318A0E000E000E000E0009D01E000E000E00076
S11318B0E0007400AF01E000E000E000E000E000C0
S11318C0E000E000E000E000E000E000E000E00014
S11318D0E000E000E000E000E000E000E500802837
S11318E040F0AE808B1E052B51D8DFE803F09684C0
S11318F050995093B0F5A06F00F05F811AD9B0F5FC
S1131900B06F00F09080B0F5C06F40F099800A2C61
S113191000F20881092C80F00981082C40F008812C
S113192002226E49D1F8403123F003031343C1F876
S1131930403185E0B0F5806F00F08780B0F5906F9E
S11319407ED1023C052C00F20181DFE814F0030192
S1131950010109010B0107010501B0F5E06F00F079
S11319603E81B0F5F06F6BD10A2C00F2E580092CB2
S113197080F0E680082C40F0E58002225749D1F837
S1131980603123F003031343C1F8603158E00025AC
S11319902E460121022000F064F9FFF713FDFFF742
S11319A021FFFFF77BF94D4A136F23F007033343FD
S11319B01367FEF77FFF4FF04023D3F8843013F012
S11319C0100FF8D14FF04023D3F88410C1F38111E4
S11319D0C1F10201FFF7A0FE0121002000F08AF905
S11319E0FFF708FFFFF7B4FC55BB032C28D13C4B91
S11319F001229A6224E03B4B4FF400225A6603F51D
S1131A0040539D6AC5F3400503F5805301229A6251
S1131A100326BEE700250426BBE700250126B8E718
S1131A2000250226B5E7022C0BD00F2C0BD1012187
S1131A302A4AD2F8803123F003030B43C2F88031E1
S1131A4070BD0221F4E70021F2E7032C0FD0052C2E
S1131A500FD0022C09D00021204AD2F8203123F0E3
S1131A6003030B43C2F82031EAE70321F4E7022120
S1131A70F2E70121F0E7A1F10804082CE0D801A362
S1131A8053F824F0A91A0000A91A0000411A000012
S1131A90A91A0000F11A0000411A0000411A0000BE
S1131AA0411A0000A91A00000C4B596E03F580532B
S1131AB04FF480325A660C4A136A43F001031362EE
S1131AC011F4803F03D1094B4FF480325A664FF032
S1131AD0E022136923F004031361B1E7008000409E
S1131AE000E000400090004000C0074000A000401B
S1131AF0484B596E03F580534FF480325A66464A78
S1131B00136A23F00103136211F4803F03D1434BA2
S1131B104FF480325A664FF0E022136943F0040315
S1131B2013618DE70B2C05D10322FAE60122F8E6B6
S1131B300022F6E60022F4E60B2C05D103221DE771
S1131B4001221BE7002219E7002217E700210AE01F
S1131B50022108E0032106E0042104E0052102E05B
S1131B60062100E001212B4AD2F8243123F0070397
S1131B700B43C2F8243163E7083C062C05D8DFE8A0
S1131B8004F0060C0C0804040A00002106E00221FB
S1131B9004E0032102E0042100E001211D4AD2F8FF
S1131BA0003223F007030B43C2F8003248E7012157
S1131BB052E6032150E602214EE60F2C0BD0102CE6
S1131BC00BD10221134AD2F8203223F003030B4332
S1131BD0C2F8203234E70121F4E70021F2E70A2CAD
S1131BE00DD8092C0FD2082C0FD102220949D1F8A3
S1131BF0403223F003031343C1F8403220E70B2C97
S1131C0005D10322F2E70122F0E70022EEE70022E9
S1131C10ECE700BF0080004000C0074000A0004087
S1131C20EFF3108072B6704700B962B67047EFF3F5
S1131C301180302383F31188704780F31188704733
S1131C404209064B53F8223000F01F0023FA00F03B
S1131C5080F0010000F00100704700BF00E100E0E7
S1131C607047F8B504464FF04023D3F8843013F09E
S1131C70100FF8D14FF04023D3F88430C3F381130D
S1131C809C4231D0FEF7FCFD0646012C12D0FFF732
S1131C90C7FF05464FF0402707F500534FF0007289
S1131CA05A662046FFF7DCFF621E4FF480639340C0
S1131CB03B6707E00121FFF72FFDE8E74FF04023E2
S1131CC0D3F884304FF040235B6E13F0007F06D1CD
S1131CD04FF04023D3F8843013F0200FEED0284681
S1131CE0FFF7A2FF022C00D0F8BD00213046FFF719
S1131CF013FDF9E710B50C46034650B1094A1278B2
S1131D0012B1094A934208D921460220FFF7A9FFDC
S1131D1010BDFEF7B5FD0346F0E721460120FFF7AD
S1131D20A0FFF5E7980D0020005A62024FF0402210
S1131D30D36E23F0300301790B43D3667047000060
S1131D401B4B4FF000425A6603F50B2303F58052F8
S1131D50012151605A6C0A404AF6CD31196498B990
S1131D609B6813F0010F07D0124B01219960124BAD
S1131D70DB6A13F0010FFAD00E4B0121596012B146
S1131D800D4B0E4A1A6470470B4BDB6A13F0080FB5
S1131D90FAD1094B03F500512020486203F5805322
S1131DA001219960044B5B6A13F0200FFAD0E6E737
S1131DB00090004000600940004009403254FFFF99
S1131DC010B51A4B4FF000425A66194A02F5805377
S1131DD001215960546C0C404AF6CD3313644378A6
S1131DE08B400B434FF04021CB63936823F0740383
S1131DF0827843EA0213C278B2B1042213430C4A34
S1131E0093600179837943EA012313614179C379AA
S1131E1043EA012353610078FFF792FF14B1044BA6
S1131E20044A1A64012010BD0022E7E70090004034
S1131E30004009403254FFFF2DE9F84F0C46154687
S1131E401E469DF828809DF82C70072A44D84FEA36
S1131E508209032303FA09FA00FA09F9FFF7E0FEFD
S1131E60384AD2F8001489EA010303EA0A034B4012
S1131E70C2F80034FFF7D8FE4FF0000A072D43D80C
S1131E80A9004FF0030909FA01F904F003048C4096
S1131E90FFF7C6FE2B4BD3F80824544004EA090488
S1131EA05440C3F80844FFF7BFFE002E44D0264A2E
S1131EB00123AB401360B8F1000F3FD0234A1360F5
S1131EC0012202FA05F5224AC2F82054C7B3A2F649
S1131ED0DC321360BDE8F88FA2F1080A4FEA8A09E0
S1131EE0032303FA09FB00FA09F9FFF799FE154ADF
S1131EF0D2F8041489EA010303EA0B034B40C2F845
S1131F000434FFF791FEB9E74FEA8A0A4FF0030958
S1131F1009FA0AF904F0030404FA0AF4FFF780FE4C
S1131F20084BD3F80C24544004EA09045440C3F881
S1131F300C44FFF779FEB8E7064AB9E7064ABEE75C
S1131F40064AC6E700C0034010D4034014D403403B
S1131F5000E0034010E4034014E4034024E403409D
S1131F6070B4144662B19BB301258D4000EB40026E
S1131F70120102F1804202F5703241F210069551CD
S1131F80072932D82C4D00EB400205EB02125268AF
S1131F908E004FF00F0C0CFA06FC22EA0C0204FA35
S1131FA006F6324300EB400605EB06156A606CB991
S1131FB0A3B3012303FA01F100EB4000000100F197
S1131FC0804000F5703041F21003C15070BC70477E
S1131FD001258D4000EB4002120102F1804202F51E
S1131FE0703242F210069551CAE7134E00EB4002DC
S1131FF006EB0212D568A1F1080292004FF00F0C13
S11320000CFA02FC25EA0C0C04FA02F24CEA020275
S113201000EB400506EB0516F260C8E7012303FA5E
S113202001F100EB4000000100F1804000F5703048
S113203042F21003C150C9E700C00340074B4FF4FC
S113204080325A6603F5E6235B69C3F38512827016
S113205003F03F0242701B0B037070470090004076
S11320600A4B984207D00A4B984209D0C36D43F0FB
S11320708003C3657047A3F51033C3F88C11F5E7EB
S1132080A3F52033C3F89C11F0E700BF00C005405E
S11320900000064038B5054614460B4631B1013BF5
S11320A06400B3FBF4F31B02EB6138BD4FF4207002
S11320B0FEF7C8FF0346F2E700F5805301225A6099
S11320C040F6AA63436100238360C36541F20502BD
S11320D0C2600361C361C36400F500520C4991649A
S11320E083650C4B984203D003F58043984201D199
S11320F000230365074B984203D003F580439842BD
S113210001D10023436500F500500123436070476B
S1132110FFFF010000C0054038B505460C46FFF737
S1132120CBFF05F5805301225A60AA68238A43F045
S11321300103A17B00292DD04FF480610B4313438D
S1132140AB60AB68227D3AB34FF000521343AB60EF
S1132150A37C1BBB237B43F48053EB60A2686168C0
S11321602846FFF797FF637B0BB110236B61637DF8
S11321701BB1AB6843F48033AB60A37D1B0703F052
S1132180E043E27D120502F4E0021343AB652378D9
S11321906B6138BD0021D1E70022D7E7E17C2846F6
S11321A0FFF75EFFD6E7836913F0400FFBD0C163EE
S11321B0836913F0200FFBD0406AC0B2704700005F
S11321C038B5044600F09DFE054DA446BCE80F005A
S11321D00FC59CE8030085E80300002038BD00BF5C
S11321E09C0D002047F6FF739A4276D0022976D8D8
S11321F030B53D4B03EBC100857825EAE5752846EB
S113220013F83130012B27D0374B03EBC1035C6843
S1132210002C66D0B4F90050954204DBB4F90250A6
S1132220954200DC1546A388FF2B29D04FF0280ED9
S1132230C8230022AC465B1B93FBFEF313441BB282
S1132240294A02EBC10191F801E00EF1FF3212B20A
S11322509A422BDB1A4629E0234B03EBC103DB78BC
S11322605B1B01E0013B1BB23BB11F4C04EBC104FF
S1132270606830F913009042F4DC2B44D8B22BE0B0
S1132280B4F90630B4F908E00122D3E703F5FA7390
S11322901649A1FB03139B09013212B2154672457C
S11322A00FDA04EBC201898899420AD304EBC20114
S11322B08B68B1F9061001FB0C33002BE6DA00231E
S11322C0E4E76A1E04EBC20292889A4200D31A46DB
S11322D0824200D31046C0B230BDFF2070470020B8
S11322E070470020F8E700BF9C0D0020D34D62101A
S11322F0022970D83B4B13F83130012B22D010B592
S1132300384B03EBC1035C68002C66D014F1040C59
S113231065D0344B03EBC1039B7893422CD2314BF1
S113232003EBC103DB78934229D92E4B03EBC101A4
S11323304B7803F1FF3E5FFA8EFEA188FF2921D07E
S1132340002325E0274B03EBC103DB78934200D243
S11323501A46244800EBC10080780028A8BF121A4E
S1132360D2B21B1A9A4200DD00221E4B03EBC101BC
S11323704B6833F912007047B4F9020010BDB4F988
S11323800000FBE7023B5FFA83FED9E70133DBB2CF
S1132390734505D2591C3CF8310091B28842F5D2FC
S11323A04FF47A7101FB02F20CEBC30CDCF804303D
S11323B0D31ABCF9022002EBD27103EB610393FB45
S11323C0F2F3B4F900009842D8DBB4F90200984261
S11323D0D4DC18B2D2E7044870470348CEE7024879
S11323E0CCE700BF9C0D00200080FFFF08B5034828
S11323F0FFF7E6FE012000F0CFFD08BD8882000053
S113240070B582B005460C4600F0C8FD08B102B0B4
S113241070BD6946284600F076FD00B1FEE76268AB
S11324200F4B9A420ED80F4C9DF8003022789342FD
S1132430EDD0032B08D164262146284600F04BFD3D
S113244038B1FEE7084CEFE7284600F089FD064660
S1132450F2E73146284600F05AFD0028D7D0FEE7BF
S1132460FFC99A3B2C0A0020240A002008B5002149
S113247000F0BEFA002008BD30B589B005460C4610
S11324800023019302930393049305930693079304
S113249064220192962302930392049300F0F3FEC4
S11324A0611E042929D8DFE801F0030C11171D006F
S11324B0284600F003FF0446CCB104BB204609B013
S11324C030BD284600F000FF0446F5E70021284609
S11324D000F000FF0446EFE70221284600F0FAFE70
S11324E00446E9E7284600F0E3FE0446E4E701A9D0
S11324F0284600F093FA0446DFE70124DDE7284686
S113250000F0D2FEDAE770B58CB004460D462C22FA
S1132510002101A805F061FC01238DF808304FF477
S11325202872ADF80A2002228DF80C208DF80D30A7
S11325308DF80E208DF80F3064220492B621059197
S11325400692C02207920B228DF82C208DF82D3094
S113255001A9204600F01EFE064650B9063D032D93
S11325601DD8DFE805F0020D1217204600F050FEDA
S11325700646B6B1204600F063FE30460CB070BD8E
S1132580204600F04BFE0646F3E7204600F052FEDC
S11325900646EEE7204600F047FE0646E9E7012638
S11325A0E8E70821204600F023FAE6E708B5052904
S11325B007D84BB263B911B9FFF758FF00E0012007
S11325C008BD8B1FDBB2032B05D8FFF79CFFF7E791
S11325D0FFF752FFF4E70120F2E7000000B587B0EF
S11325E000230193029303930493059302238DF82C
S11325F004300A4A02928DF80D3004228DF80E2020
S11326008DF8133005238DF814300DEB02014FF0D3
S1132610FF3000F075FD07B05DF804FB006A180098
S113262008B500214FF0FF3000F06DFD08BD00003B
S113263000B583B0064A6B4692E8030083E80300C2
S11326401846FFF7BDFB002003B05DF804FB00BF94
S11326500C83000010B582B04FF04022536F43F05A
S113266001035367002400948DF804406846FFF783
S11326705DFB204602B010BD30B587B001AC1B4DE8
S11326800FCD0FC42B6824F8023B1B0C2370184B8E
S1132690D3F84C3113F4002F10D1154BD3F850411B
S11326A0E4B2B4F1FF3F13D08DF80E40FEF7E4FF1F
S11326B024180FD4FF2C0EDDFF240CE04FF0FF3460
S11326C00C4B1B884FF6FF729342EAD01C46E8E796
S11326D07824E9E700248DF80D400748FEF706F951
S11326E001A8FEF723FF002007B030BD14830000CB
S11326F00080E00F0001E00F00F0490200B585B052
S11327000A4A01AB07CA03C323F8022B120C1A703E
S113271025238DF8053001A8FEF7B4FF6420FEF7E9
S1132720F5FF002005B05DF804FB00BF288300001E
S11327306FF0040308E003F1604202F561425021A6
S113274082F8001301335BB23F2B08DC002BF2DA72
S113275003F00F01034A0A4450211176F2E70020E6
S1132760704700BFFCEC00E070B4BFF34F8FBFF3C1
S11327706F8F294B5A6A22F480325A62D3F894201C
S113278022F00102C3F89420244B2548834240D010
S113279020F01F012039204CD4F8C05085F0A0024D
S11327A0D2B26A40C4F8C020B1F1005F0CD31D4D11
S11327B02A6841F00101C4F898201B4EC4F89C60BB
S11327C0C4F8A01001322A60834210D01F3323F0D2
S11327D01F0343F00303134802680F49C1F898200C
S11327E0C1F89C30114BC1F8A03001320260BFF334
S11327F04F8FBFF36F8F084B0522C3F894205A6A9A
S113280042F480325A62BFF34F8FBFF36F8F70BCB4
S113281070474FF08041BEE700ED00E0D00A002091
S1132820D00A0020B40D002003000020E1FFFF3F88
S1132830BFF34F8F0549CA6802F4E062044B1343A7
S1132840CB60BFF34F8F00BFFDE700BF00ED00E09A
S11328500400FA0508B5FFF7EBFF08BD08B5FDF75E
S113286045FEFDF773FEFDF779FEFDF77BFEFDF7F0
S113287083FE08BD08B5FDF780FEFDF77FFEFDF77A
S11328807EFEFDF77DFE08BD10B50446FEF712F886
S113289003460B48A0FB03239B090A4AB2FBF3F34C
S11328A04FF47A7000FB04F4B4FBF3F30648A0FB86
S11328B00320022B00D810BD400800F009F8FAE705
S11328C0D34D621040420F00ABAAAAAA0000000038
S11328D0013800D0FCE7704737B50446019178B160
S11328E00A4D2B787BB90A4B186000F06DF820462E
S11328F0019900F05AF8031E18BF012304462B70F7
S1132900204603B030BD0024FAE700BFBC0D002010
S1132910B80D002010B500B10C3001F08DFD044657
S113292018B9034B01215B689847204610BD00BFCE
S11329303C0A002010B500B10C3000F0BFFA044688
S113294020B90121024B08465B689847204610BD18
S11329503C0A002037B50D46044600B10C344FF450
S113296080312046019200F036FB29462046019A28
S113297003B0BDE8304002F04FB87047431E033344
S113298006D8044B984228BF1846642838BF6420F0
S1132990704700BF40420F00431E012B03D9031FA1
S11329A05842584170470120704738B504460D46D7
S11329B00021FDF773FD2946204601F057FB00284E
S11329C00CBF2046002038BD10B5044600F06CFE54
S11329D044B1054AD4F88830002B08BF1346034A93
S11329E0136010BDE36FFFDE7B290000340A002072
S11329F000B10C3000F0D6BE10B50C4600F066FEF7
S1132A001CB100F0B9FE0128FBD1BDE81040024B17
S1132A10002103205B6818473C0A002008B50246E1
S1132A200868FFF7ABFF08604868FFF7A7FF486036
S1132A308868FFF7A3FF8860C868FFF79FFF0B69EA
S1132A40C860581C03D00C48834228BF03460B615E
S1132A504B69581C03D00848834228BF0346886941
S1132A604B61FFF78BFF886102B10C321046BDE861
S1132A70084001F09BBB00BF40420F002DE9F04F1E
S1132A80436F80460D4683B013B103898B4276D0E1
S1132A90D8F87070002F44D0BB68002B41D0F9687F
S1132AA000293ED0D8F884200192002A3DD04FF06E
S1132AB00009A8F10C0B4C464E4600E0BB68C4EB81
S1132AC0C40203EB820ABAF80E200134AA4215D8D4
S1132AD0BAF81020AA4211D3BAF91220B8F9341165
S1132AE0914254DD584698F8C010FFF77BFB98F8E4
S1132AF0052081468242564603D9F9688C42DDD3CB
S1132B0056B30023324640461946019CA047002094
S1132B10A8F80850C8F8746088F8C99003B0BDE8F4
S1132B20F08F032003B0BDE8F08F914647F6FF7A9B
S1132B301446A8F10C0BC4EBC40603EB8606F38918
S1132B40AB4217D8338AAB4214D3B6F9122052459C
S1132B5004D14FF0FF09DAE70120DFE7584698F87F
S1132B60C010FFF73FFB98F8053081468342CED969
S1132B703246F9680134A14205D9BB68DBE700207D
S1132B8003B0BDE8F08F002AE6D01646BFE75646EC
S1132B90B7E700BF2DE9F04FDFF8B0B185B00446C8
S1132BA016461F46009101F015FDBBF8005001F0D8
S1132BB031FD00287CD1DFF89881636FD8F80020BC
S1132BC093426AD000F0D8FD01284FD1DFF884A1E8
S1132BD0DAF80030002B5BD0226F934270D0D4F827
S1132BE074C01868116810B1884200F08380DCF862
S1132BF00020204601F0A9F900230126054601938F
S1132C00D4F884908DF80F70B9F1000F67D00022CA
S1132C10204611460DF10F03C84785B9236FCAF842
S1132C200030636FC8F80030019B0BB9002E3AD016
S1132C30009B2046CBF8003000F0C2FF05468EB161
S1132C40B5FA85F040F2A3223321400900F042FA9C
S1132C503946204601F086F93A4B616F1B68A4F1AE
S1132C600C009847284605B0BDE8F08F012000F01D
S1132C702DFD00F081FD0128FBD1334BDFF8D4A0FA
S1132C805B68002103209847DAF80030002BA3D1B9
S1132C90236FD4F874C01968A9E7002B92D0009B65
S1132CA09D428FD187BB0025284605B0BDE8F08F33
S1132CB00023DFF89C80C8F8003001F0A3FC7CE717
S1132CC0D8F80010D4F874C000298AD0614588D19E
S1132CD0009BEB1A18BF01230025019390E761794B
S1132CE094F8C9303A46994228BF1946204600F064
S1132CF0F4FE92E7D8F80010DCF8002011B109685E
S1132D00914210D0596874E7002ECCD00122D4F837
S1132D1084508DF80F205DB10022204611460DF13C
S1132D200F03A847BFE7002301261D46019367E769
S1132D30617994F8C9302046994228BF194600F0B9
S1132D40CCFEB0E7340A00203C0A0020C00D00206D
S1132D50C80D0020C40D0020F8B50E460546FEF748
S1132D605FFF314607462846FFF788FE044620B138
S1132D703846FEF759FF2046F8BD03460246314661
S1132D802846FFF707FF04463846FEF74DFF204666
S1132D90F8BD00BFF8B506460C4659B30B6843B1FD
S1132DA01B68013326D0CB681BB18B68003B18BF6E
S1132DB0012318466122412100F08CF9204602F0DB
S1132DC07FF900234FF6FF724FF01C0C86F8CC30CD
S1132DD0C6E91C43E768D8B287420DD815460023DC
S1132DE00B4A294613600B4A30461360FFF7B4FFC1
S1132DF02846F8BD0023DCE7A1680CFB0011CD894F
S1132E00954202D2002DEAD02A460133E3E700BFFF
S1132E10C40D0020C80D0020034600B10C33064841
S1132E20002A08BF02460548026011B11846FFF7A0
S1132E30B1BF0846704700BF7B290000340A002058
S1132E40008970470A7838B505461046FFF7A4FD97
S1132E5060B14C782046FFF79FFD38B122435307F9
S1132E6004D42846BDE8384000F068BD012038BDD0
S1132E7000B10C30FFF7E6BF10B504460878FFF741
S1132E808BFD58B14A781046FFF786FD30B1042A0D
S1132E9004D02046BDE8104000F086BD012010BDDE
S1132EA000B10C30FFF7E8BF30B4DDE9024500B1F2
S1132EB00C30CDE9024530BC00F0B4BB38B5044653
S1132EC00D46FFF749FF28B929462046BDE838409A
S1132ED000F0F8BC38BD38B5044648880D4602F009
S1132EE0EDF84CB1D4F890304BB9294604F10C00FC
S1132EF0BDE8384000F0A0BDD4F88430FFDE0220E5
S1132F0038BD02F0DCB800B10C3000F049BEF7B5B2
S1132F10044600200D4602F0D1F86CB1D4F890605C
S1132F2004F10C075EB1002329461A463846B4461C
S1132F3003B0BDE8F0406047D4F88430FFDE694652
S1132F402046FFF7E0FF2A469DF800102046FFF7D1
S1132F5049F90146384600F0DFFD03B0F0BD00003A
S1132F6037B5044690B100F10C0569462046FFF7D9
S1132F70CAFF284600F01DFEFF28024608D020465E
S1132F809DF80010FFF7B4F903B030BD0546ECE737
S1132F900048F9E70080FFFF00F0CDBC10B9D0F87D
S1132FA08430FFDED0F89000003818BF012070474D
S1132FB038B505460C46FEF733FEA9696B690C402B
S1132FC023436B61FEF730FE00200CB9002138BDAD
S1132FD04FF40071FBE738B504460D46FEF720FEBA
S1132FE0A1690D40616921EA05056561FEF71CFED2
S1132FF0284638BDF7B50D461446074618B300F108
S11330000C0604B9746921463046FFF7E4FFE20771
S113301002D5304600F08AFC01F028FDFF28024664
S113302020D04FF0FF3301930DB12B680193E303DC
S11330300BD4304601A901F0CDFC10B90DB1019BB0
S11330402B6003B0F0BD0646DBE76AB9019B01A91A
S1133050013303D13846FFF77DFCEEE7304601F03B
S1133060C7FCEAE70320ECE70120EAE700B10C30F3
S113307000F0E2BE00B10C3000F0CABB00B10C306D
S113308000F024BF00B10C3000F041BF4FF40073D6
S113309007B50A490DF10602ADF80630FFF7F2FF55
S11330A0BDF80630B3F5007F05D1022808BF002023
S11330B003B05DF804FB0120FAE700BFCC0D00204B
S11330C00846114600F0D0BE00F0F2BE084600F0FB
S11330D0F1BE000008B550B90548064B01601A60FE
S11330E0054B1A68054B1A601868FDF74BFA08BDC2
S11330F0380A0020CC0F0020B80D0020D00F00208B
S1133100084601F0AAB8431C02D1002000F0A4BB79
S11331100028FBD00C30F9E700B10C300847000060
S1133120F0B58DB003AC05460B462746184A02F1AC
S1133130200C264610685168083203C6624534469E
S1133140F7D1002B08BF3B46002710681C463060AF
S1133150384603F10C06FAB280B928462188019258
S113316001F096FA50B92846019AE18801F0A4FAD0
S113317020B931462846019A01F0B3FA0137032FEA
S113318006F1080604F10204E5D10DB0F0BD00BF5C
S1133190348300002DE9F0410D4680468AB090B397
S11331A000F10C0795F8283095F8292095F82A1095
S11331B00093384695F82B3003AC05F10C0601F06A
S11331C0B9FA0FCE0FC496E8070084E8070003A9F4
S11331D04046FFF723FC3846291D04F0E3FB044670
S11331E048B93846094900F0A1FF044618B93846E1
S11331F001F086FA044638462968FFF791FF204615
S11332000AB0BDE8F0810746CCE700BF5883000050
S11332100149FFF781BF00BF714600000149FFF774
S11332207BBF00BF7D4600000149FFF775BF00BFAB
S11332308D4600000149FFF76FBF00BF89460000BB
S113324010B5044600B10C3400F096FA012804D1FC
S1133250204601F0F9F9002010BD0220FCE70346E6
S113326018B15B7B0C3013B108475B78FFDE02209A
S1133270704710B5044601F0FFFA2046BDE810403F
S1133280032100F08FBA00B10C30FFF7F2BF10B584
S1133290437804463BB101F01FFB2046BDE81040D3
S11332A0002100F07FBA10BD00B10C30FFF7EFBF72
S11332B00149FFF7D4BF00BFE54700000149FFF70C
S11332C0CEBF00BF0D4800000149FFF7C8BF00BFD3
S11332D0BD47000020B1437B23B10C3001F0AABAF2
S11332E04378FFDE022070470020704700207047BB
S11332F0024BD868C0F30360704700BF000002A807
S11333007047000038B16FF0FF02034B10405A625F
S1133310A3F580535862704700E000A8C2690E4BC1
S113332002F06002402A12D0602A03D0202A11D170
S1133330012206E071B10A68012A0BD94A6942F0F8
S11333400102C3F880208022044B1A61704740F2C6
S11333500112F6E70022F4E7003F00B0000002A8E3
S113336008B5094AFFF7C4FF0B2806D00C2809D07A
S1133370092814BF0020022008BD106C10F480300E
S1133380F0D1F9E70220F7E7000002A84FF02A4342
S11333900121D3F81821596352074FF4005148BF53
S11333A0042203F50053196344BFA3F58053C3F803
S11333B01821704710B50446D0F8B4200A4B4FF4D6
S11333C00061C3F8D8200278120202F4006204F00B
S11333D047FA237813F0080F4FF4007314BF034A1D
S11333E0034A136410BD00BF003E00B0001002A8E1
S11333F0002002A800F01803182B074B03D1002269
S1133400C3F884207047010701D50122F8E7C206FA
S1133410F5D540F20112F3E7003F00B010B54B7848
S11334200C46002B40D13C4B1B7813B106223B4B7E
S11334309A6700223A4BC3F88C204FF0805203F570
S1133440F033DA64A3F500531B6C5B0208D4C36940
S113345013F0800F4FF4001314BF324A324A136240
S11334604FF06052304B1A624FF480722F4BC3F806
S11334701821C3F81421A378002B43D14FF02A4319
S113348040F6FF721A63E378002B3ED14FF02A43D3
S113349040F6FF721A676022254BDA6403F5E833BD
S11334A0402200201A6410BD4FF06051013BDBB292
S11334B0022B8EBF00231F4A52F823301A4A43F4CA
S11334C0001311624FF08051A2F580521362A2F5ED
S11334D08832936F23F0060343F004039367164B7B
S11334E0D9640423C2F88C3003F08CFB0028C2D0CA
S11334F04FF480730D4AC2F81431A2F58052C2F819
S11335001831B8E7FFF742FFBDE76022034BDA64E6
S113351003F5D833C4E700BFD80F0020006000A82B
S1133520004000A8005001A8006001A8002000AAE3
S1133530005000A860830000001002A8044AC002E2
S1133540136A00F4FF2023F4FF231843106270472A
S113355000C000A870B515460C4601F00B0323EA21
S113356002012A4A2B40D164A2F58052D364630736
S113357006460CD503F01EFC4FF4007315F0040F3F
S113358014BF234A234A53620422234B1A64E006DD
S113359006D515F0100F14BF00221B221F4B5A65CD
S11335A0210618D52A061FD54FF40012184B1A62AB
S11335B0012203F58053C3F80021FEF731FB0E21ED
S11335C00546032002F0B2FB40F20122134B2846C9
S11335D0DA62FEF729FB14F0600F03D03046B16FB6
S11335E0FFF79CFE002070BD0D4B1B6C5B02F2D4F8
S11335F04FF4001196F8B230064A1162002BEAD05B
S11336000122034BC3F80021E5E700BF006000A8D6
S1133610005001A8006001A8002002A8004000A8F2
S1133620000002A8F7B5D0E93AC71946DDE90863F6
S113363004468CEA060587EA03001540084085EA3B
S11336400C057840C4E93A5000250B4022F00100F3
S113365043F4007306EA000243F00203CDE9005587
S113366003F0DCF82378DA0718D5D4F8EC309B059E
S113367014D54FF480312046FFF79AFC237865F384
S113368000032370D4E93A2302400B4052EA0301B9
S113369004D00449A4F10C0009688847002003B051
S11336A0F0BD00BF440A0020034A0368002B08BF92
S11336B01346024A1360704701330000440A002095
S11336C0014B002059677047003F00B003282DE9E3
S11336D0F3413DD8204B1E5C204B1F5C204B13F85C
S11336E00080FEF79DFA054603F084FA044640B1D3
S11336F000230022CDE9003301200023002103F040
S11337008DF83946304603F06DFB42463946304663
S113371003F0DAFBB4B1134B1B6803B10C33124A48
S1133720126C520208D4DB6913F0800F4FF40013BB
S113373014BF0E4A0E4A13620E490868FFF7E2FDF1
S113374000230B60284602B0BDE8F041FEF76CBAD6
S113375002B0BDE8F08100BF6C83000070830000FC
S113376074830000B80D0020000002A8005001A8D6
S1133770006001A8EC0F002008B5FFF7B9FD01387F
S1133780C0B20B2802D8054B185C08BD044B5B691A
S113379013F0060F0CBF01200420F6E77883000025
S11337A000C001A831F00F0210B50BD1FFF7E4FF00
S11337B0012809D1054C236F23F00F000143104663
S11337C0216710BD0120FCE70220FAE7003F00B0AA
S11337D008B50D4B1A6C12F0A00F13D15B6C5B078C
S11337E001D5012008BD094BD3F8003F23F07F43E6
S11337F023F0FF03002BF4D0FFF77AFD092801D052
S11338000C28EED10020EDE7000002A8003000B043
S113381037B5154633B10191FFF7B8FD019901F0B1
S113382071F801994FF02A42D368D46A03F0070370
S1133830981D0123C4F30C0483401B1B9CB2AC42AF
S113384028BF2C460348224601F09CF9204603B0C9
S113385030BD00BF0C0000AA024638B590B9174B22
S11338601B6823BB0125C1F12701C1F11C03002BF7
S1133870B8BF5B42232B1EDC4CB26DB1104B1C70E5
S1133880002038BDFFF778FF012812D10C4B00252A
S113389093F90040611AE8E79470FEF7C1F9014614
S11338A02046FFF74BFE0846FEF7BEF9E8E7032083
S11338B0E7E70220E5E70120E3E700BFB80D0020B9
S11338C0480A002008B5FFF775FDFEF7A9F9074A75
S11338D0D2F8D43E23F02003C2F8D43EFEF7A4F974
S11338E00222034B00209A6008BD00BF003000B0E4
S11338F0001002A802EA01035B0710B405D50A4BC5
S1133900D3F8803013F4706F09D0C46984EA0203D9
S11339100B406340C3615DF8044BFFF71BBE0120FD
S11339205DF8044B704700BF004001A808B502F0E1
S113393025FD002008BD01F087BD000070B50E46CE
S1133940FEF76EF90546FFF70BFD044620B1284645
S1133950FEF76AF9204670BD03F02CFA104B32785A
S1133960D3F8003F022A23F0F00315D0042A0CBF39
S11339700222002243EA02137278022A0ED0042A99
S11339800CBF0222002243EA8213054AC2F8003F18
S11339900422044B1A64DAE70122EBE70122F2E77E
S11339A0003000B0002002A838B50D46FEF738F903
S11339B004461E4AFFF79CFC062826D804282BD868
S11339C0032829D003F0F6F9194B2A78D3F8003FDD
S11339D0022A23F00F0324D0042A0CBF022200225F
S11339E013436A78022A1ED0042A0CBF0222002242
S11339F043EA82030E4A2046C2F8003F04220D4BDC
S1133A001A64FEF711F900200AE00728DAD1D2F887
S1133A104431002BCED1D5E72046FEF705F902202C
S1133A2038BD0122DCE70122E2E700BF000002A862
S1133A30003000B0002002A8F8B50E780446022E2B
S1133A400D4690F8C0700AD1002001F085FB0028D3
S1133A503CD1012001F080FB002818BF012630462C
S1133A6001F07AFBA0B384F8C060AB8804F1C0060F
S1133A70A4F8C4306B883046A4F8C230AB88C4F8CC
S1133A804431FF23A37101F029FB054608BB3046EE
S1133A9001F058FB0546E0B9636F5BB194F8C010C0
S1133AA0B94207D0B3F91220A4F10C00FEF79AFB37
S1133AB084F8C900204601F099FB0121A4F8C40050
S1133AC004F1880002F0FEFC2846F8BD0026C6E793
S1133AD00125032384F8C030F6E738B5054690F88D
S1133AE0C0000C46032813D0FF2913D001F06AFB51
S1133AF0A04204D895F8C00001F064FB04462046B7
S1133B00AC7101F07FFCA0F1FF035842584138BD6D
S1133B100220FCE70120FAE738B590F8C0300446EB
S1133B20032B39D0456F41719DB3D0F88430BBB9B4
S1133B3090F8C9308B4219D300222046FFF7CDFFFD
S1133B40054658B9154B1B78012B07D8204601F0C0
S1133B504DFB012104F1880002F0B4FC284638BD75
S1133B60B0F93421B5F912309A42E5DD002220463D
S1133B7094F8C910FFF7B1FF05460028EED160673D
S1133B802046FFF75DF901462046BDE83840FFF7BF
S1133B90E3B8FF238371E1E70225DFE7520A00203F
S1133BA00346D0F8C0000860B3F8C43000208B800E
S1133BB0704790F8C030032B14BF8079FF20704702
S1133BC070B5436A8AB0012B03D1002528460AB098
S1133BD070BD04465E4901F09FFE666F2589A067AB
S1133BE026B1336813B15B68002B6DD1FEF718F86A
S1133BF0FEF71AF801231A46A06F8DF80E30B38928
S1133C00EB1A9BB2D6E90115ADF80C3005FB031194
S1133C10504B02911B68834212D010B10368002BF1
S1133C2059D19FED497B002384ED227B0146C4F8E2
S1133C3090302046FFF772FBA06F02999DF80E208A
S1133C40099004AB204602F063F9002838D1424AB7
S1133C504249FFF74DFB431EDBB20B2B2BD8D35C41
S1133C60012BF6D13E4A3F49136CD801FCD40B6CAE
S1133C70DB07F9D404A901A802F018FB0546F8B93A
S1133C80237860F30003237000F0F0FE636F5B6938
S1133C901A68431EDBB2FD2B009225D9D61C23D90A
S1133CA0314B01321B6827D0DA1C8FD80246694693
S1133CB0204600931BE04B6913F0060FD2D0C8E7EF
S1133CC0022528460AB070BD1A68032A8ED99B6A59
S1133CD05A0E134691E70369002BA2D0D3E90012D0
S1133CE09B68C4E92212A1E702466946204600F017
S1133CF07FFE28460AB070BDD91C05D80246694625
S1133D002046009300F074FED4F8EC309B0504D4F4
S1133D10237843F00103237058E74FF480312046A1
S1133D20FFF746F9D4F8E820D4F8EC3002400B4011
S1133D3052EA03013FF44AAF0C49A4F10C000968AC
S1133D40884743E7AFF30080000000000000000054
S1133D50FC4F00B0E40F00207883000000C001A8ED
S1133D60000002A800C002A8600A0020440A002043
S1133D7010B5044651B14FF4006103F085FD10B154
S1133D8094F8BA3063B94FF4807200E00A464FF4F5
S1133D908071204603F064FD003818BF012010BD77
S1133DA00020FCE74FF4807103F06EBD10B50C46A3
S1133DB019B100F059FC00B10E34204601F01CFD8D
S1133DC0024B4042C3F8F00E002010BD003000B09A
S1133DD037B50C460192FDF723FF0546FFF788FA35
S1133DE0C21FD2B2022A019901D90C2803D1084B6F
S1133DF01B6C9B030AD42046012200F007FF0446F3
S1133E002846FDF711FF204603B030BD0324F7E731
S1133E10000002A8002914BF4FF4007200224FF4DE
S1133E20007103F01DBD002914BF4FF4806200220D
S1133E304FF4806103F014BD8A780346012A10D838
S1133E40CA78012A0DD8087858B94878032808D8C0
S1133E5008B1012A05D10868C3F8D8001846FFF74D
S1133E60DDBA01207047000037B50DF106020D469A
S1133E7001F060F8044688B185B12B7813F0F70F90
S1133E800CD0FDF7CDFE074BBDF806201C60064B99
S1133E901A806A88054B1A80FDF7C6FE204603B0D7
S1133EA030BD00BFDC0F0020E00F0020DA0F00203F
S1133EB000F03EBF044B1A68824201D0032801D8A7
S1133EC000221A6002F0DABFDC0F0020084610B5A9
S1133ED010F00304114618D1B3FA83F3192B12D04E
S1133EE0C3F11903DBB2062B28BF06239C1DE2B2E3
S1133EF001249440A4B2A1421A4628BF214600F0EE
S1133F0017FE204610BD2346F0E70124F9E711F01F
S1133F100303084610B516D114883F2C13D9B4FAFC
S1133F2084F4192C05D0C4F11903DBB2062B28BF85
S1133F30062319460633DCB20123A340138000F0A4
S1133F4015FE002010BD0120FCE710B514460846FC
S1133F50012101F081FE2046012101F07DFE0020B7
S1133F6010BD0000F8B504460D4611B903785A0691
S1133F703DD44FF6FF73A189A66F994204D02C4B10
S1133F801B680BB1204698472A4F3B68B34247D081
S1133F90294B1B683BB11EB13268002A42D0B66877
S1133FA0314620469847A36F002B34D01A68022A62
S1133FB031D95A6A12F47F4FC2F3072005D01B6A25
S1133FC0D2B203FB02F2B2FBF0F002F0E3F90726EF
S1133FD0204601F00BF9C5B103F09EFC0620012236
S1133FE0A36F16493B60164B88671A70F8BD4FF6ED
S1133FF0FF71104F866F3A6865F38613B242818170
S11340000370C5D101F0F2F80126314604F18800AD
S113401002F058FAE0E7A4F10C00FCF73DFAD4E70B
S11340200126D5E71646204631469847BBE700BF30
S1134030E80F0020E40F0020D40F0020006000A847
S1134040D80F002008B558220021064803F0C5FE09
S11340501022FF21044803F0C0FEBDE8084003F02D
S11340605BBC00BF043F00B0483F00B02DE9F34102
S11340700F460446002850D0032380F8CC30284B48
S11340804FF6FF721B784FF0FF3883736923C0F833
S1134090A830642300F10C06C0E92B33C0E92D33AA
S11340A0A0F8BC301F4BA0F83C2142740283C0F836
S11340B05081A0F8128030461A8002F0ADFD3046DF
S11340C0FFF7C0FF94F90E00FFF738FA6022164B91
S11340D004F1E401DA643046FFF7AEFE41460546DA
S11340E0A26A3046FFF706FC0E230022CDE9003316
S11340F040F202231046194602F090FB01F03CF80E
S11341003DB92046FEF7C2FF054617B108B920465F
S1134110B847284602B0BDE8F08180F8C000FFDE51
S1134120480A0020F00F0020004000A810B50C46FB
S1134130FFF788FFC4B1A378082B17D8E278082AC0
S113414014D843EA021313F0FF030CBF1946616845
S1134150074A5160217882F85810617882F85B3000
S113416082F8591003F0D8FB002010BD0120FCE7B1
S1134170003F00B0012A10B513D8032B11D803EB6C
S113418082030122084C02FA03F394F85A00DBB2CA
S113419021B10343002084F85A3010BD20EA030300
S11341A0F8E70120F9E700BF003F00B0034670B50F
S11341B00C68B0F8C420013408BFD3F89C408D6863
S11341C008BF0C604C686932013408BFD3F8A840BA
S11341D092B208BF4C606C1C00F1880033D1D3F854
S11341E0A450CC688D60661C31D1D3F8A0400E6910
S11341F0CC60013604BFD3F894600E614E69013679
S113420004BFD3F898604E618E69013604BFD3F8B9
S1134210AC608E618E69F6B1B24238BF32460E6828
S11342208A61C3E927644C68C3F8A450C3E92A42ED
S11342300A69C3F894204A690721C3F8982002F058
S113424041F9002070BD954238BF1546C9E7944234
S113425038BF1446CBE76422E1E701F06DB90000F2
S11342604FF6FF72B0F83031934211D0094A0A492F
S1134270526E100CC2F301120132B3FBF2F3088048
S1134280064A074907481B044866002053667047DE
S113429003207047004001A8F00F0020005001A83F
S11342A0006001A80000FFFF2DE9F34105460E461A
S11342B01446FFF78DFA002800F0AA80554B4FF4FE
S11342C000612846D3F8008FD3F8DC7E03F0DCFAD3
S11342D038B14FF4007201214F4B08461A64FEF7BF
S11342E08BFB31462846FEF737FD4A4B0646C3F89A
S11342F0008FC3F8DC7E002870D12B789F0601D490
S1134300002C43D0C4F3400002F0F2FC022314F466
S1134310807F1FBF414A002113644FF02A420BBF24
S11343203D4A91611364536302F044FD4FF480638A
S113433014F0040F14BF3A4A3A4A14F0400F53627F
S11343404FF00402344B20461A644FF0400314BF6C
S1134350354A364AC2F88830FFF74CF82846FFF74A
S113436021FD38B14FF4807314F0010F14BF2B4AB0
S1134370294A1364A00602D52846FFF771FF003CC2
S113438018BF01242B7864F345132B70284600F0E2
S11343906BF900B32846FFF705FDE0B14FF4003197
S11343A0284603F071FA002814BF022301230322D4
S11343B001A91F4800F020FC9DF804101D4A01F0DB
S11343C00703052B9DF8053018D109070AD443F4D7
S11343D08073C2F8E430002000F070FE304602B072
S11343E0BDE8F08113F0040F0CBF9DF806304FF4C4
S11343F08073104A08BF43F48073EAE703F0300186
S1134400202902D113F0010FEEE79DF80630E0E712
S11344100226E3E7003000B0002002A8001002A842
S1134420005001A8006001A800D000A800E000A886
S11344300C0000AA003E00B008B5FFF735FF18B91C
S1134440BDE8084002F034BC08BD00004FF6FF711F
S1134450084A10B513888B4209D00748074C1B043F
S11344604466A0F5805043660020118010BD0320EF
S1134470FCE700BFF00F0020006001A80000FFFF70
S1134480474B2DE9F3411E6805460C46174606B115
S11344900C3640F2022305F001022340134340D0BE
S11344A0A30709D53F4BD3F8003F03F0C003402BCB
S11344B002BF02213C4B99604FF000083AB300233D
S11344C0002200210120CDE9008802F0A7F94FF075
S11344D0FF3001F03DFC414670810120FEF78CFA6B
S11344E0324B1B6C580208D4F36913F0800F4FF45D
S11344F0001314BF2E4A2F4A13622F490868FEF78F
S113450001FF00230B60337843F004033370A105EB
S113451007D501213046FEF74BFD24F40074054312
S11345200C43D6E93A2315401C4055EA040315D040
S1134530224B2A461968A6F10C00234688472A070D
S113454044BF00221E4B05F07F4504F0220448BFFF
S11345501A6055EA040301D0FFF778FFFB070FD573
S11345601849194A08680021136811600121174A83
S1134570117003B19847164B002102205B689847DD
S113458017F00E0F08D040F257123B21002002B062
S1134590BDE8F041FEF79EBD02B0BDE8F08100BF6A
S11345A0B80D0020003000B0001002A8000002A8DE
S11345B0005001A8006001A8EC0F0020440A00206C
S11345C0DC0F0020F80F0020F40F0020F20F002071
S11345D03C0A002008B5094BD3F84C315A1C0CD0C6
S11345E05B000AD40320FFF771F84FF08062044B9C
S11345F0DA6401225A6102229A6208BD0080E00F47
S1134600001002A84FF40022014B1A64704700BF47
S1134610002002A8024B186CC0F3C040704700BFD2
S1134620000002A838B515460446FEF7B3FB05F0B2
S1134630F7012046FFF744F800224FF4C02120463A
S113464003F00EF9002038BD08B50022802103F0E4
S113465007F90022034B801A18BF0120C3F8CC20AD
S113466008BD00BF004000A8802103F00DB9000080
S113467000220149FFF7D6BF78C800000122014992
S1134680FFF7D0BF28C50000FFF7F2BFFFF7F6BF62
S11346907FB5531C8DF8141005AA090A8DF815105E
S11346A0029202210022DBB2CDE90021114603F07F
S11346B0F7F807B05DF804FB7FB58DF8141005AB6F
S11346C0090A8DF815100293042102230132CDE961
S11346D00031D3B20121002203F0E2F807B05DF803
S11346E004FB1FB50023029108210132CDE90031FA
S11346F0D3B20122114603F0D3F805B05DF804FBF0
S113470010B5FF224FF6FF710446FFF7C1FF68B9E9
S1134710FF224FF6FF712046FFF7CEFF30B9204647
S1134720BDE81040FF220249FFF7DBBF10BD00BF08
S11347309C83000010B55B0743EA02429DF80830F1
S113474042EAC1625B0503F0BC631A43064942F4C2
S1134750C872044603F084F8002220461146FFF78D
S113476037FB002010BD00BF9007E12D10B5437842
S11347700446033BDBB2032B96BF0E4A0021D15CF7
S1134780FEF79EFF012000F02DFF4FF4F0620A4B6C
S11347902046DA644FF40072A3F58053DA6403F51B
S11347A070439B6E012240F8303F0421BDE8104065
S11347B000F02CBAA4830000006000A8012310B507
S11347C080F8B2302823C0F8983004230446044902
S11347D04370FEF7DFFA2046FFF7C8FF002010BD44
S11347E048BE0000012310B580F8B2302823C0F879
S11347F098300723044604494370FEF7CBFA204659
S1134800FFF7B4FF002010BD4CC10000012310B518
S113481080F8B2302823C0F89830022304460449B3
S11348204370FEF7B7FA2046FFF7A0FF002010BD43
S113483040B90000012910B5044614D902390129F0
S113484014D806230A49012284F8B2204FF4BC721A
S11348506370C4F898202046FEF79CFA2046FFF7C0
S113486085FF002010BD05230249ECE70320F9E78A
S1134870ACB7000018B6000038B5134D04462868DC
S113488001F0B2F9AB68186801F0AEF90F4BDA68C1
S11348901AB19B68186801F0A7F90D4BDA681AB1D0
S11348A09B68186801F0A0F90A4BDA681AB19B6892
S11348B0186801F099F92046FFF7A8FF2046BDE8E3
S11348C03840FFF753BF00BF40B9000048BE0000A6
S11348D018B60000ACB7000010B54FF4F0620446FF
S11348E00020074B84F8B2006070DA6400F07AFEAE
S11348F004F188000221BDE8104001F0E3BD00BFCF
S1134900006000A82A4B10B5D3F8C02012F0060F9F
S113491005D04078042803D90022C3F8BC2010BD78
S113492012F004043CD00B7813F0200300D08B78F1
S1134930920718D50B7803F00F03072B32D14B786D
S1134940022B2FD98B7813F03E0F2BD0CA7812F09C
S1134950040F27D012F0010F0CBF04230A2392077F
S113496048BF0633CB5CEBB1002C0CBF0121022104
S1134970042840F6FF7003F01F0208BF5200013AFA
S113498040EA02320B4802654FF470600A4A090299
S1134990D060A2F58052D160054AC2F8BC30BEE7AF
S11349A02346C5E70023034A01211365ECE700BF52
S11349B0003E00B0004000A8006000A8044B19B1FC
S11349C042F20102C3F828220A68C3F88822704719
S11349D0004001A8436F4BB15B693BB11B680020E9
S11349E09A1C08BF4FF0FF330B60704701207047DB
S11349F038B505461046FFF7E1FF5DB16B6F4BB16B
S1134A005B693BB10A68013204BF6FF001020A60BE
S1134A100A681A60002038BD13B5074BD3F8484222
S1134A20019421B1531EDBB2FD2B88BF0C6001A998
S1134A30FFF7DEFF02B010BD0080E00F07B50822CB
S1134A40084BC3F8FC234FF0FF330193064B18685F
S1134A5000B10C30002201A9FFF7DEFF03B05DF8BE
S1134A6004FB00BF001002A8B80D0020002070470E
S1134A702DE9F74F06681C469DF8303006F007060E
S1134A800193B31D01269E40054617460B4606F1C9
S1134A90FF38A1B1416804EA080BA6EB0B0A41F008
S1134AA00059524509EB0B0118D95246184603F038
S1134AB087F94946BA1B5A44504403F081F9019BD3
S1134AC04BB13C4448EA06063440EC60AB68A34270
S1134AD01CBF0223AB6203B0BDE8F08F1846ECE7BD
S1134AE04FF02A43D3F81421D2031ED54FF4803259
S1134AF00E49C1F81421A1F58051C1F818215A6D4D
S1134B00D1B2C2F30722C3F8A410C3F8A42004222C
S1134B10C3F8A4200022C3F8A420C3F8A420C3F837
S1134B20A420C3F8A420C3F8A4207047002000AA3E
S1134B3038B54FF02A44E26020610D46FDF770F865
S1134B400122D4F8143162635B075CBF0422064B74
S1134B50656158BFC3F81421FDF766F81DB14FF025
S1134B602A4302225A6338BD002000AA044B40F6AF
S1134B70FF7218604FF02A43D96418651A677047AA
S1134B80FC0F0020032A2AD9436830B484682344E4
S1134B905B4203F00303D21A53B30C7884615C1EA6
S1134BA005D04D78012C85611CBF8C7884610B4441
S1134BB0032A1FD9111F21F003010431194453F8AA
S1134BC0044B8B424463FAD102F003022AB10A4433
S1134BD011F8013B91428361FAD130BC704732B184
S1134BE00A4411F8013B91428361FAD1704770473E
S1134BF00B46DDE71946EAE737B50025144600956C
S1134C00FFF736FF204603B030BD0000402938B519
S1134C1014464FF001020ED84FF02A45C5F8F4208F
S1134C200A4601460648FFF7ADFF34B104230020CD
S1134C30C5F8F43038BD1046FCE72046FAE700BF5B
S1134C40CC0000AA10B5FCF7EBFF4FF02A43012279
S1134C501C495A67C3F8B420C3F88C20C3F89010D9
S1134C600721C3F8B010184B184C198000231849B9
S1134C700B804FF4A021C4F81411A4F58054C4F897
S1134C80181114490B60144B1B6C5C0213D54FF4C0
S1134C908004124B12491B680C6483B1996A09069B
S1134CA009D44FF4001493F8BE300E490C6213B1CA
S1134CB00D4BC3F80021BDE81040FCF7B5BFDB691C
S1134CC0FFDE00BF0010002082100020002000AA98
S1134CD08010002084100020000002A8B80D0020DD
S1134CE0002002A8006001A8005001A807220D4B73
S1134CF0F0211A8000220C4B1A804FF02A43C3F88B
S1134D00CC204FF40052C3F8D000C3F8F020074A77
S1134D109164A021A2F5805291640122C3F8F42089
S1134D20FFF790BF8210002080100020006000A8D0
S1134D30044B186820B140F001021A6020F0010011
S1134D40704700BF841000202DE9F0410446A0B153
S1134D50FCF766FF434E444B3188032C01F0780284
S1134D600546424F01F07F0E1A4466D1D7F800C0C1
S1134D70BCF1000F03D1FCF757FF03205BE02CF0DC
S1134D800104386820F00100A0425BD100233B609D
S1134D90238894426FEA43436FEA5343238046D106
S1134DA0334FDFF8E8C03B88ACF18008CC18083BEF
S1134DB09BB202F10801614528BF4146E01A082B65
S1134DC080B204D9B1F900E0BEF1000F45DB4FF029
S1134DD02A41947812883B80C2F30C028A654FF40E
S1134DE08022C0B23080C1F89800C1F8B030214BA5
S1134DF004F00704C3F81421FFF772FE042C16D143
S1134E004FF480011C4B1D4A1B6C1D4B1B68116425
S1134E102BB39A6A12060AD44FF4001193F8BE30E9
S1134E20184A11621BB10122174BC3F8002128460E
S1134E30FCF7FAFE0020BDE8F081601E012898BF4F
S1134E4014469EE70A4873440088E31A48BF803337
S1134E50083898429CDC28468DE70A46A7E7DB69B8
S1134E60FFDE00BF8010002000100020841000200E
S1134E7082100020002000AA000002A8002002A83E
S1134E80B80D0020006001A8005001A88010002087
S1134E901048114A0388128810491A44073A02F04C
S1134EA078020A444FF02A4108339BB20380C1F8C8
S1134EB0B0304FF480219078094B00F007000428AB
S1134EC0C3F8141103D10749CB681B03FCD4064B68
S1134ED01A6070478210002080100020001000200B
S1134EE0002000AA000002A88410002010B5054C80
S1134EF0206828B1C30701D4FFF726FF00232360ED
S1134F0010BD00BF841000204FF48033084AC2F85B
S1134F101831A2F58052C2F814314FF02A43D3F865
S1134F20AC30C3F30C03782B01D8FFF7D9BD70471D
S1134F30002000AA2DE9F04705460E461446FCF76A
S1134F406FFE574B81461988564F574801F0780237
S1134F50032DB0F800C001F07F033A4418D1534840
S1134F60056895B901EB0C05073D05F078053D444E
S1134F703B44EB1A48BF8033634511DB4846FCF7DA
S1134F8053FE00252846BDE8F08725F00105EFE72C
S1134F90012D03D0022DEBD1ACF1080C1546E7E747
S1134FA00EB9002C4DD095424FD14FF02A42976D47
S1134FB0BFB204B127804FF02A41CA6C002E40D002
S1134FC002F0070A0AF106024FF0010A0AFA02FA8D
S1134FD0D1F8AC201FFA8AF8C2F30C029A4246DDDB
S1134FE0B5F900302C88002BC8DBAB78C4F30C0473
S1134FF008F1FF3203F00703E41B48EA02021440FD
S1135000052B3370A4B22AD824B2E0434FF477724C
S11350100421C00FFEF75EF87480EB78337408F156
S1135020FF331F40224B1B68DA19B260A2B217FA91
S113503084F45445D3BF0023A8EB0707B780B2809C
S1135040F3604846FCF7F0FD9CE7A5F10802BA427C
S113505038BF05F178021788C7F30C07A9E7154B89
S11350605B6D002B0CBF00230623E41ACCE74B6DC9
S113507008F1FF34DB1B48EA04041C400E4AA1B2C9
S1135080D36824B251B9C3F30363032B0CBF0823C1
S113509000233370936C71801B0ABFE70823F8E781
S11350A080100020001000208210002084100020B6
S11350B0FC0F0020004000A8000002A870477047C1
S11350C0054B6C22D3F84C013121431C0CBF012049
S11350D0C0F38070FDF7FEBF0080E00F10B50446FA
S11350E020220021104802F078FE61880F4A2378BC
S11350F05180002113700E4A012BC2F8CC104FF0DE
S1135100FF010C4A0C4B11704FF007010B4A4FF092
S11351100000C2F8FC130CBF04220122C3F8FC23D4
S11351200122074B1A7010BDE03F00B0520A002064
S1135130004001A8500A0020001002A8002002A884
S113514089100020034B1A6802609B88838000202A
S1135150704700BF520A0020064BD3F8F83720B935
S113516083F40030C0F340407047431E5842584116
S1135170704700BF000002A84FF63F7208B50D4B00
S1135180D3F8FC3793420CD00B4AC3F301111170CE
S1135190C3F34232013AC3F3042303EB4213074A35
S11351A0137000F095FC41F66A03B0FBF3F0044B76
S11351B0186008BD000002A85B0A00205A0A0020FB
S11351C08C10002020B1012804D1034B18787047BB
S11351D0024BFBE7002070475B0A00205A0A0020BC
S11351E0014B1868704700BF90100020D0F844218C
S11351F02DE9F84F022A38BF0222764B07461B6A74
S113520090F8C060C3F38213991E012902F1FF32A2
S113521029D9991F4B424B41DFF8D8E19C46DEF86F
S113522000106D4D91426D4C6D496E481DD191F841
S11352300080984519D195F80080B04515D1D7F86C
S11352404881B8F1000F10D0DFF88891D9F8CC90DC
S1135250C8450AD197F8069094F80080C14504D156
S11352608088BDE8F88F0123D6E7CEF8002081F8C6
S113527000C0002B00F09C8004234FF07F405A496B
S1135280C1F8B830594BC3F8B800BB791B06C1F854
S1135290B83000234FF0805053494FF0FA08C1F85A
S11352A0B4004FF47A714A43190408FB01F8DFF89B
S11352B048C102F2E732DCF800E04FF00A0CB8FB18
S11352C0FEF80CFB08F8B2FA82F9B8FA88FCA9EBEC
S11352D00C09B9F1000FD8BF4FF00F0C4FF0FA0AC8
S11352E0C2BFC9F10F0C09F01F0928FA09F8424599
S11352F038BF0CF1FF3C5A1C0CF01F0B520002FA91
S11353000BF20AFB02F24FF00A09B2FBFEF209FBB0
S113531002F2DFF8E880580000FA0BF0C8F8AC207D
S11353200AFB00F04FEA0C2242EA0C1242EA0C0299
S113533040F6FF7CB0FBFEF041EA03210B432C490D
S113534009FB00F0C1F8C4C0A1F58051C1F8C42024
S1135350204ADFF8ACA0C2F8CC30D2F8CC2000F55B
S11353607A79C8F8F82000F6AC50C7F84831CAF882
S1135370009001F045F8C8F8A400C8F8FC00D8F87B
S1135380AC0000F57A7001F03BF8D8F8A430154A67
S1135390C01AC8F8AC004FF47A70DAF800302E70F6
S11353A0B3FBF0F39380BB79B9FBF0F0237058E7BB
S11353B090F80080B9794046FFF704FF814228BF86
S11353C00146B8F1000F0CBF2023102353FA81F3D8
S11353D0DBB25FE7004001A8590A0020580A002008
S11353E088100020520A0020001002A8002002A801
S11353F0006001A84C0A00208C100020003F00B07F
S11354009010002010B50D4B024618780C4C032860
S113541002D1FF20207010BDFFF7D4FE904228BFB8
S113542010462378C0B28342F5D0064B207018682A
S113543000B10C30FFF7DAFE2078ECE7520A0020C6
S1135440500A0020B80D00207047000038B505460A
S113545000F0EAFA01213A20FBF7A6FD304C314B6B
S11354601D702378013B012B0CD80122217CE37BA6
S11354708A4030214B4342F2100103F1804303F58B
S113548070335A500022284BC3F87C24002D3FD09F
S113549063689BB300F01CFB626800EB5203B3FB30
S11354A0F2F3013B1B0243F0F8032278022A27D0CF
S11354B0032A29D0012A2ED1072243F002034FF6F2
S11354C0FF701A49C1F88400A1F58051C1F88430F5
S11354D0154BC3F87C24920709D50122207CE17B7B
S11354E08240302000FB013341F210015A504FF04A
S11354F0804395B10E4A0020D36438BDF823D4E725
S1135500062243F00103DAE7042243F00503D6E759
S11355102A46F823D3E70022D1E7064AEBE700BF87
S1135520981000209410002000C00340006000A8E0
S1135530001002A8002002A8F8B5214F06463D46F7
S113554004460FCE0FC533682B6000F06DFA0121BD
S11355503A20FBF729FD00221A4BC3F87C24A17AD8
S1135560627A42EA0142C3F88824217CE27B42EA5F
S11355700142C3F88424207B617B40EA0142C3F8E2
S113558080243B78032B19D8DFE803F01202060CC1
S113559000230422FCF7E4FC00230422217CE07BAA
S11355A0FCF7DEFC01230422A17A607AFCF7D8FC24
S11355B0054B1878BDE8F840FFF748BF0120F8BD57
S11355C09810002000C0034094100020034BDB6CB3
S11355D0002BBCBF024BC3F888007047000002A830
S11355E0004000A84FF0006338B1064AD364064B6C
S11355F04FF40032C3F884207047044AD364044B48
S1135600F6E700BF001002A8005000A8002002A87E
S1135610006000A82DE9F0472D4B2E4C4FF47A760C
S1135620A36000F055FA4FF4FA73B0FBF6F6734337
S113563007462948190E1B021818284A4FF0000380
S113564041F1000102F0F4F9A0F5807305462363EB
S113565020B960222B21FDF73DFD01254FF47A721C
S11356604FF0000A6A4353465008310202F0E0F951
S11356701B4BB7F57A7F19601A4B4FEA05688946C8
S1135680044618604FEA152505D270222B21504696
S1135690FDF720FD01264FF47A71A8FB010801FBF8
S11356A005817308C01841F100010023324602F05D
S11356B0BFF90D4B023419600C4B49F10009A408E1
S11356C0186044EA8974034B013C9C63BDE8F0878D
S11356D00211010000C001A820A1070040420F00F0
S11356E0C0100020BC100020B8100020B41000200E
S11356F01022044BC3F884215A600122024BDA6061
S1135700704700BF00E100E000C001A8824210B56C
S1135710A3EB0101A2EB000404D2044B01399B6BFF
S113572001331C44204601F0030110BD00C001A850
S1135730054B0201134401221A604FF4807303FAEB
S113574000F0024B5866704700E101A800E001A890
S1135750034B10300001185800F00100704700BFDF
S113576000C001A8044B01F0F071103041F00301B6
S113577000011950704700BF00C001A838B5FCF7FC
S113578056FA084B084A1D6A92F8A5405A6EE4B2CC
S1135790520744BF1D6A0134FCF74FFA284604F04F
S11357A0030138BD00C001A8003E00B008B52220A6
S11357B0FFF70CFF4FF48022014BDA6008BD00BFF5
S11357C000C001A8064B1B68434303EB8171054BE2
S11357D01B68A3FB003013F1004341EB000070474A
S11357E0B8100020B410002008B5FFF7C7FFBDE8CB
S11357F00840FFF7E7BF00000C4A20F04043014691
S113580010B5002014684FF00042E4FB0320084A5E
S1135810890F126802FB0300064B9B6B984204D964
S113582001330131C01A01F0030110BDBC10002086
S1135830C010002000C001A838B50446FFF7D4FF0B
S11358400546FFF7D1FF431BA342FAD338BD00003E
S113585008B50B4B0B4918680B4B1A68121A00F168
S1135860304002F0ADFA094B00211868084B1A6861
S1135870BDE80840121A00F1304002F0AEBA00BF91
S113588010B6000014B600000CB6000008B6000004
S113589004B6000008B5074B07491A684FF03040BA
S11358A0920002F08DFAFFF7D3FFBDE8084000F044
S11358B0AFBE00BF00B60000F483000070B50C68F2
S11358C0651C03D100230360012313E0C4F30266C3
S11358D09E42C4F307450FD1A4B294420CD804EB02
S11358E08506B24208D2131B23F00303CA18536877
S11358F003600023037170BD013501EB8501DEE710
S1135900044BC0F3016233F8123080B240EA034022
S1135910704700BFE48300007FB50C468AB2090CCF
S1135920B1F5284F06460B4612D04AF601008142D3
S113593010D04AF602018B420ED0B3F5304F0CBFA3
S113594003250425736F4BB9336FBBB9206813E08B
S11359500025F7E70125F5E70225F3E71968002993
S1135960F2D02B4602A80192FFF7A8FF9DF80C3055
S11359700298019A002BE7D104B070BD1968002980
S1135980E4D02B4602A8FFF799FF9DF80C3002984B
S1135990002BDBD1F0E7000007B501A8FCF74EFBB4
S11359A0C822094B5A65094B094AD3F86032DBB265
S11359B0FF2B08BF03239B0043F47F53C2F8F83343
S11359C003B05DF804FB00BF008001A80080E00F75
S11359D0000002A8002310B5104C012123643A20D2
S11359E06364A364FBF7E0FA01220D4B5A610222BF
S11359F09A62E368C3F303630D2B01D0002BF8D143
S1135A001123A363074B1B6898474FF08062044B34
S1135A105A61012203F580535A6110BD000002A8A7
S1135A20001002A85C0A002001231049C1F880324A
S1135A308A6E6FEA52326FEA42328A660C4A5360C7
S1135A404FF02A4253600B4A5360A2F580425360E0
S1135A50A2F54042536002F5C032536002F5804221
S1135A605360A2F500425360704700BF00800040BD
S1135A7000C000A8004001A810B50324FFF7D4FF1C
S1135A80FFF78AFF0E4B0F4AC3F8E04003F530439B
S1135A90DA64012203F58053DA644FF460725A61C8
S1135AA04FF40072DA64FEF7C9FF8022064B1C64CF
S1135AB0A3F580535C64054BC3F884215A6010BD80
S1135AC0005001A80008700000A002A800E100E056
S1135AD008B5FAF7D5FE044B1B6FC3F3004301333B
S1135AE0B0FBF3F008BD00BF008000402DE9F04F8B
S1135AF0044685B000900F4657F8045B6B1C06D132
S1135B00009B2560E01A801005B0BDE8F08F5FEAC5
S1135B10157B284614BF0121C5F30741FFF7F0FEAA
S1135B204FEAC10900F06F42B2F1204F2C4B09F14A
S1135B3004022244064608BF20F070469A4218D850
S1135B40C5F301620725BA468B00019306EB810376
S1135B50D54002930BF1FF3305F0010504F1080869
S1135B600393029B9E4209D1019B4C443B4419463A
S1135B70C1E71C4B9C42E3D80020C5E7039B062BDE
S1135B800BD8DFE803F023040C040C23040040F2D8
S1135B909A4232210020FDF79DFA002207E040F2EC
S1135BA09F4232212846FDF795FA4FF48052324441
S1135BB048F8082C5AF8042BBBF1010F08BFD24354
S1135BC0043648F8042C08F10808CAE74FF4956233
S1135BD032212846FDF77EFA4FF40052E7E700BF72
S1135BE0DF4F00B0E04F00B02DE9F041054600B3AF
S1135BF00024164A1649264690460F4652F8043B9E
S1135C00CBB91448294600EB8600FFF76FFF034623
S1135C1048B940F212523621BDE8F041FDF75ABAB4
S1135C2031F8026BEAE73344013348F8245027F88B
S1135C301430BDE8F081AB42FBD001340C2CEFD121
S1135C404FF4A46236210020E6E700BFC410002010
S1135C50F4100020404000B070B50446A0B1C9B1B2
S1135C600C2200232D492E4851F8045BA5420FD184
S1135C702C4A116CC907FCD49B0003F580434033C4
S1135C801360294B01221A6470BD30F8023BEBE724
S1135C90013AFAD101252BE00846FFF731FE0E0C3C
S1135CA016F0FE0F03460ED02146F6B2B20000EB0A
S1135CB08606B34251F8040F02D1131D1C4417E0A9
S1135CC043F8040BF5E7090F6068083407290FD877
S1135CD0DFE801F00A0408190C171C1FC04303F580
S1135CE0005301E01A685040186001E0FFF7A4FD7A
