S016000073696D706C655F7472785F784732322E73333715
S1130000000800207D08000079080000790800003D
S1130010E92E000079080000790800007908000042
S113002079080000790800007908000079080000C8
S113003079080000790800007908000079080000B8
S113004079080000790800007908000079080000A8
S11300507908000079080000790800007908000098
S11300607908000079080000790800007908000088
S1130070893D000079080000790800007908000033
S11300807908000079080000790800007908000068
S11300907908000079080000790800007908000058
S11300A079080000CD0C0000A50C000079080000C0
S11300B0790800002584000079080000798D00008B
S11300C0318D00002D8D0000F1850000758D00003C
S11300D0358D00004D8D0000398D0000D18D00005C
S11300E0ED73000051740000B98D00007908000020
S11300F0F52D000079080000790800007908000057
S113010079080000790800007908000079080000E7
S113011079080000790800007908000079080000D7
S113012079080000790800007908000079080000C7
S113013079080000790800007908000079080000B7
S113014010B5054C237833B9044B13B1044800E0CF
S113015000BF0123237010BD100B0020000000001D
S113016048E2000008B5034B1BB10349034800E013
S113017000BF08BD00000000140B002048E200008E
S1130180A3F5803A704700BF174B002B08BF134BF1
S11301909D46FFF7F5FF00218B460F461348144A8E
S11301A0121A09F004F90E4B002B00D098470D4B9E
S11301B0002B00D098470020002104000D000D48BA
S11301C0002802D00C4800E000BF09F0BFF820006E
S11301D0290000F059F909F0A5F800BF0000080053
S11301E0000000000000000000080020100B0020A8
S11301F048120020000000000000000038B5002074
S113020000F056FA044600F035F901F035FD0546D4
S11302100121022002F0C4FF284601F031FD044808
S113022000F084FC034800F081FC204638BD00BF88
S1130230289800004098000070B505460C46164604
S11302408A88896809F0A6F8E16831B16288A088D3
S1130250121A92B2284409F09DF835606088B0F50E
S1130260807F28BF4FF4807070BD08B5012304F06F
S1130270A1F908BD30B587B00446464B1B7873B16D
S11302800023444A1370444A1370434B1B78DBB277
S1130290052B55D8DFE803F02C565D6178653F4B9C
S11302A01B7833B13D4B00221A703B4B01221A706C
S11302B0EBE73B4B1B7833B1394B00221A70364BBA
S11302C002221A70E1E7374B1B7833B1354B002219
S11302D01A70314B03221A70D7E7334B1B78002B6B
S11302E0D3D0314B00221A702B4B04221A70CCE766
S11302F001AA0221204604F083F92C4B186016E071
S1130300002300936A4601A92948FFF795FF274D6A
S11303102968204604F07AF9264B1B78264800F019
S11303200AFC01AA0221204604F06AF928601F4B46
S11303301B68002BE4D1184B05221A7002F09CFFB5
S113034007B030BD1D4800F0F6FB134B05221A70B0
S1130350F6E7114B05221A70F2E70F4B05221A70CB
S1130360EEE7174B1B78002BEAD0102215492046E4
S1130370FFF77BFF00231A461946204603F088FD49
S11303800F4B00221A70DBE70F4B1B78024B052240
S11303901A70D5E7380B002011080020390B002013
S11303A03A0B0020400C00202C0B00203C0C0020B9
S11303B03C0B002010080020289800004098000002
S11303C0440D0020000800202D0B002070B50646C7
S11303D014461D46194BC3E90045194B134205D079
S11303E002F0080393B9174B01221A7004F0AA43D0
S11303F005F02202134305D004F0807363B1124B5D
S113040001221A7015F4007F0AD170BD04F0FCF8C3
S11304100E4B01221A70E9E70D4B01221A70F1E725
S113042000221146304604F085F80A4B18701B78F8
S1130430002BEAD0084B01221A70E6E7300B0020AB
S1130440088D01003A0B0020390B0020380B0020E6
S1130450400C00202D0B00202C0B002008B500F0D0
S11304609CFA012800D008BD014B01221A70FAE75A
S1130470440D002008B54FF480730022014904F0B4
S11304809DF808BD440C002008B503F0A0FCFFF75C
S1130490B5FE054B186003F0A6FC034B1868FFF784
S11304A0E9FE02F0E9FEF6E7480D0020002070475F
S11304B0704708B500F02FF908BD08B50321802066
S11304C001F0D6F903214FF4806001F0D1F9032142
S11304D04FF4906001F0CCF908214FF4C06001F0B2
S11304E0C7F908214FF4F06001F0C2F908213E2059
S11304F001F0BEF908212D2001F0BAF9002008BD51
S113050008B5174B1B68C3F30743012B14D002F043
S113051057FA00F015F902F0E0F902F06DFA02F072
S1130520F3F902F033FAFFF7C8FF02F0DBF900F049
S1130530FBF802F003FE08BD0A4B5A6E03F5805324
S11305404FF48021596603F510430421196212F413
S1130550802FDCD1A3F500434FF480225A66D6E7FE
S11305600080E00F0080004008B500F075FB00F04B
S1130570B1F800F0BBF808BD08B503F0D3F902F0F8
S11305803FFA02F03BFC08BD08B502F085F802F022
S11305907BF902F09BF900F099F808BD70477047A9
S11305A0704770477047012070470120704708B5B5
S11305B0FFF7F9FF08BD10B502F014FF0446FFF77A
S11305C0F4FF042805D0022801D0204610BD0124E0
S11305D0FBE70024F9E7FEE708B5FFF7FCFF08BDD9
S11305E0704708B5FFF7FCFF08BD704738B50446EF
S11305F00D4602F05BF829462046FFF7F6FF38BDAA
S113060008B5FFF7E3FE08BD10B586B022492348BC
S113061003F01AFC224B186030B10023059305A99E
S113062003F0C4FF08B1FEE7FEE71D4C1D4A1E4B54
S11306301968206803F09EFE0021206802F00CF97E
S113064000B1FEE712A3D3E90023CDE900234FF064
S1130650FF324FF0FF331249086803F0D3FE00B1B4
S1130660FEE7124B1B88ADF81030ADF80C3004A92E
S11306700B4B186803F0AAFE00B1FEE703A9084B70
S1130680186803F0BBFE00B1FEE706B010BD00BF62
S113069018AC0155E2030000E30500002008002027
S11306A0EC090020ED05000018080020F497000074
S11306B082B0054B019302AB03EB800050F8043C7D
S11306C0186802B0704700BFEC09002008B5FFF7B6
S11306D09BFF08BD08B5034800F057F9024800F035
S11306E054F908BDF89700001098000008B50348B5
S11306F000F017FA024800F014FA08BD2898000028
S11307004098000008B5012304221146184601F060
S1130710E3FC002008BD08B5002304221146012093
S113072001F0DAFC002008BD08B501213A2000F0F0
S113073067FCFFF7BEFEFFF7E5FF00F013F808BD06
S113074008B501213A2000F05BFC08BD014B1022E2
S11307501A61704700E00340014B10221A61704790
S113076000D00340F0B587B06C463F4D0FCD0FC4A9
S113077095E8030084E8030001213A2000F040FCDE
S11307800121282000F03CFC01248DF80E40374B59
S11307900293374F6946384601F014FE234604227B
S11307A00021022001F098FC002322462146022069
S11307B001F092FC234604220221084601F08CFC3D
S11307C0234604221146002001F086FC294D4FF0F7
S11307D00213C5F83036A3F58033C5F82C3602264B
S11307E0C5F834661C23C5F81C364FF4487003F072
S11307F005FBFFF7ABFF142003F000FBFFF7ACFF92
S1130800232003F0FBFAFFF7A1FFB921384601F0DA
S113081020FEFFF7A1FF00231A461946304601F0D7
S11308205BFC00231A462146304601F055FC234662
S113083000223146304601F04FFC234600220421B9
S1130840104601F049FC384601F08CFD0021C5F842
S11308503016C5F82C16C5F83416C5F81C16282011
S113086000F0CEFB07B0F0BD5898000000127A00EB
S113087000C0054000C00340FEE7000008B500F0DA
S113088013F8064B064A03E052F8041B43F8041B12
S113089004498B42F8D3FFF777FC00BF000800201F
S11308A050E20000100B0020044B054A9A60D3F874
S11308B0882042F47002C3F88820704700ED00E0FD
S11308C000000000014B1868704700BF140A0020A4
S11308D008B5094B1B6F03F00703022B04D0032B4D
S11308E005D0012B06D0FEE7FFF7ECFF03E0034B36
S11308F0186800E0024808BD00800040180A002083
S1130900002D310108B5FFF7E3FF054B1B6FC3F35F
S113091003330133B0FBF3F0024B186008BD00BF92
S113092000800040100A00200048704700B4C4044E
S1130930014B1868704700BF180A002008B5064B21
S11309401860064B1B6F03F00703032B00D008BD90
S1130950FFF7D8FFFBE700BF180A00200080004023
S11309600020704700487047002D31014FF40040CB
S113097070474FF47A707047014B1868704700BF96
S11309801C0A002000230360704708B5436813B1B4
S11309900068984708BD2220FCE708B5436913B1F5
S11309A00068984708BDFF20FCE7000008B5002355
S11309B001E00133DBB2124A12789A421FD99C46F5
S11309C0104A52F82320126851798142F1D192F8E9
S11309D000E0BEF1020FECD0137903EB43031B01DB
S11309E00948C35823FA01F111F0010F0CBF012388
S11309F000231370034B53F82C00FFF72FFD08BDA1
S1130A00F6970000000A002014C0034010B582B01D
S1130A10044601213A2000F0F3FA0023012261790F
S1130A20207901F059FB2379617903EB43031B011E
S1130A300E4AD358CB4013F0010F0CBF01230023FF
S1130A402370A379022B02D0002002B010BD00F065
S1130A5003F90749607900F017F9617901230193DB
S1130A6000930A46207901F0A3FAEDE714C003408D
S1130A70AD090000007870470378022B11D0037988
S1130A80417903EB43031B01124AD358CB4003F0D3
S1130A9001010B468279012A04D012B981F00101C7
S1130AA0017070474288520092B2134343F47F436B
S1130AB043F0C0034FF6E072934205D04FF6DF7265
S1130AC0934204D04380704701220270F6E700226B
S1130AD00270F7E714C0034008B50378022B00D076
S1130AE008BD00234380FFF791FFF9E70378022B49
S1130AF016D010B582B004468379022B03D00223AA
S1130B00237002B010BD0021407900F0BDF8617976
S1130B100023019300930A46207901F049FAEEE795
S1130B20704708B543680068984708BD08B5C368AE
S1130B300068984708BD08B503690068984708BD70
S1130B4010B5044601213A2000F05AFAA378B3FA0A
S1130B5083F35B0904226178207801F0BDFA002058
S1130B6010BD837873B90378417801228A4003EB7E
S1130B7043031B0103F1804303F5703342F2100178
S1130B805A5070470378417801228A4003EB4303AB
S1130B901B0103F1804303F5703341F210015A50F5
S1130BA07047837873B90378417801228A4003EB54
S1130BB043031B0103F1804303F5703341F2100139
S1130BC05A5070470378417801228A4003EB43036B
S1130BD01B0103F1804303F5703342F210015A50B4
S1130BE070470378417801228A4003EB43031B01D9
S1130BF003F1804303F5703343F210015A507047F8
S1130C0010B401460278407802EB42021201064C0D
S1130C10A358C34003F001008B780BB980F00100A6
S1130C205DF8044B704700BF10C0034010B5044684
S1130C3000E098476CB194FAA4F3B3FA83F001226C
S1130C40824024EA0204034A52F82030002BF0D1F7
S1130C50F0E710BD4C0D002008B5192001F01CF878
S1130C6028B1084B4FF00072C3F880211A601A2093
S1130C7001F012F828B1034B4FF08062C3F88021D1
S1130C801A6008BD00E100E038B504460D4600F0E6
S1130C90FAFF034B43F8245000F0FBFF38BD00BFBC
S1130CA04C0D002008B5084BD3F82404D3F82024B5
S1130CB0104000F0553020F0502003F50053C3F8E5
S1130CC02004FFF7B3FF08BD00C0034008B5084B7C
S1130CD0D3F82404D3F82024104000F0AA3020F0E4
S1130CE0A02003F50053C3F82004FFF79FFF08BDBD
S1130CF000C00340024B4FF480321A67704700BFB4
S1130D000090004038B505460C46FFF7E1FD05B1FB
S1130D1028600CB10D23237038BD000038B505469A
S1130D200C460F4BD3F8203103F00303022B0ED0F3
S1130D30032B10D0012B06D00023184605B12860E0
S1130D4004B1237038BDFFF7BDFD0523F6E7FFF7B7
S1130D50EFFD0323F2E7FFF705FE0223EEE700BFF2
S1130D600080004030B583B005460C460023019353
S1130D700D4BD3F8803103F00303012B09D0022B70
S1130D800DD000230DB1019A2A6004B1237003B081
S1130D9030BD002101A8FFF7C1FF0F23F2E7FFF7E1
S1130DA0E1FD01900223EDE70080004038B50546DF
S1130DB00C46164BD3F8243103F00703013B052BF3
S1130DC020D8DFE803F0030F171B0B13FFF77AFD9E
S1130DD0052305B1286004B1237038BDFFF772FD07
S1130DE00623F6E7FFF7A4FD0323F2E7FFF7A0FDD0
S1130DF00423EEE7FFF7B6FD0223EAE7FFF7B0FDB1
S1130E000723E6E700231846E3E700BF008000401D
S1130E1038B505460C46104BD3F8000100F003002A
S1130E20032815D8DFE800F002080C10012305B1EF
S1130E30286004B1237038BDFFF77AFD0323F6E779
S1130E40FFF79AFD0823F2E7FFF78AFD0723EEE791
S1130E5000231846EBE700BF0080004038B5054684
S1130E600C460F4BD3F8403103F00303022B0ED092
S1130E70032B10D0012B06D00023184605B128609F
S1130E8004B1237038BDFFF771FD0923F6E7FFF7BE
S1130E9073FD0823F2E7FFF76CFD0B23EEE700BFB9
S1130EA00080004008B50B4BD3F8203203F0030355
S1130EB0012B08D0022B09D008B10023036021B113
S1130EC000230B7001E0FFF729FF08BDFFF7C6FF01
S1130ED0FBE700BF0080004030B583B005460C46F8
S1130EE0002301934FF0E0231B6913F0040F0ED08D
S1130EF0FFF708FD01900C238DF803300DB1019B21
S1130F002B6014B19DF80330237003B030BD0DF194
S1130F10030101A8FFF7A2FFF0E7000038B505467A
S1130F200C46124BD3F8003203F00703013B032BAA
S1130F3018D8DFE803F0020A0E12FFF717FD0923A1
S1130F4005B1286004B1237038BDFFF715FD0823EF
S1130F50F6E7FFF70EFD0B23F2E7FFF7D3FC800A59
S1130F600E23EDE700231846EAE700BF00800040A7
S1130F7038B505460C460F4BD3F8403203F0030353
S1130F80022B0ED0032B10D0012B06D000231846C1
S1130F9005B1286004B1237038BDFFF7E7FC0923CD
S1130FA0F6E7FFF7E9FC0823F2E7FFF7E2FC0B237F
S1130FB0EEE700BF0080004038B505460C460F4BF5
S1130FC0D3F8603103F00303022B0ED0032B10D0AF
S1130FD0012B06D00023184605B1286004B1237004
S1130FE038BDFFF7C3FC0923F6E7FFF7C5FC082368
S1130FF0F2E7FFF7BEFC0B23EEE700BF00800040E2
S1131000430907D0012B10D0022B01D0094A02E07A
S1131010094A00E0002200F01F0041B102F58052AD
S1131020012303FA00F010607047044AF3E702F565
S11310300052F5E760820040688000406480004010
S1131040B0F5207F20D00ED8B0F5007F16D020D880
S113105010B1B0F5C07F04D10F4B186FC0F303304B
S113106018E0002016E0B0F5607F05D10A4BD3F8F4
S11310708000C0F301100DE000200BE0064BD3F814
S11310809000C0F3046005E0034B186FC0F38020A8
S113109000E00020013070470080004010B582B0AD
S11310A0002301930093B0F5807F00F2EF802028A5
S11310B0C0F0E7802038E02800F2E580DFE810F097
S11310C02C011E012C011E013301330133013301B4
S11310D01E011E0160014F013E016A014F011E0104
S11310E01E011E01E300E300E300E300E300E3006C
S11310F046015B011E011E011E01F4006F011E0169
S1131100E300E300E300E300E300E300E300E300C3
S1131110E300E300E300E300E3002C01E3002C011F
S11311202C012C013301E300E300E300E300E300BE
S1131130E300E300E300E300E300E300E300E30093
S11311402C012C01E300E300E300E300E300E300EF
S1131150E300E300E300E300E300E300E300E30073
S1131160E300E300E300E300E300E300E300E30063
S1131170E300E300E300E300E300E300E300E30053
S11311804B01E300E300E300E300E300E300E300DA
S1131190E300E300E300E300E300E300E300E30033
S11311A0E300E300E300E300E300E300E300E30023
S11311B0E300E300E300E300E300E300E300E30013
S11311C0E300E300E300E300E300E300E300E30003
S11311D0E300E300E300E300E300E300E300E300F3
S11311E0E300E300E300E300E300E300E300E300E3
S11311F0E300E300E300E300E300E300E300E300D3
S1131200E300E300E300E300E300E300E300E300C2
S1131210E300E300E300E300E300E300E300E300B2
S1131220E300E300E300E300E300E300E300E300A2
S1131230E300E300E300E300E300E300E300E30092
S1131240E300E300E300E300E300E300E300E30082
S1131250E300E300E300E300E300E300E300E30072
S1131260E300E300E300E300E300E300E300E30062
S1131270E300E300E300E300E300E300E300E30052
S11312806501002848D0019802B010BDB0F5906FF8
S113129071D00ED9B0F5D06F7CD049D9B0F5E06FDC
S11312A07DD0B0F5F06FEED1002101A8FFF784FEE8
S11312B0E9E7B0F5407F52D00FD9B0F5607F2FD168
S11312C000216846FFF71EFD009C4FF46070FFF795
S11312D0B7FEB4FBF0F40194D5E7B0F5007F0AD172
S11312E0FFF7F6FA04464FF40070FFF7A9FEB4FBCB
S11312F0F0F40194C7E7B0F5207F0AD1FFF702FBB1
S113130004464FF42070FFF79BFEB4FBF0F4019405
S1131310B9E7B0F5C07FB6D1FFF7F4FA0190B2E7B0
S1131320B0F5806FAFD1002101A8FFF7F7FCAAE761
S1131330B0F5B06F24D0B0F5C06F04D1002101A87E
S1131340FFF78CFD9FE7B0F5A06F9CD1002101A8A9
S1131350FFF7A8FD97E7FFF7BBFA019093E7FFF7C4
S1131360D1FA04464FF42070FFF76AFEB4FBF0F4A0
S11313706408019487E7002101A8FFF717FD82E7BD
S1131380002101A8FFF7EEFC7DE7002101A8FFF78B
S1131390A3FD78E7002101A8FFF7C0FD73E7002152
S11313A001A8FFF7E5FD6EE708B58020FFF776FE9C
S11313B0034B984203D8034B4FF480321A6708BD9D
S11313C0005A620200A0004038B505460C46104B96
S11313D04FF400329A660020FFF732FE05FB00F05E
S11313E00C4BDA6902F4803241F67131D9639B689F
S11313F023F440130849884201D9002C05DD05492E
S11314008B600AB10022CA6338BD43F48013F6E747
S11314100090004000000340005A620208B5FFF744
S113142083FA0021FFF7D0FF08BD000000B583B0A8
S113143000238DF80730B0F5807F00F0898011D942
S1131440B0F5D06F00F08A803AD9B0F5006F4DD076
S113145052D9B0F5086F70D10DF107010020FFF7E4
S1131460D7FC6AE052281ED8242866D324382E28B4
S113147063D8DFE800F06767676762625D622F73B5
S1131480626262626262626262627962626262473C
S11314907F6262626262626262626262626262620B
S11314A0626262626700802847D1354B1B6F03F08C
S11314B00703013B032B40D8DFE803F0362A2E3222
S11314C0B0F5A06F50D00BD9B0F5B06F30D0B0F5F7
S11314D0C06F32D10DF107010020FFF7BFFC2CE0F3
S11314E0B0F5806F2ED0B0F5906F26D10DF10701C5
S11314F00020FFF75BFC20E0B0F5E06F3AD0B0F5D8
S1131500F06F1AD10DF107010020FFF755FD14E02B
S113151005238DF8073010E003238DF807300CE025
S113152007238DF8073008E002238DF8073004E024
S11315300DF107010020FFF715FC9DF8070003B02B
S11315405DF804FB0DF107010020FFF7E7FBF4E76A
S11315500DF107010020FFF7BFFCEEE70DF10701D5
S11315600020FFF7DBFCE8E70DF107010020FFF79F
S113157099FCE2E70DF107010020FFF7F9FCDCE735
S11315800080004010B504468020FFF74FFF032879
S113159000F094804A4B4FF400225A6603F54053FE
S11315A045F60E02C3F8802003F5805202219162B1
S11315B003F5005301229A62424B9B6D13F480336E
S11315C0FAD121786278120542EA0162E17842EAAE
S11315D00142217942EA0132617942EA8112A17918
S11315E00A4338490A618A6902F00042E07942EA12
S11315F08062207A42EA0062607A42EA0042A07A7B
S113160042EA0022E07A02438A610A6A22F00D0269
S1131610617B01B108231343227B43EA82030B431A
S1131620284A1362637B002B35D1936A23F033037A
S1131630A17B43EA4113E17B43EA011343F0010335
S11316409362204B9A6D03F5804303339343F8D19F
S11316501C4B03F5805102228A621A65194B9B6D5B
S113166013F0804FFAD1174B1A6922F47002A17853
S113167042EA01521A6103F580534FF000429A6125
S1131680237C13B9104B02229A62637C83B90E4BFC
S113169001229A620CE00B4A936A23F03303A17B84
S11316A043EA4113217C43EA4103617C0B43936287
S11316B0A37C1BB1034B054AC3F8802010BD00BFB7
S11316C00090004000C0004000E00040F1A7FFFF90
S11316D0014B93F900007047CC0D002010B44378FF
S11316E04F2B28BF4F231A461C4B4FF480015966D9
S11316F003F5B8334FF4D151596203F580510224F4
S11317004C6003F5005301215960154B1B6913F418
S1131710803FFAD1037842EA0323114A5361817866
S1131720C3781B0143EA0123017943EA4103417968
S11317300B4393608179C3791B0143EA4113017A16
S113174043EA4103417A0B435360837A1BB1134646
S11317506FF4D1525A625DF8044B70470090004018
S113176000000240014B1880704700BF200A00208F
S113177008B5002903DD0121FFF726FE08BD00217D
S1131780FFF722FEFAE70000B0F5207F4AD02FD8F9
S1131790B0F5007F3BD04ED810B1B0F5C07F26D154
S11317A010B54C1EFFF73AFE00F048F8FFF7A2FA16
S11317B0214B196F21F4704141EA04311967FFF795
S11317C0A1F84FF04023D3F8843013F0100FF8D170
S11317D04FF04023D3F88410C1F38111C1F1020109
S11317E0FFF7C6FF00F032F8FFF7DEFD10BD7047CB
S11317F0B0F5607F0AD101390F4AD2F8803023F066
S1131800300343EA0111C2F8801070477047013970
S1131810094AD2F8903023F0F85343EA0161C2F840
S1131820901070470139044A136F23F4806343EA2C
S113183081211167704770470080004008B502217C
S11318404FF42070FFF7A0FF08BD000008B54FF467
S1131850C070FFF723FC054B984205D902214FF4D1
S11318602070FFF791FF08BD0121F8E780F0FA022C
S113187070B50C46B0F5807F00F0298121D9B0F510
S1131880D06F00F0A58161D9B0F5006F00F08580BC
S113189040F28F80B0F5086F40F0FE80072900F019
S11318A0B481082900F0B381032900F0AC81002140
S11318B0A04AD2F8003123F003030B43C2F80031ED
S11318C0EAE0522837D82428C0F0E68024382E28AD
S11318D000F2E280DFE810F0E500E500E500E50055
S11318E0E000E000D300E00047007C01E000E000FD
S11318F0E000E000E000E000E000E000E000E000E4
S11319009D01E000E000E000E0007400AF01E000B1
S1131910E000E000E000E000E000E000E000E000C3
S1131920E000E000E000E000E000E000E000E000B3
S1131930E000E000E500802840F0AE808B1E052B1F
S113194051D8DFE803F0968450995093B0F5A06F16
S113195000F05F811AD9B0F5B06F00F09080B0F557
S1131960C06F40F099800A2C00F20881092C80F0A5
S11319700981082C40F0088102226E49D1F84031D7
S113198023F003031343C1F8403185E0B0F5806FC1
S113199000F08780B0F5906F7ED1023C052C00F2F8
S11319A00181DFE814F00301010109010B010701C2
S11319B00501B0F5E06F00F03E81B0F5F06F6BD13A
S11319C00A2C00F2E580092C80F0E680082C40F017
S11319D0E58002225749D1F8603123F00303134311
S11319E0C1F8603158E000252E460121022000F0A4
S11319F013FAFFF713FDFFF721FFFFF77BF94D4AB9
S1131A00136F23F0070333431367FEF77BFF4FF095
S1131A104023D3F8843013F0100FF8D14FF0402353
S1131A20D3F88410C1F38111C1F10201FFF7A0FEC4
S1131A300121002000F03AFAFFF708FFFFF7B4FC99
S1131A4055BB032C28D13C4B01229A6224E03B4B2A
S1131A504FF400225A6603F540539D6AC5F34005CE
S1131A6003F5805301229A620326BEE7002504266B
S1131A70BBE700250126B8E700250226B5E7022CBE
S1131A800BD00F2C0BD101212A4AD2F8803123F03C
S1131A9003030B43C2F8803170BD0221F4E7002137
S1131AA0F2E7032C0FD0052C0FD0022C09D0002113
S1131AB0204AD2F8203123F003030B43C2F820312B
S1131AC0EAE70321F4E70221F2E70121F0E7A1F1BB
S1131AD00804082CE0D801A353F824F0011B0000EB
S1131AE0011B0000991A0000011B0000491B0000A3
S1131AF0991A0000991A0000991A0000011B0000AD
S1131B000C4B596E03F580534FF480325A660C4ADD
S1131B10136A43F00103136211F4803F03D1094BAC
S1131B204FF480325A664FF0E022136923F0040325
S1131B301361B1E70080004000E0004000900040E5
S1131B4000C0074000A00040484B596E03F5805385
S1131B504FF480325A66464A136A23F00103136233
S1131B6011F4803F03D1434B4FF480325A664FF057
S1131B70E022136943F0040313618DE70B2C05D1B4
S1131B800322FAE60122F8E60022F6E60022F4E651
S1131B900B2C05D103221DE701221BE7002219E7C4
S1131BA0002217E700210AE0022108E0032106E0F1
S1131BB0042104E0052102E0062100E001212B4A72
S1131BC0D2F8243123F007030B43C2F8243163E72E
S1131BD0083C062C05D8DFE804F0060C0C080404C5
S1131BE00A00002106E0022104E0032102E00421AE
S1131BF000E001211D4AD2F8003223F007030B4311
S1131C00C2F8003248E7012152E6032150E60221DE
S1131C104EE60F2C0BD0102C0BD10221134AD2F814
S1131C20203223F003030B43C2F8203234E70121AE
S1131C30F4E70021F2E70A2C0DD8092C0FD2082C66
S1131C400FD102220949D1F8403223F00303134390
S1131C50C1F8403220E70B2C05D10322F2E7012220
S1131C60F0E70022EEE70022ECE700BF008000402E
S1131C7000C0074000A00040EFF3108072B6704728
S1131C8000B962B67047EFF31180302383F31188F3
S1131C90704780F3118870474209064B53F822308D
S1131CA000F01F0023FA00F080F0010000F00100B2
S1131CB0704700BF00E100E090B9254B00221A6094
S1131CC0244B4FF400325A6603F598335B68012BBA
S1131CD000D07047204BD3F800211D4B1A60704789
S1131CE01B4B1B68002BF4D01C4A5268012AF0D00D
S1131CF010B5194AC2F800318020FFF797FB052878
S1131D0003D0174B01225A6010BD4FF4C070FFF787
S1131D1097F90446012815D0104B03F5005207210A
S1131D20116103F5805301225A600C4B1B6913F0B7
S1131D30010FFAD0012CE7D101214FF4C070FFF755
S1131D4023FDE1E702214FF4C070FFF71DFDE3E737
S1131D50D00D0020009000400080004000C00140F1
S1131D6000D00140704770477047000038B5054601
S1131D70B8B9114A136943F00403136101F03AFC42
S1131D80FFF7F1FFFFF778FF044607F029FB204631
S1131D90FFF776FFFFF7E8FF01F042FC2DB945B1EC
S1131DA038BD0020FFF788FFE3E70120FFF784FF39
S1131DB0F5E7FEF7A7FDF3E700ED00E038B50546CB
S1131DC098B90F4A136943F00403136101F012FC3C
S1131DD0FFF752FF044607F003FB2046FFF750FFCE
S1131DE001F01EFC2DB945B138BD0020FFF764FF9A
S1131DF0E7E70120FFF760FFF5E7FEF783FDF3E770
S1131E0000ED00E008B50020FFF756FF08BD08B557
S1131E100120FFF751FF08BDF8B504464FF04023F9
S1131E20D3F8843013F0100FF8D14FF04023D3F8D7
S1131E308430C3F381139C4231D0FEF749FD06463A
S1131E40012C12D0FFF718FF05464FF0402707F585
S1131E5000534FF000725A662046FFF783FF621E5C
S1131E604FF4806393403B6707E00121FFF780FC58
S1131E70E8E74FF04023D3F884304FF040235B6E03
S1131E8013F0007F06D14FF04023D3F8843013F0D1
S1131E90200FEED02846FFF7F3FE022C00D0F8BD49
S1131EA000213046FFF764FCF9E7000010B50C464A
S1131EB0034650B1094A127812B1094A934208D92B
S1131EC021460220FFF7A8FF10BDFEF701FD0346DF
S1131ED0F0E721460120FFF79FFFF5E7D40D00202E
S1131EE0005A620208B50278034B1A7001210020DF
S1131EF0FFF7DCFF08BD00BFD40D00204FF04022E7
S1131F00536F23F44073417843EA012353677047C6
S1131F104FF04022D36E23F0300301790B43D36694
S1131F20704700001B4B4FF000425A6603F50B2329
S1131F3003F58052012151605A6C0A404AF6CD31B2
S1131F40196498B99B6813F0010F07D0124B012153
S1131F509960124BDB6A13F0010FFAD00E4B01218A
S1131F60596012B10D4B0E4A1A6470470B4BDB6A71
S1131F7013F0080FFAD1094B03F5005120204862F1
S1131F8003F5805301219960044B5B6A13F0200F21
S1131F90FAD0E6E7009000400060094000400940A4
S1131FA03254FFFF08B50020FFF7BCFF012008BD35
S1131FB02DE9F84F0C4615461E469DF828809DF8DD
S1131FC02C70072A44D84FEA8209032303FA09FA3A
S1131FD000FA09F9FFF750FE384AD2F8001489EAEA
S1131FE0010303EA0A034B40C2F80034FFF748FE3A
S1131FF04FF0000A072D43D8A9004FF0030909FA4E
S113200001F904F003048C40FFF736FE2B4BD3F8A0
S11320100824544004EA09045440C3F80844FFF770
S11320202FFE002E44D0264A0123AB401360B8F1A2
S1132030000F3FD0234A1360012202FA05F5224A19
S1132040C2F82054C7B3A2F6DC321360BDE8F88F9F
S1132050A2F1080A4FEA8A09032303FA09FB00FAEA
S113206009F9FFF709FE154AD2F8041489EA0103B5
S113207003EA0B034B40C2F80434FFF701FEB9E74F
S11320804FEA8A0A4FF0030909FA0AF904F0030433
S113209004FA0AF4FFF7F0FD084BD3F80C2454407B
S11320A004EA09045440C3F80C44FFF7E9FDB8E717
S11320B0064AB9E7064ABEE7064AC6E700C0034037
S11320C010D4034014D4034000E0034010E4034060
S11320D014E4034024E4034070B4144662B19BB397
S11320E001258D4000EB4002120102F1804202F50D
S11320F0703241F210069551072932D82C4D00EB6D
S1132100400205EB021252688E004FF00F0C0CFADD
S113211006FC22EA0C0204FA06F6324300EB4006FF
S113212005EB06156A606CB9A3B3012303FA01F148
S113213000EB4000000100F1804000F5703041F2F6
S11321401003C15070BC704701258D4000EB400264
S1132150120102F1804202F5703242F210069551EA
S1132160CAE7134E00EB400206EB0212D568A1F158
S1132170080292004FF00F0C0CFA02FC25EA0C0C3A
S113218004FA02F24CEA020200EB400506EB0516E3
S1132190F260C8E7012303FA01F100EB40000001FB
S11321A000F1804000F5703042F21003C150C9E7DD
S11321B000C003400B784A7843EA8203CA7843EAB2
S11321C042130A7943EA021300EB4002920002F13F
S11321D0904213630B78012B00D070478A78024B2E
S11321E043F82020F9E700BFE88003404FF0904314
S11321F05B680BB9002837D04FF090435B6843B15C
S11322004FF090435B6823B14FF090439B6A002BDF
S1132210F6D180B1154B01225A604FF090435B68B0
S113222023B14FF090439B6A002BF6D14FF09043BB
S11322300122DA6070474FF090435B6823B14FF09E
S113224090439B6A002BF6D14FF090430222DA6050
S11322504FF090435B6823B14FF090439B6A002B8F
S1132260F6D1034B01225A60704700BF00100048AA
S1132270002000484FF090435B6843B14FF0904317
S11322805B6823B14FF090439B6A002BF6D1154B4A
S113229001225A604378E3B113468278DAB102220C
S11322A01343C278CAB104221343027943EA0213E6
S11322B0427943EAC2034FF09042936002F58052A0
S11322C001235360037853B101224FF09043DA6045
S11322D070470023E1E70022E2E70022E4E702225C
S11322E0F3E700BF00200048074B4FF480325A66E2
S11322F003F5E6235B69C3F38512827003F03F02A2
S113230042701B0B03707047009000400A4B9842C8
S113231007D00A4B984209D0C36D43F08003C365CC
S11323207047A3F51033C3F88C11F5E7A3F52033F8
S1132330C3F89C11F0E700BF00C005400000064050
S113234038B5054614460B4631B1013B6400B3FB76
S1132350F4F31B02EB6138BD4FF42070FEF79EFED0
S11323600346F2E700F5805301225A6040F6AA635F
S1132370436100238360C36541F20502C2600361C7
S1132380C361C36400F500520C49916483650C4B2E
S1132390984203D003F58043984201D1002303659A
S11323A0074B984203D003F58043984201D10023A0
S11323B0436500F50050012343607047FFFF0100AF
S11323C000C0054038B505460C46FFF7CBFF05F5C0
S11323D0805301225A60AA68238A43F00103A17B37
S11323E000292DD04FF480610B431343AB60AB68DD
S11323F0227D3AB34FF000521343AB60A37C1BBB66
S1132400237B43F48053EB60A26861682846FFF79E
S113241097FF637B0BB110236B61637D1BB1AB68CA
S113242043F48033AB60A37D1B0703F0E043E27DFC
S1132430120502F4E0021343AB6523786B6138BDE7
S11324400021D1E70022D7E7E17C2846FFF75EFFB1
S1132450D6E7836913F0400FFBD0C163836913F09F
S1132460200FFBD0406AC0B27047000038B5044664
S113247001F0E8FF054DA446BCE80F000FC59CE839
S1132480030085E80300002038BD00BFD80D0020FC
S113249047F6FF739A4276D0022976D830B53D4B81
S11324A003EBC100857825EAE575284613F8313039
S11324B0012B27D0374B03EBC1035C68002C66D09B
S11324C0B4F90050954204DBB4F90250954200DCA3
S11324D01546A388FF2B29D04FF0280EC8230022CD
S11324E0AC465B1B93FBFEF313441BB2294A02EB7D
S11324F0C10191F801E00EF1FF3212B29A422BDBD6
S11325001A4629E0234B03EBC103DB785B1B01E094
S1132510013B1BB23BB11F4C04EBC104606830F9B2
S113252013009042F4DC2B44D8B22BE0B4F906300B
S1132530B4F908E00122D3E703F5FA731649A1FBC5
S113254003139B09013212B2154672450FDA04EBEC
S1132550C201898899420AD304EBC2018B68B1F99C
S1132560061001FB0C33002BE6DA0023E4E76A1EB5
S113257004EBC20292889A4200D31A46824200D3E4
S11325801046C0B230BDFF207047002070470020C5
S1132590F8E700BFD80D0020D34D6210022970D88F
S11325A03B4B13F83130012B22D010B5384B03EBE1
S11325B0C1035C68002C66D014F1040C65D0344B64
S11325C003EBC1039B7893422CD2314B03EBC10341
S11325D0DB78934229D92E4B03EBC1014B7803F1ED
S11325E0FF3E5FFA8EFEA188FF2921D0002325E05B
S11325F0274B03EBC103DB78934200D21A462448ED
S113260000EBC10080780028A8BF121AD2B21B1AAE
S11326109A4200DD00221E4B03EBC1014B6833F9E3
S113262012007047B4F9020010BDB4F90000FBE7D2
S1132630023B5FFA83FED9E70133DBB2734505D26F
S1132640591C3CF8310091B28842F5D24FF47A71AA
S113265001FB02F20CEBC30CDCF80430D31ABCF916
S1132660022002EBD27103EB610393FBF2F3B4F9A2
S113267000009842D8DBB4F902009842D4DC18B2C6
S1132680D2E7044870470348CEE70248CCE700BFCE
S1132690D80D00200080FFFF08B50348FFF7E6FED1
S11326A0012001F019FF08BD7098000070B582B0D8
S11326B005460C4601F012FF08B102B070BD694630
S11326C0284601F0C1FE00B1FEE762680F4B9A4252
S11326D00ED80F4C9DF8003022789342EDD0032B96
S11326E008D164262146284601F096FE38B1FEE75B
S11326F0084CEFE7284601F0D3FE0646F2E73146E0
S1132700284601F0A5FE0028D7D0FEE7FFC99A3B72
S11327102C0A0020240A002008B5002101F016FC30
S1132720002008BD30B589B005460C46002301934E
S113273002930393049305930693079364220192EF
S1132740962302930392049302F03FF8611E042936
S113275029D8DFE801F0030C11171D00284602F008
S11327604FF80446CCB104BB204609B030BD28461E
S113277002F04CF80446F5E70021284602F04CF834
S11327800446EFE70221284602F046F80446E9E74A
S1132790284602F02FF80446E4E701A9284601F090
S11327A0EBFB0446DFE70124DDE7284602F01EF8D0
S11327B0DAE770B58CB004460D462C22002101A83E
S11327C006F0F5FD01238DF808304FF42872ADF8BA
S11327D00A2002228DF80C208DF80D308DF80E2081
S11327E08DF80F3064220492B62105910692C0221E
S11327F007920B228DF82C208DF82D3001A920464C
S113280001F06AFF064650B9063D032D1DD8DFE8E6
S113281005F0020D1217204601F09CFF0646B6B1E2
S1132820204601F0AFFF30460CB070BD204601F0E9
S113283097FF0646F3E7204601F09EFF0646EEE7C3
S1132840204601F093FF0646E9E70126E8E7082160
S1132850204601F07BFBE6E708B5052907D84BB213
S113286063B911B9FFF758FF00E0012008BD8B1FC1
S1132870DBB2032B05D8FFF79CFFF7E7FFF752FF06
S1132880F4E70120F2E7000000B587B000230193CC
S1132890029303930493059302238DF804300A4AA8
S11328A002928DF80D3004228DF80E208DF813302D
S11328B005238DF814300DEB02014FF0FF3001F0C9
S11328C0BFFE07B05DF804FB006A180008B50021DC
S11328D04FF0FF3001F0B7FE08BD08B5FFF762FB0B
S11328E0002008BD10B582B04FF04022536F43F072
S11328F001035367002400948DF804406846FFF7F1
S113290007FB204602B010BD30B587B001AC1B4DAB
S11329100FCD0FC42B6824F8023B1B0C2370184BFB
S1132920D3F84C3113F4002F10D1154BD3F8504188
S1132930E4B2B4F1FF3F13D08DF80E40FEF7C8FEA9
S113294024180FD4FF2C0EDDFF240CE04FF0FF34CD
S11329500C4B1B884FF6FF729342EAD01C46E8E703
S11329607824E9E700248DF80D400748FDF7E6FFD9
S113297001A8FEF707FE002007B030BDF498000060
S11329800080E00F0001E00F00F0490200B585B0BF
S11329900A4A01AB07CA03C323F8022B120C1A70AC
S11329A025238DF8053001A8FEF798FE6420FEF774
S11329B0D9FE002005B05DF804FB00BF08990000B3
S11329C06FF0040308E003F1604202F56142502114
S11329D082F8001301335BB23F2B08DC002BF2DAE0
S11329E003F00F01034A0A4450211176F2E7002054
S11329F0704700BFFCEC00E008B500F087F808BDA4
S1132A0010B500F08FFF044608B1204610BD01F058
S1132A1051F84FF4167100FB01F101F5742101F234
S1132A203F210A4BA3FB0131890C094B1960002398
S1132A3008E0084A42F82310074802680A44026082
S1132A400133DBB2092BF4D9DFE700BF83DE1B437C
S1132A502C0E0020FC0D0020F80D00207047000013
S1132A6008B5044B01221A7001F018F8024B1860E3
S1132A7008BD00BFF40D0020280E0020184B1B7861
S1132A8003B9704770B501F009F8164B1B68C01AFA
S1132A90154B186000B90120134B1860134C2378B0
S1132AA0134D55F82320111A124E3268521A32600F
S1132AB045F8230009321049A1FB0202D2080F484D
S1132AC002600133DBB22370A1FB0312D20802EBD4
S1132AD08202A3EB42032370014B00221A7070BDE3
S1132AE0F40D0020280E0020F00D0020240E0020FC
S1132AF0FC0D0020F80D0020CDCCCCCC2C0E0020F9
S1132B00014B1868704700BF2C0E00200B4920238E
S1132B1081F82C330A4B4FF400225A6603F54053D4
S1132B2003F50050074A426702674FF48050C1F82A
S1132B308401486003445A67704700BF00E100E025
S1132B4000900040010000A0024603E00023184664
S1132B5063B95AB1064B9B6D13F0010FF6D0054BC8
S1132B601B780BB10023F2E70123F0E7704700BFA5
S1132B7000C00040440E00202DE9F0418F4B1C6F33
S1132B809E6A06F002069D6A05F0010514F0010331
S1132B905FD08B4A13678B4B1B78002B52D0894B29
S1132BA000221A70884B1B78012B45D8834B03F500
S1132BB000520121916203F5805302229A627F4BF5
S1132BC09B6D13F4803FFAD17C4A536B23F47063FA
S1132BD07E4909680B435363936923F47F0323F409
S1132BE07F437B4909680B437A4909680B43936126
S1132BF0136923F47F6323F00F03774909680B43B8
S1132C00764909680B431361936923F0FF03744900
S1132C1009680B4393613EB9694B02229A623DB144
S1132C20704B01229A6214E06E4B02229A62F6E71C
S1132C30634B01229A620CE0FFF710FF6A4B0122FA
S1132C401A7006E0FFF71AFF00F0DCFB5E4B00226F
S1132C501A7014F0005278D0584B03F5005CCCF88D
S1132C6070204FF0010E574A82F800E056490A7866
S1132C7072440A705A6B02F470605449086099698E
S1132C8001F47F4152480160986900F47F00514F7C
S1132C9038609F69FFB2DFF84881C8F800701F6987
S1132CA007F47C67DFF83081C8F800701F6907F00B
S1132CB03F07DFF82881C8F80070CCF828E003F556
S1132CC0805302279F624FF000479F623B4B9B6DEE
S1132CD013F4803FFAD1394B03F500574FF0004C01
S1132CE0C7F828C022F4706242F400725A63B1F546
S1132CF0C84F02D8B0F5C80F0CD9304A936923F4F1
S1132D007F0323F47F433949096843EA012343EAF3
S1132D100143936129490B6923F47F6323F00F0373
S1132D20334A1268900843EA920343EA80130B6122
S1132D308B6923F0FF031A438A6156B9204B0222A0
S1132D409A6255B1274B01229A62002C09DBBDE837
S1132D50F081244B02229A62F3E7194B01229A6212
S1132D60F3E704F00044164B1C671F4B1B78002B41
S1132D70EDD0124B03F500520121916203F580530B
S1132D8002229A620D4B9B6D13F4803FFAD1154BCE
S1132D904FF000429A6146B903F5805302229A62C9
S1132DA03DB1104B01229A62D1E70E4B02229A6286
S1132DB0F6E7034B01229A62C9E700BF00C0004056
S1132DC000E00040440E0020450E0020480E002084
S1132DD03C0E0020400E0020340E0020380E00204F
S1132DE0300E002000D00040460E0020380A00209B
S1132DF0340A002008B5FFF7BFFE08BD70B4BFF366
S1132E004F8FBFF36F8F294B5A6A22F480325A6274
S1132E10D3F8942022F00102C3F89420244B2548CF
S1132E20834240D020F01F012039204CD4F8C050F8
S1132E3085F0A002D2B26A40C4F8C020B1F1005FAC
S1132E400CD31D4D2A6841F00101C4F898201B4E93
S1132E50C4F89C60C4F8A01001322A60834210D0E8
S1132E601F3323F01F0343F00303134802680F4981
S1132E70C1F89820C1F89C30114BC1F8A030013240
S1132E800260BFF34F8FBFF36F8F084B0522C3F867
S1132E9094205A6A42F480325A62BFF34F8FBFF3D0
S1132EA06F8F70BC70474FF08041BEE700ED00E0CB
S1132EB0080B0020DC0A00204C0E00200300002038
S1132EC0E1FFFF3FBFF34F8F0549CA6802F4E06298
S1132ED0044B1343CB60BFF34F8F00BFFDE700BF2C
S1132EE000ED00E00400FA0508B5FFF7EBFF08BDAC
S1132EF00120012805D8431E034AD35C0BB90130D5
S1132F00F7E7C0B2704700BF7C0E0020F8B5064654
S1132F100F46032903D8DFE801F00A040608002558
S1132F2006E0042504E0102502E0402500E0012528
S1132F30032E05D8DFE806F002070A0D45F0020566
S1132F400B4B1C6809E045F00805F9E745F020053E
S1132F50F6E745F08005F3E7246844B163681A682E
S1132F602A42F9D05B68394630469847F4E7F8BD01
S1132F70780E0020134B1B7813B310B5124B1B783B
S1132F805BB9002000F0A4FB68B9104B01221A7051
S1132F900F4B1A780F4B1A7010BD00F073FB0A4BDD
S1132FA000221A70EDE700F09FFB064B00221A7016
S1132FB0074C01212078FFF7A9FF01232370EBE7D9
S1132FC0704700BF750E0020710E0020740E0020A3
S1132FD0680E0020880E002008B50B4B1B780246B3
S1132FE060B101210B4408490B7032B1074B1B78C7
S1132FF0012B02D9064B1B7813B108BDFF21F1E761
S1133000FFF7B8FFF9E700BF7C0E0020680E002030
S1133010740E002010B5FEF72FFE0446054B1B78F6
S11330202BB9FFF7A7FF2046FEF72AFE10BDFEF7D7
S113303027FEFBE7700E002010B5FEF71DFE0446C8
S1133040164B1B78D3B1164B1B782BB9144B0122AA
S11330501A70144B00221A70134B1B7893B9204634
S1133060FEF70EFE012000F033FBFEF705FE0446DA
S11330700B4B1B7863B9094B00221A702046FEF7EC
S1133080FFFD10BD00F0FEFA074B00221A70E6E7C0
S113309000F02AFB024B00221A70ECE7750E0020A8
S11330A0700E0020740E0020710E002010B584B044
S11330B0A0B1831EDBB2012B13D803A9002000F0BA
S11330C0B7FC70B9184B1B68039A9A4212D80120B6
S11330D0FFF782FF154B01221A7002E0134B1B7895
S11330E00BB904B010BD0020FFF776FF0F4B002290
S11330F01A70F6E70E4B1C6800F032FB204403996B
S1133100884206D30120FFF767FF084B01221A709B
S1133110E7E70223019300230093064A091A0648AD
S113312000F06CFCDDE700BF6C0E0020800E002078
S11331308C0E002015300000500E002038B5FEF72C
S11331409BFD0446114B1B786BB900F0EBFB054665
S1133150C0B900F0AFFC0E4B18600E48FDF712FC2E
S11331600D4B00221A6000F09FF900F0F3FA0B4BAC
S11331701860064B01221A702046FEF781FD0025D7
S1133180284638BD2046FEF77BFDF9E7720E002085
S1133190840E0020780E00208C0E00206C0E00207F
S11331A038B50138144B1B5C0A46A1B101210B440C
S11331B011490B5472B1114B1D78012D0AD9FFF737
S11331C097FE0446012808D9032D09D00B4B187823
S11331D0A0420AD138BDFF21E9E7FFF72DFFF5E74B
S11331E00228F3D100F0CEFAF0E72146FFF78EFE75
S11331F0024B1C70EEE700BF7C0E0020680E00201E
S113320010B5FEF739FD0446FFF7B4FE2046FEF77D
S113321037FD10BD014B1868704700BF8C0E0020AD
S113322038B5FEF729FD0546094B1B78012B0AD951
S1133230FFF7F0FF044600F093FA04442846FEF733
S11332401FFD204638BDFEF71BFD0024F9E700BF33
S1133250680E0020064B1B6803FB00F000F5742089
S113326000F23F20034BA3FB0030800C704700BFEB
S1133270840E002083DE1B4338B5FEF7FDFC0546B3
S1133280FDF795F9002834D12846FEF7F9FC96E0BD
S11332900020FFF7A1FE4A4B00221A702DE000F037
S11332A0A5F937E02146FFF731FE3EE0454B002209
S11332B01A7001F0F1FA41E0434B01221A70434BBA
S11332C0187800F02DFA424B1B781BB1414B1A7849
S11332D03E4B1A7000E000BF2846FEF7D1FCFEF713
S11332E0CBFC05463C4800F059FBFDF764F9002887
S11332F034D0334B1B78002BCAD1FFF7F9FDFFF70D
S1133300D5FEFFF7F5FD0446012803D92E4B1B78A3
S1133310002BC4D02D4B1878A04208D0294B002292
S11333201A702B4B1B78002BBCD0284B1C70254BE0
S11333301B781BB1254B1B78022BB7D0012CBED9AF
S1133340214B1B78002BBAD1244B1B78002BB3D113
S113335000F092F9224B01221A70ADE7194B0022BA
S11333601A70194B1B78EBB1194B1A701C4B1B7854
S11333706BB9002000F0ACF978B9012000F0D0F965
S11333802846FEF77DFCFEF777FC0546F1E700F0E2
S113339079F9134B00221A70EBE700F0A5F90A4BF8
S11333A000221A700020FFF781FE084C00212078CB
S11333B0FFF7ACFD002323702846FEF761FC38BDFF
S11333C0800E00207E0E0020750E0020680E002066
S11333D0740E0020880E0020500E00207F0E002066
S11333E0710E002010B5FEF747FC054B1C78002237
S11333F01A70FEF745FC00F0F7FB2043C0B210BD85
S1133400730E002008B50C4B1B7813B10B4B1B78C3
S113341003B908BD00F068F90121094B1878FFF7DA
S113342075FD0123044A1370002204490A700549FA
S11334300A70054A1370ECE7680E0020740E002031
S1133440880E0020750E0020730E0020144B1B788C
S1133450834223D010B582B0044600238DF8043093
S113346002238DF8053010B900238DF8053001A82A
S1133470FEF744FD54B14020FFF7ECFE094A1368FF
S11334801B1A1360064B1C7002B010BD4020FFF7DE
S1133490E1FE044A136803441360F3E7704700BF76
S11334A03C0A0020980E002010B582B000248DF84C
S11334B0044001A8FEF716FD2046FFF7C7FF454B61
S11334C0196F01F00701444A1160D3F8202102F07A
S11334D0030CD3F8240100F0070003F580534FF4E4
S11334E000225A664FF400325A6603F598339A69FB
S11334F0C2F34002394B1A7003292ED0BCF1020FDB
S113350029D0002336490B70022808BF43F0010379
S11335100B705AB153B92F49D1F8001101F00301CE
S1133520012908BF43F001032D490B7052B1294B07
S1133530D3F8003103F00303022B42D0032B44D011
S1133540012B0CD06420FFF785FE264A1368034440
S1133550136002B010BD0123D4E70123D2E7FDF7C5
S1133560E7F90246002AEDD01F4BDB68C3F30B03D7
S1133570013303EB8303D80E5901C91A60F100002B
S1133580400240EAD1504902C91840F100044FEA10
S1133590841C4CEA916C8801411A6CEB0400CB1832
S11335A040F10001501E18184FF0000341F10001D2
S11335B005F028FDFFF74EFE0A4A13680344136022
S11335C0C0E7FDF7D9F90246CCE7FDF7C9F9024691
S11335D0C8E700BF00800040900E0020940E002039
S11335E0970E0020980E002000C0014008B5FEF799
S11335F009FC08BD08B5084B1B7803B908BD064B88
S113360000221A70054A136F23F0070343F00103E5
S11336101367FDF777F9F1E7950E0020008000406D
S1133620114B1B7803B9704710B5022000F09CFBC6
S113363000B910BD00F02CFA0028FAD00B4B9B6D9A
S113364013F4803F04D0094BDB6D13F0020F07D154
S11336500124074B1C70FFF703FA064B9C62E8E752
S1133660044B01229A62E4E7970E002000C0004058
S1133670960E002000D00040014B01221A707047C2
S1133680950E002008B50E4B1B78A3B10D4B1B788B
S113369073B90D4B9B6D13F4803F04D00A4BDB6D63
S11336A013F0020F08D1FFF7DBF9084B01229A62ED
S11336B0044B00221A7008BD044B01229A62FAE7F7
S11336C0970E0020960E002000C0004000D000405D
S11336D008B5044B1B780BB9012008BDFFF734FA79
S11336E0FBE700BF970E002008B5FEF790FB084AE1
S11336F0136F23F00703074909680B431367064B4D
S11337001B7813B1054B01229A62FDF7FBF808BD43
S113371000800040900E0020970E002000E0004042
S113372008B502280BD003280DD0012800D008BD0D
S1133730074A136923F00403136130BFF7E700203D
S1133740FEF714FBF3E70020FEF738FBEFE700BFBA
S113375000ED00E008B54FF4C870FFF77BFD08BD2D
S113376008B5064B1B7823B90020054B1B68184489
S113377008BDFFF7C5F900EBD000F6E7970E00206F
S1133780980E0020704700000E4B1B68002201E0D9
S11337901A469B680BB18342FAD183420ED14AB1D7
S11337A08368936083685BB141695A690A445A61CA
S11337B0002070478268034B1A60F3E702207047C9
S11337C000207047B40E00200A4B1B6800220A49EF
S11337D00A7005E0084B01221A70704759690A44BF
S11337E0012A06D8D98811F0020FF3D19B68002B67
S11337F0F4D17047B40E0020A80E002008B500F0E4
S113380045FA0C4B1B6893B10B4A1268A0EB020CEF
S11338105969614505D3121A0A445A61064B186066
S113382008BD401A044A106000225A61F8E7024BAE
S11338301860F5E7B40E0020A00E002070B5054610
S11338400C46C3882BB16C61134B1B68FBB1002180
S11338500CE0FFF7E5FC06468442F4D2FFF7D0FC07
S11338603446F0E7A41A6C6119469B6823B15A697F
S1133870A242F7D9002AF5D031B18D60AB6013B103
S11338805A69121B5A6170BD034A1560F6E7024B70
S11338901D600023AB60F6E7B40E002010B5074BA3
S11338A01B685C69064B1B681C44022000F0FCF991
S11338B0204600F00BFAFFF787FF10BDB40E00207E
S11338C0A00E002070B504461546049A9DF8140015
S11338D0207122600020A0602561E360BDF818001B
S11338E0E080B9B9616113B11146204698477DB1B2
S11338F0FEF7C9F90646FFF781FF29462046FFF780
S11339009DFF074B1B68A34206D03046FEF7C1F962
S1133910002070BD0D46EBE7FFF7C0FFF5E700BFE1
S1133920B40E002010B5FEF7AEF90446144B1B7814
S1133930DBB9144A1360144A1360144A138000F06C
S11339405FF9012000F0B0F900F03CFA0246104B98
S1133950186078B100230F4840F2E73105F052FBBC
S11339600D4B1860064B01221A702046FEF791F9A0
S1133970002010BD2046FEF78CF92320F9E700BF94
S11339809C0E0020B40E0020A00E0020AA0E0020E1
S1133990B00E002018FCFFFFA40E002070B540B349
S11339A00546FEF770F90446FFF728FF124B1B6823
S11339B0AB420CD000262846FFF7E6FE054640B988
S11339C05EB10D4B1B6843B1FFF768FF08E00126A9
S11339D0F1E72046FEF75DF905E0074B1B6823B1CC
S11339E02046FEF756F9284670BD022000F09EF9E5
S11339F0F6E72225F7E700BFB40E0020B0B1F0B51A
S1133A0085B00F4614461D460646FFF7C7FFBDF8AE
S1133A102C3002939DF82830019300952346002210
S1133A2039463046FFF74EFF05B0F0BD22207047FF
S1133A30F8B505460F46FEF726F90646124B1B68F5
S1133A40002407E000F022F9104B1B681B1A1C44E9
S1133A500EE09B6893B15A691444DA88AA42F8D1FB
S1133A6000F014F9094B1B68C01AA042EAD30024E1
S1133A703C603046FEF70DF9002003E03046FEF7C7
S1133A8008F91B20F8BD00BFB40E0020A00E0020D2
S1133A90014B1878704700BFA80E002038B5FEF718
S1133AA0F2F8054600F0F2F804462846FEF7F1F86D
S1133AB0204638BD014B1868704700BFB00E002087
S1133AC02DE9F843044610F0010F04D114F0020F5D
S1133AD010D1BDE8F883404A13889BB201339BB2EE
S1133AE01380FFF78BFE3D4B1B68002BEED0FFF7D6
S1133AF0D5FEEBE700F0CAF80546394B1E68861B75
S1133B00FEF7C1F807464FF0000842462FE0521A6C
S1133B109B684BB15969914206D894F804C018794E
S1133B208445F4D91C46F2E73846FEF7B2F86369D7
S1133B30F61A00236361FEF7A6F807462046FFF74E
S1133B4023FE3846FEF7A5F82369DBB9E36813B111
S1133B5021682046984708F1010800F097F881464B
S1133B60451B2E44FEF78FF8074622464D461B4B55
S1133B701C6894B16369B3420FD8194B1D60234686
S1133B803246C6E7FEF77FF8074621692046FFF76D
S1133B9055FE3846FEF77DF8D8E7124B0021197020
S1133BA0B8F1010F0BD09CB163699B1B63610C4B93
S1133BB01D60FFF773FE3846FEF76BF889E7002AAD
S1133BC0F1D0D388022BEED1064B01221A70EAE71A
S1133BD0022000F0ABF8EEE7AA0E0020B40E00209D
S1133BE0A00E0020AC0E002010B5FEF74CF8034BDD
S1133BF01C78FEF74EF8204610BD00BFAC0E002026
S1133C0010B584B01F4B93E803000290ADF80C107C
S1133C10083393E8030000908DF8041001213E203E
S1133C20FDF7EEF900248DF808408DF80C4002A849
S1133C30FEF720FB8DF8004069460120FEF7BAFA32
S1133C404FF090439A6922F47F7222F003029A6142
S1133C5003F5005340F2FF325A614FF090439B6AE0
S1133C6013F0080FF9D14FF0904300221A6201209B
S1133C70FEF7BCFA044B4FF48052C3F880211A605B
S1133C8004B010BD1499000000E100E04FF090432F
S1133C909B6A13F0080FF9D14FF09043186A7047EC
S1133CA04FF09043186C704710F0010F0BD10023B4
S1133CB010F0020F01D043F040034FF0904291699D
S1133CC00B43936170470123F2E7000038B50446C3
S1133CD0FFF7DCFF0546FFF7E3FF4FF090435B6916
S1133CE013F0400F04D1431B032B01D885420DD19F
S1133CF0631B022B00D8EC1CB4F1FF3F38BF013C1E
S1133D004FF090431C640220FFF7CEFF064B1B7854
S1133D1043B14FF09042D36B43F00203D363024BA1
S1133D2000221A7038BD00BF3D0A002010F0010FB8
S1133D3015D1002110F0020F0AD041F04001094BC7
S1133D4001221A704FF09042D36B23F00303D36324
S1133D504FF09042936923EA010393617047012174
S1133D60E8E700BF3D0A00204FF090435B6901285B
S1133D7004D0022805D1C3F38010704703F001007A
S1133D80704700207047000010B5FDF77CFF044623
S1133D904FF090435B6913F0010F0FD1002013F033
S1133DA0400F01D040F0020003F05103044A536174
S1133DB0FFF786FE2046FDF76CFF10BD0120EEE7FD
S1133DC00020004808B53E20FDF768F908BD08B595
S1133DD0FCF796FBFCF7C8FBFCF7CEFBFCF7D4FB27
S1133DE0FCF7DCFB08BD08B5FCF7D9FBFCF7D8FBF6
S1133DF0FCF7D7FBFCF7D6FB08BD000010B5044662
S1133E00FCF780FD03460B48A0FB03239B090A4AE9
S1133E10B2FBF3F34FF47A7000FB04F4B4FBF3F356
S1133E200648A0FB0320022B00D810BD400800F078
S1133E3007F8FAE7D34D621040420F00ABAAAAAAD2
S1133E40013800D0FCE7704737B50446019178B1DA
S1133E500A4D2B787BB90A4B186000F063F82046B2
S1133E60019900F050F8031E18BF012304462B707B
S1133E70204603B030BD0024FAE700BFBC0E00208A
S1133E80B80E0020014B1878704700BFBC0E00200C
S1133E9010B500B10C3001F08FFD044618B9034B86
S1133EA001215B689847204610BD00BF480A0020E6
S1133EB037B50D46044600B10C344FF4803120462A
S1133EC0019200F028FB29462046019A03B0BDE880
S1133ED0304002F079B87047431E033306D8044BD0
S1133EE0984228BF1846642838BF6420704700BF32
S1133EF040420F00431E012B03D9031F584258416F
S1133F0070470120704738B504460D460021FCF780
S1133F10CFFA2946204601F04BFB00280CBF20466F
S1133F20002038BD10B5044600F076FE44B1054AC1
S1133F30D4F88830002B08BF1346034A136010BD21
S1133F40E36FFFDED73E0000400A002000B10C30D2
S1133F5000F0E0BE10B50C4600F070FE1CB100F09D
S1133F60C3FE0128FBD1BDE81040024B0021032011
S1133F705B681847480A002008B502460868FFF73E
S1133F80ABFF08604868FFF7A7FF48608868FFF741
S1133F90A3FF8860C868FFF79FFF0B69C860581CBF
S1133FA003D00C48834228BF03460B614B69581C5D
S1133FB003D00848834228BF034688694B61FFF752
S1133FC08BFF886102B10C321046BDE8084001F055
S1133FD08FBB00BF40420F002DE9F04F436F804676
S1133FE00D4683B013B103898B4276D0D8F8707034
S1133FF0002F44D0BB68002B41D0F96800293ED083
S1134000D8F884200192002A3DD04FF00009A8F18D
S11340100C0B4C464E4600E0BB68C4EBC40203EBF9
S1134020820ABAF80E200134AA4215D8BAF8102030
S1134030AA4211D3BAF91220B8F93411914254DDCD
S1134040584698F8C010FEF723FA98F805208146E0
S11340508242564603D9F9688C42DDD356B3002315
S1134060324640461946019CA0470020A8F8085053
S1134070C8F8746088F8C99003B0BDE8F08F0320D5
S113408003B0BDE8F08F914647F6FF7A1446A8F1D5
S11340900C0BC4EBC40603EB8606F389AB4217D8BA
S11340A0338AAB4214D3B6F91220524504D14FF0EF
S11340B0FF09DAE70120DFE7584698F8C010FEF759
S11340C0E7F998F8053081468342CED93246F9683B
S11340D00134A14205D9BB68DBE7002003B0BDE889
S11340E0F08F002AE6D01646BFE75646B7E700BF72
S11340F02DE9F04FDFF8B0B185B0044616461F46EF
S1134100009101F027FDBBF8005001F043FD0028A9
S11341107CD1DFF89881636FD8F8002093426AD08D
S113412000F0E2FD01284FD1DFF884A1DAF8003075
S1134130002B5BD0226F934270D0D4F874C01868FF
S1134140116810B1884200F08380DCF8002020461A
S113415001F09BF90023012605460193D4F88490CD
S11341608DF80F70B9F1000F67D000222046114678
S11341700DF10F03C84785B9236FCAF80030636F88
S1134180C8F80030019B0BB9002E3AD0009B2046A2
S1134190CBF8003000F0B4FF05468EB1B5FA85F0D7
S11341A040F2A3223321400900F034FA3946204674
S11341B001F078F93A4B616F1B68A4F10C00984741
S11341C0284605B0BDE8F08F012000F037FD00F06F
S11341D08BFD0128FBD1334BDFF8D4A05B680021B1
S11341E003209847DAF80030002BA3D1236FD4F8CA
S11341F074C01968A9E7002B92D0009B9D428FD10F
S113420087BB0025284605B0BDE8F08F0023DFF802
S11342109C80C8F8003001F0B5FC7CE7D8F80010A9
S1134220D4F874C000298AD0614588D1009BEB1A68
S113423018BF01230025019390E7617994F8C930F0
S11342403A46994228BF1946204600F0E6FE92E716
S1134250D8F80010DCF8002011B10968914210D0A0
S1134260596874E7002ECCD00122D4F884508DF81C
S11342700F205DB10022204611460DF10F03A8471F
S1134280BFE7002301261D46019367E7617994F88F
S1134290C9302046994228BF194600F0BEFEB0E757
S11342A0400A0020480A0020C00E0020C80E00204A
S11342B0C40E0020F8B50E460546FDF7DDFC314678
S11342C007462846FFF788FE044620B13846FDF726
S11342D0D7FC2046F8BD0346024631462846FFF780
S11342E007FF04463846FDF7CBFC2046F8BD00BF67
S11342F0F8B506460C4659B30B6843B11B68013345
S113430026D0CB681BB18B68003B18BF012318462D
S11343106122412100F07EF9204602F0A9F9002330
S11343204FF6FF724FF01C0C86F8CC30C6E91C43E4
S1134330E768D8B287420DD8154600230B4A2946B0
S113434013600B4A30461360FFF7B4FF2846F8BDEC
S11343500023DCE7A1680CFB0011CD89954202D251
S1134360002DEAD02A460133E3E700BFC40E002043
S1134370C80E0020034600B10C330648002A08BFCB
S113438002460548026011B11846FFF7B1BF08465E
S1134390704700BFD73E0000400A002000897047E4
S11343A00A7838B505461046FFF7A4FD60B14C788D
S11343B02046FFF79FFD38B12243530704D4284613
S11343C0BDE8384000F05ABD012038BD00B10C30C2
S11343D0FFF7E6BF10B504460878FFF78BFD58B128
S11343E04A781046FFF786FD30B1042A04D02046EF
S11343F0BDE8104000F078BD012010BD00B10C30C4
S1134400FFF7E8BF30B4DDE9024500B10C30CDE977
S1134410024530BC00F0BEBB38B5044648880D46A2
S113442002F024F94CB1D4F890304BB9294604F188
S11344300C00BDE8384000F09FBDD4F88430FFDEA6
S1134440022038BD02F013B900B10C3000F048BEB0
S1134450F7B5044600200D4602F008F96CB1D4F813
S1134460906004F10C075EB1002329461A463846D1
S1134470B44603B0BDE8F0406047D4F88430FFDEB2
S113448069462046FFF7E0FF2A469DF800102046C3
S1134490FDF7FEFF0146384600F0DEFD03B0F0BD37
S11344A037B5044690B100F10C0569462046FFF784
S11344B0CBFF284600F01DFEFF28024608D0204608
S11344C09DF80010FEF76AF803B030BD0546ECE72E
S11344D00048F9E70080FFFF00F0CDBC10B9D0F828
S11344E08430FFDED0F89000003818BF01207047F8
S11344F038B505460C46FDF7BFFBA9696B690C404E
S113450023436B61FDF7BCFB00200CB9002138BDCF
S11345104FF40071FBE738B504460D46FDF7ACFBDC
S1134520A1690D40616921EA05056561FDF7A8FBF4
S1134530284638BDF7B50D461446074618B300F1B2
S11345400C0604B9746921463046FFF7E4FFE2071C
S113455002D5304600F08AFC01F060FDFF280246D7
S113456020D04FF0FF3301930DB12B680193E30387
S11345700BD4304601A901F005FD10B90DB1019B22
S11345802B6003B0F0BD0646DBE76AB9019B01A9C5
S1134590013303D13846FFF78BFCEEE7304601F0D8
S11345A0FFFCEAE70320ECE70120EAE700B10C3066
S11345B000F0E2BE00B10C3000F0E2BB00B10C3000
S11345C000F024BF00B10C3000F041BF4FF4007381
S11345D007B50A490DF10602ADF80630FFF7F2FF00
S11345E0BDF80630B3F5007F05D1022808BF0020CE
S11345F003B05DF804FB0120FAE700BFCC0E0020F5
S11346000846114600F0D0BE00F0F2BE084600F0A5
S1134610F1BE000008B550B90548064B01601A60A8
S1134620054B1A68054B1A601868FBF7D5FF08BDDF
S1134630440A0020CC100020B80E0020D010002026
S1134640084601F0ACB8431C02D1002000F0BCBB0A
S11346500028FBD00C30F9E700F094BF00B10C3017
S113466008470000F0B58DB003AC05460B4627465D
S1134670184A02F1200C264610685168083203C615
S113468062453446F7D1002B08BF3B46002710682B
S11346901C463060384603F10C06FAB280B928464D
S11346A02188019201F0CCFA50B92846019AE18898
S11346B001F0DAFA20B931462846019A01F0E9FA04
S11346C00137032F06F1080604F10204E5D10DB009
S11346D0F0BD00BF229900002DE9F0410D4680464F
S11346E08AB090B300F10C0795F8283095F829208A
S11346F095F82A100093384695F82B3003AC05F151
S11347000C0601F0EFFA0FCE0FC496E8070084E818
S1134710070003A94046FFF72FFC3846291D04F083
S11347202BFC044648B93846094900F0A1FF044669
S113473018B9384601F0BCFA044638462968FFF730
S113474091FF20460AB0BDE8F0810746CCE700BFE0
S1134750489900000149FFF781BF00BF215C0000B8
S11347600149FFF77BBF00BF2D5C00000149FFF743
S113477075BF00BF3D5C00000149FFF76FBF00BF7C
S1134780395C000010B5044600B10C3400F0ACFAFA
S1134790012804D1204601F02FFA002010BD022088
S11347A0FCE7034618B15B7B0C3013B108475B7818
S11347B0FFDE0220704710B5044601F035FB2046A9
S11347C0BDE81040032100F0A5BA00B10C30FFF79A
S11347D0F2BF10B5437804463BB101F055FB2046C7
S11347E0BDE81040002100F095BA10BD00B10C30B6
S11347F0FFF7EFBF0149FFF7D4BF00BF955D00008D
S11348000149FFF7CEBF00BFBD5D00000149FFF7BE
S1134810C8BF00BF6D5D000020B1437B23B10C30E5
S113482001F0E0BA4378FFDE0220704700207047B1
S113483000207047022910B502D0032904D010BD0E
S1134840114B1B78002BFAD1FFF71CFB0028F6D084
S113485001F0A8F90028F2D000F0A4FF0028EED15E
S11348600A4B1C681CB12368BDE810401847FFF7C9
S1134870F3FE074B1860FFF711F9064B186020464A
S1134880BDE8104001F096B9D4100020F4100020C7
S1134890DC100020D810002002210120FFF7CABF3D
S11348A0024BD868C0F30360704700BF000002A841
S11348B07047000038B16FF0FF02034B10405A629A
S11348C0A3F580535862704700E000A8C2690E4BFC
S11348D002F06002402A12D0602A03D0202A11D1AB
S11348E0012206E071B10A68012A0BD94A6942F033
S11348F00102C3F880208022044B1A61704740F201
S11349000112F6E70022F4E7003F00B0000002A81D
S113491008B5094AFFF7C4FF0B2806D00C2809D0B4
S1134920092814BF0020022008BD106C10F4803048
S1134930F0D1F9E70220F7E7000002A84FF02A437C
S11349400121D3F81821596352074FF4005148BF8D
S1134950042203F50053196344BFA3F58053C3F83D
S11349601821704700F01803182B074B03D10022BD
S1134970C3F884207047010701D50122F8E7C20675
S1134980F5D540F20112F3E7003F00B010B54B78C3
S11349900C46002B40D13C4B1B7813B106223B4BF9
S11349A09A6700223A4BC3F88C204FF0805203F5EB
S11349B0F033DA64A3F500531B6C5B0208D4C369BB
S11349C013F0800F4FF4001314BF324A324A1362BB
S11349D04FF06052304B1A624FF480722F4BC3F881
S11349E01821C3F81421A378002B43D14FF02A4394
S11349F040F6FF721A63E378002B3ED14FF02A434E
S1134A0040F6FF721A676022254BDA6403F5E83337
S1134A10402200201A6410BD4FF06051013BDBB20C
S1134A20022B8EBF00231F4A52F823301A4A43F444
S1134A30001311624FF08051A2F580521362A2F567
S1134A408832936F23F0060343F004039367164BF5
S1134A50D9640423C2F88C3003F0BEFB0028C2D012
S1134A604FF480730D4AC2F81431A2F58052C2F893
S1134A701831B8E7FFF762FFBDE76022034BDA6441
S1134A8003F5D833C4E700BFE4100020006000A899
S1134A90004000A8005001A8006001A8002000AA5E
S1134AA0005000A850990000001002A8044AC00257
S1134AB0136A00F4FF2023F4FF23184310627047A5
S1134AC000C000A870B515460C4601F00B0323EA9C
S1134AD002012A4A2B40D164A2F58052D3646307B1
S1134AE006460CD503F050FC4FF4007315F0040F88
S1134AF014BF234A234A53620422234B1A64E00658
S1134B0006D515F0100F14BF00221B221F4B5A6547
S1134B10210618D52A061FD54FF40012184B1A6225
S1134B20012203F58053C3F80021FDF7A5F80E21F7
S1134B300546032002F0E4FB40F20122134B284611
S1134B40DA62FDF79DF814F0600F03D03046B16FC0
S1134B50FFF7BCFE002070BD0D4B1B6C5B02F2D452
S1134B604FF4001196F8B230064A1162002BEAD0D5
S1134B700122034BC3F80021E5E700BF006000A851
S1134B80005001A8006001A8002002A8004000A86D
S1134B90000002A8F7B5D0E93AC71946DDE9086371
S1134BA004468CEA060587EA03001540084085EAB6
S1134BB00C057840C4E93A5000250B4022F001006E
S1134BC043F4007306EA000243F00203CDE9005502
S1134BD003F00EF92378DA0718D5D4F8EC309B05E6
S1134BE014D54FF480312046FFF782FC237865F317
S1134BF000032370D4E93A2302400B4052EA030134
S1134C0004D00449A4F10C0009688847002003B0CB
S1134C10F0BD00BF500A0020034A0368002B08BF00
S1134C201346024A13607047B1480000500A00203E
S1134C30014B002059677047003F00B003282DE95D
S1134C40F3413DD8204B1E5C204B1F5C204B13F8D6
S1134C500080FDF711F8054603F0B6FA044640B1AA
S1134C6000230022CDE9003301200023002103F0BA
S1134C70BFF83946304603F09FFB4246394630467A
S1134C8003F00CFCB4B1134B1B6803B10C33124A90
S1134C90126C520208D4DB6913F0800F4FF4001336
S1134CA014BF0E4A0E4A13620E490868FFF702FE4B
S1134CB000230B60284602B0BDE8F041FCF7E0BFDA
S1134CC002B0BDE8F08100BF5C990000609900006B
S1134CD064990000B80E0020000002A8005001A84A
S1134CE0006001A8FC10002008B5FFF7D9FD0138C9
S1134CF0C0B20B2802D8054B185C08BD044B5B6995
S1134D0013F0060F0CBF01200420F6E76899000099
S1134D1000C001A831F00F0210B50BD1FFF7E4FF7A
S1134D20012809D1054C236F23F00F0001431046DD
S1134D30216710BD0120FCE70220FAE7003F00B024
S1134D4008B50D4B1A6C12F0A00F13D15B6C5B0706
S1134D5001D5012008BD094BD3F8003F23F07F4360
S1134D6023F0FF03002BF4D0FFF79AFD092801D0AC
S1134D700C28EED10020EDE7000002A8003000B0BE
S1134D8037B5154633B10191FFF7D8FD019901F00C
S1134D9091F801994FF02A42D368D46A03F00703CB
S1134DA0981D0123C4F30C0483401B1B9CB2AC422A
S1134DB028BF2C460348224601F0BCF9204603B024
S1134DC030BD00BF0C0000AA024638B590B9174B9D
S1134DD01B6823BB0125C1F12701C1F11C03002B72
S1134DE0B8BF5B42232B1EDC4CB26DB1104B1C7060
S1134DF0002038BDFFF778FF012812D10C4B0025A5
S1134E0093F90040611AE8E79470FCF735FF014616
S1134E102046FFF74BFE0846FCF732FFE8E7032085
S1134E20E7E70220E5E70120E3E700BFB80E002032
S1134E30540A002002EA01035B0710B405D50A4BAB
S1134E40D3F8803013F4706F09D0C46984EA020384
S1134E500B406340C3615DF8044BFFF733BE012090
S1134E605DF8044B704700BF004001A808B502F08C
S1134E706FFD002008BD01F0BFBD000070B50E46F7
S1134E80FCF7FAFE0546FFF743FD044620B1284629
S1134E90FCF7F6FE204670BD03F076FA104B32782C
S1134EA0D3F8003F022A23F0F00315D0042A0CBFE4
S1134EB00222002243EA02137278022A0ED0042A44
S1134EC00CBF0222002243EA8213054AC2F8003FC3
S1134ED00422044B1A64DAE70122EBE70122F2E729
S1134EE0003000B0002002A838B50D46FCF7C4FE1F
S1134EF004461E4AFFF7D4FC062826D804282BD8DB
S1134F00032829D003F040FA194B2A78D3F8003F3C
S1134F10022A23F00F0324D0042A0CBF0222002209
S1134F2013436A78022A1ED0042A0CBF02220022EC
S1134F3043EA82030E4A2046C2F8003F04220D4B86
S1134F401A64FCF79DFE00200AE00728DAD1D2F8A3
S1134F504431002BCED1D5E72046FCF791FE022048
S1134F6038BD0122DCE70122E2E700BF000002A80D
S1134F70003000B0002002A8F8B50E780446022ED6
S1134F800D4690F8C0700AD1002001F0BDFB002846
S1134F903CD1012001F0B8FB002818BF012630469F
S1134FA001F0B2FBA0B384F8C060AB8804F1C00682
S1134FB0A4F8C4306B883046A4F8C230AB88C4F877
S1134FC04431FF23A37101F061FB054608BB304661
S1134FD001F090FB0546E0B9636F5BB194F8C01033
S1134FE0B94207D0B3F91220A4F10C00FDF750FA2E
S1134FF084F8C900204601F0D1FB0121A4F8C400C3
S113500004F1880002F048FD2846F8BD0026C6E7F2
S11350100125032384F8C030F6E738B5054690F837
S1135020C0000C46032813D0FF2913D001F0A2FBC3
S1135030A04204D895F8C00001F09CFB0446204629
S1135040AC7101F0B7FCA0F1FF035842584138BDE0
S11350500220FCE70120FAE738B590F8C030044696
S1135060032B39D0456F41719DB3D0F88430BBB95F
S113507090F8C9308B4219D300222046FFF7CDFFA8
S1135080054658B9154B1B78012B07D8204601F06B
S113509085FB012104F1880002F0FEFC284638BD9E
S11350A0B0F93421B5F912309A42E5DD00222046E8
S11350B094F8C910FFF7B1FF05460028EED16067E8
S11350C02046FFF76BF901462046BDE83840FFF75C
S11350D0F1B8FF238371E1E70225DFE75E0A0020D0
S11350E00346D0F8C0000860B3F8C43000208B80B9
S11350F0704790F8C030032B14BF8079FF207047AD
S113510070B5436A8AB0012B03D1002528460AB042
S113511070BD04465E4901F0E9FE666F2589A0670B
S113512026B1336813B15B68002B6DD1FCF7A4FD85
S1135130FCF7A6FD01231A46A06F8DF80E30B38943
S1135140EB1A9BB2D6E90115ADF80C3005FB03113F
S1135150504B02911B68834212D010B10368002B9C
S113516059D19FED497B002384ED227B0146C4F88D
S113517090302046FFF7AAFBA06F02999DF80E20FD
S1135180099004AB204602F0ADF9002838D1424A18
S11351904249FFF785FB431EDBB20B2B2BD8D35CB4
S11351A0012BF6D13E4A3F49136CD801FCD40B6C59
S11351B0DB07F9D404A901A802F062FB0546F8B99B
S11351C0237860F30003237000F028FF636F5B69AA
S11351D01A68431EDBB2FD2B009225D9D61C23D9B5
S11351E0314B01321B6827D0DA1C8FD8024669463E
S11351F0204600931BE04B6913F0060FD2D0C8E79A
S1135200022528460AB070BD1A68032A8ED99B6A03
S11352105A0E134691E70369002BA2D0D3E900127A
S11352209B68C4E92212A1E702466946204600F0C1
S1135230B7FE28460AB070BDD91C05D80246694697
S11352402046009300F0ACFED4F8EC309B0504D467
S1135250237843F00103237058E74FF4803120464C
S1135260FFF746F9D4F8E820D4F8EC3002400B40BC
S113527052EA03013FF44AAF0C49A4F10C00096857
S1135280884743E7AFF300800000000000000000FF
S1135290FC4F00B0F01000206899000000C001A885
S11352A0000002A800C002A86C0A0020500A0020D6
S11352B010B5044651B14FF4006103F0CFFD10B1B5
S11352C094F8BA3063B94FF4807200E00A464FF4A0
S11352D08071204603F0AEFD003818BF012010BDD8
S11352E00020FCE74FF4807103F0B8BD10B50C4604
S11352F019B100F091FC00B10E34204601F066FDB6
S1135300024B4042C3F8F00E002010BD003000B044
S113531037B50C460192FCF7AFFC0546FFF7C0FA1F
S1135320C21FD2B2022A019901D90C2803D1084B19
S11353301B6C9B030AD42046012200F03FFF044665
S11353402846FCF79DFC204603B030BD0324F7E754
S1135350000002A8002914BF4FF4007200224FF489
S1135360007103F067BD002914BF4FF4806200226E
S11353704FF4806103F05EBD8A780346012A10D899
S1135380CA78012A0DD8087858B94878032808D86B
S113539008B1012A05D10868C3F8D8001846FFF7F8
S11353A0F5BA01207047000037B50DF106020D462D
S11353B001F098F8044688B185B12B7813F0F70F03
S11353C00CD0FCF759FC074BBDF806201C60064BBB
S11353D01A806A88054B1A80FCF752FC204603B0F9
S11353E030BD00BFE8100020EC100020E6100020C3
S11353F000F076BF044B1A68824201D0032801D81A
S113540000221A6003F024B8E8100020084610B502
S113541010F00304114618D1B3FA83F3192B12D0F8
S1135420C3F11903DBB2062B28BF06239C1DE2B28D
S113543001249440A4B2A1421A4628BF214600F098
S11354404FFE204610BD2346F0E70124F9E711F092
S11354500303084610B516D114883F2C13D9B4FAA7
S113546084F4192C05D0C4F11903DBB2062B28BF30
S1135470062319460633DCB20123A340138000F04F
S11354804DFE002010BD0120FCE710B5144608466F
S1135490012101F0CBFE2046012101F0C7FE0020CE
S11354A010BD0000F8B504460D4611B903785A063C
S11354B03DD44FF6FF73A189A66F994204D02C4BBB
S11354C01B680BB1204698472A4F3B68B34247D02C
S11354D0294B1B683BB11EB13268002A42D0B66822
S11354E0314620469847A36F002B34D01A68022A0D
S11354F031D95A6A12F47F4FC2F3072005D01B6AD0
S1135500D2B203FB02F2B2FBF0F002F02DFA07264E
S1135510204601F043F9C5B103F0E8FC062001225E
S1135520A36F16493B60164B88671A70F8BD4FF697
S1135530FF71104F866F3A6865F38613B24281811A
S11355400370C5D101F02AF90126314604F188001F
S113555002F0A2FAE0E7A4F10C00FAF7A7FFD4E7FF
S11355600126D5E71646204631469847BBE700BFDB
S1135570F8100020F0100020E0100020006000A8C7
S1135580E410002001F01ABC08B558220021064896
S113559003F00DFF1022FF21044803F008FFBDE8CB
S11355A0084003F0A3BC00BF043F00B0483F00B074
S11355B02DE9F3410F460446002850D0032380F818
S11355C0CC30284B4FF6FF721B784FF0FF388373B3
S11355D06923C0F8A830642300F10C06C0E92B331A
S11355E0C0E92D33A0F8BC301F4BA0F83C21427415
S11355F00283C0F85081A0F8128030461A8002F06D
S1135600F5FD3046FFF7C0FF94F90E00FFF74EFAA0
S11356106022164B04F1E401DA643046FFF7ACFE75
S113562041460546A26A3046FFF704FC0E230022D9
S1135630CDE9003340F202231046194602F0D8FBAC
S113564001F072F83DB92046FEF7C0FF054617B1D8
S113565008B92046B847284602B0BDE8F08180F872
S1135660C000FFDE540A002000110020004000A802
S113567010B50C46FFF788FFC4B1A378082B17D8E0
S1135680E278082A14D843EA021313F0FF030CBF8C
S113569019466168074A5160217882F85810617888
S11356A082F85B3082F8591003F020FC002010BD12
S11356B00120FCE7003F00B0012A10B513D8032BEA
S11356C011D803EB82030122084C02FA03F394F885
S11356D05A00DBB221B10343002084F85A3010BDD4
S11356E020EA0303F8E70120F9E700BF003F00B018
S11356F0034670B50C68B0F8C420013408BFD3F871
S11357009C408D6808BF0C604C686932013408BF46
S1135710D3F8A84092B208BF4C606C1C00F188001A
S113572033D1D3F8A450CC688D60661C31D1D3F842
S1135730A0400E69CC60013604BFD3F894600E61BA
S11357404E69013604BFD3F898604E618E69013604
S113575004BFD3F8AC608E618E69F6B1B24238BF33
S113576032460E688A61C3E927644C68C3F8A450C2
S1135770C3E92A420A69C3F894204A690721C3F895
S1135780982002F089F9002070BD954238BF154673
S1135790C9E7944238BF1446CBE76422E1E701F03D
S11357A0A3B9000010B5FCF767FA02460B49FFF7EE
S11357B09BFA012805D01046FCF762FA0224204621
S11357C010BDFFF76DF804460028F0D1CB68DB006C
S11357D0EDD41046FCF754FAF1E700BF000002A82C
S11357E04FF6FF72B0F83031934211D0094A0A499A
S11357F0526E100CC2F301120132B3FBF2F30880B3
S1135800064A074907481B04486600205366704748
S113581003207047004001A800110020005001A897
S1135820006001A80000FFFF2DE9F34105460E4684
S11358301446FFF785FA002800F0AA80554B4FF470
S113584000612846D3F8008FD3F8DC7E03F006FB12
S113585038B14FF4007201214F4B08461A64FEF729
S113586079FB31462846FEF725FD4A4B0646C3F828
S1135870008FC3F8DC7E002870D12B789F0601D4FA
S1135880002C43D0C4F3400002F01CFD022314F4A6
S1135890807F1FBF414A002113644FF02A420BBF8F
S11358A03D4A91611364536302F06EFD4FF48063CB
S11358B014F0040F14BF3A4A3A4A14F0400F5362EA
S11358C04FF00402344B20461A644FF0400314BFD7
S11358D0354A364AC2F88830FFF744F82846FFF7BD
S11358E001FD38B14FF4807314F0010F14BF2B4A3B
S11358F0294A1364A00602D52846FFF771FF003C2D
S113590018BF01242B7864F345132B70284600F04C
S113591083F900B32846FFF7E5FCE0B14FF400310A
S1135920284603F09BFA002814BF02230123032214
S113593001A91F4800F038FC9DF804101D4A01F02D
S11359400703052B9DF8053018D109070AD443F441
S11359508073C2F8E430002000F088FE304602B0C4
S1135960BDE8F08113F0040F0CBF9DF806304FF42E
S11359708073104A08BF43F48073EAE703F03001F0
S1135980202902D113F0010FEEE79DF80630E0E77D
S11359900226E3E7003000B0002002A8001002A8AD
S11359A0005001A8006001A800D000A800E000A8F1
S11359B00C0000AA003E00B008B5FFF735FF18B987
S11359C0BDE8084002F05EBC08BD00004FF6FF7160
S11359D0084A10B513888B4209D00748074C1B04AA
S11359E04466A0F5805043660020118010BD03205A
S11359F0FCE700BF00110020006001A80000FFFFC9
S1135A00474B2DE9F3411E6805460C46174606B17F
S1135A100C3640F2022305F001022340134340D028
S1135A20A30709D53F4BD3F8003F03F0C003402B35
S1135A3002BF02213C4B99604FF000083AB30023A7
S1135A40002200210120CDE9008802F0D1F94FF0B5
S1135A50FF3001F067FC414670810120FEF77AFABD
S1135A60324B1B6C580208D4F36913F0800F4FF4C7
S1135A70001314BF2E4A2F4A13622F490868FEF7F9
S1135A8019FF00230B60337843F004033370A1053E
S1135A9007D501213046FEF72BFD24F4007405439D
S1135AA00C43D6E93A2315401C4055EA040315D0AB
S1135AB0224B2A461968A6F10C00234688472A0778
S1135AC044BF00221E4B05F07F4504F0220448BF6A
S1135AD01A6055EA040301D0FFF778FFFB070FD5DE
S1135AE01849194A08680021136811600121174AEE
S1135AF0117003B19847164B002102205B68984748
S1135B0017F00E0F08D040F257123B21002002B0CC
S1135B10BDE8F041FEF77EBD02B0BDE8F08100BFF4
S1135B20B80E0020003000B0001002A8000002A847
S1135B30005001A8006001A8FC100020500A0020B9
S1135B40E810002008110020041100200211002098
S1135B50480A002008B5094BD3F84C315A1C0CD024
S1135B605B000AD40320FFF769F84FF08062044B0E
S1135B70DA6401225A6102229A6208BD0080E00FB1
S1135B80001002A84FF40022014B1A64704700BFB2
S1135B90002002A8024B186CC0F3C040704700BF3D
S1135BA0000002A8024B586900F00100704700BFD2
S1135BB000C001A8064B5A69D20702D508B901F002
S1135BC07DB85B69DB0702D408B101F069B870479E
S1135BD000C001A838B515460446FEF789FB05F058
S1135BE0F7012046FFF724F800224FF4C021204695
S1135BF003F020F9002038BD08B50022802103F00D
S1135C0019F90022034B801A18BF0120C3F8CC20D5
S1135C1008BD00BF004000A8802103F01FB90000A8
S1135C2000220149FFF7D6BF68DE000001220149C6
S1135C30FFF7D0BF18DB0000FFF7F2BFFFF7F6BF96
S1135C407FB5531C8DF8141005AA090A8DF8151098
S1135C50029202210022DBB2CDE90021114603F0B9
S1135C6009F907B05DF804FB7FB58DF8141005AB96
S1135C70090A8DF815100293042102230132CDE99B
S1135C800031D3B20121002203F0F4F807B05DF82B
S1135C9004FB1FB50023029108210132CDE9003134
S1135CA0D3B20122114603F0E5F805B05DF804FB18
S1135CB010B5FF224FF6FF710446FFF7C1FF68B924
S1135CC0FF224FF6FF712046FFF7CEFF30B9204682
S1135CD0BDE81040FF220249FFF7DBBF10BD00BF43
S1135CE08C99000010B55B0743EA02429DF8083026
